{
	"https://github.com/OpenZeppelin/openzeppelin-contracts/blob/release-v2.5.0/contracts/crowdsale/Crowdsale.sol": {
		"Crowdsale": {
			"abi": [
				{
					"constant": true,
					"inputs": [],
					"name": "rate",
					"outputs": [
						{
							"name": "",
							"type": "uint256"
						}
					],
					"payable": false,
					"stateMutability": "view",
					"type": "function"
				},
				{
					"constant": true,
					"inputs": [],
					"name": "weiRaised",
					"outputs": [
						{
							"name": "",
							"type": "uint256"
						}
					],
					"payable": false,
					"stateMutability": "view",
					"type": "function"
				},
				{
					"constant": true,
					"inputs": [],
					"name": "wallet",
					"outputs": [
						{
							"name": "",
							"type": "address"
						}
					],
					"payable": false,
					"stateMutability": "view",
					"type": "function"
				},
				{
					"constant": false,
					"inputs": [
						{
							"name": "beneficiary",
							"type": "address"
						}
					],
					"name": "buyTokens",
					"outputs": [],
					"payable": true,
					"stateMutability": "payable",
					"type": "function"
				},
				{
					"constant": true,
					"inputs": [],
					"name": "token",
					"outputs": [
						{
							"name": "",
							"type": "address"
						}
					],
					"payable": false,
					"stateMutability": "view",
					"type": "function"
				},
				{
					"inputs": [
						{
							"name": "rate",
							"type": "uint256"
						},
						{
							"name": "wallet",
							"type": "address"
						},
						{
							"name": "token",
							"type": "address"
						}
					],
					"payable": false,
					"stateMutability": "nonpayable",
					"type": "constructor"
				},
				{
					"payable": true,
					"stateMutability": "payable",
					"type": "fallback"
				},
				{
					"anonymous": false,
					"inputs": [
						{
							"indexed": true,
							"name": "purchaser",
							"type": "address"
						},
						{
							"indexed": true,
							"name": "beneficiary",
							"type": "address"
						},
						{
							"indexed": false,
							"name": "value",
							"type": "uint256"
						},
						{
							"indexed": false,
							"name": "amount",
							"type": "uint256"
						}
					],
					"name": "TokensPurchased",
					"type": "event"
				}
			],
			"devdoc": {
				"details": "Crowdsale is a base contract for managing a token crowdsale, allowing investors to purchase tokens with ether. This contract implements such functionality in its most fundamental form and can be extended to provide additional functionality and/or custom behavior. The external interface represents the basic interface for purchasing tokens, and conforms the base architecture for crowdsales. It is *not* intended to be modified / overridden. The internal interface conforms the extensible and modifiable surface of crowdsales. Override the methods to add functionality. Consider using 'super' where appropriate to concatenate behavior.",
				"methods": {
					"buyTokens(address)": {
						"details": "low level token purchase ***DO NOT OVERRIDE*** This function has a non-reentrancy guard, so it shouldn't be called by another `nonReentrant` function.",
						"params": {
							"beneficiary": "Recipient of the token purchase"
						}
					},
					"constructor": {
						"details": "The rate is the conversion between wei and the smallest and indivisible token unit. So, if you are using a rate of 1 with a ERC20Detailed token with 3 decimals called TOK, 1 wei will give you 1 unit, or 0.001 TOK.",
						"params": {
							"rate": "Number of token units a buyer gets per wei",
							"token": "Address of the token being sold",
							"wallet": "Address where collected funds will be forwarded to"
						}
					},
					"rate()": {
						"return": "the number of token units a buyer gets per wei."
					},
					"token()": {
						"return": "the token being sold."
					},
					"wallet()": {
						"return": "the address where funds are collected."
					},
					"weiRaised()": {
						"return": "the amount of wei raised."
					}
				},
				"title": "Crowdsale"
			},
			"evm": {
				"assembly": "    /* \"https://github.com/OpenZeppelin/openzeppelin-contracts/blob/release-v2.5.0/contracts/crowdsale/Crowdsale.sol\":896:7645  contract Crowdsale is Context, ReentrancyGuard {... */\n  mstore(0x40, 0x80)\n    /* \"https://github.com/OpenZeppelin/openzeppelin-contracts/blob/release-v2.5.0/contracts/crowdsale/Crowdsale.sol\":2319:2689  constructor (uint256 rate, address payable wallet, IERC20 token) public {... */\n  callvalue\n    /* \"--CODEGEN--\":8:17   */\n  dup1\n    /* \"--CODEGEN--\":5:7   */\n  iszero\n  tag_1\n  jumpi\n    /* \"--CODEGEN--\":30:31   */\n  0x00\n    /* \"--CODEGEN--\":27:28   */\n  dup1\n    /* \"--CODEGEN--\":20:32   */\n  revert\n    /* \"--CODEGEN--\":5:7   */\ntag_1:\n    /* \"https://github.com/OpenZeppelin/openzeppelin-contracts/blob/release-v2.5.0/contracts/crowdsale/Crowdsale.sol\":2319:2689  constructor (uint256 rate, address payable wallet, IERC20 token) public {... */\n  pop\n  mload(0x40)\n  0x60\n  dup1\n  bytecodeSize\n  dup4\n  codecopy\n  dup2\n  add\n  dup1\n  0x40\n  mstore\n    /* \"--CODEGEN--\":13:15   */\n  0x60\n    /* \"--CODEGEN--\":8:11   */\n  dup2\n    /* \"--CODEGEN--\":5:16   */\n  lt\n    /* \"--CODEGEN--\":2:4   */\n  iszero\n  tag_2\n  jumpi\n    /* \"--CODEGEN--\":29:30   */\n  0x00\n    /* \"--CODEGEN--\":26:27   */\n  dup1\n    /* \"--CODEGEN--\":19:31   */\n  revert\n    /* \"--CODEGEN--\":2:4   */\ntag_2:\n    /* \"https://github.com/OpenZeppelin/openzeppelin-contracts/blob/release-v2.5.0/contracts/crowdsale/Crowdsale.sol\":2319:2689  constructor (uint256 rate, address payable wallet, IERC20 token) public {... */\n  dup2\n  add\n  swap1\n  dup1\n  dup1\n  mload\n  swap1\n  0x20\n  add\n  swap1\n  swap3\n  swap2\n  swap1\n  dup1\n  mload\n  swap1\n  0x20\n  add\n  swap1\n  swap3\n  swap2\n  swap1\n  dup1\n  mload\n  swap1\n  0x20\n  add\n  swap1\n  swap3\n  swap2\n  swap1\n  pop\n  pop\n  pop\n    /* \"https://github.com/OpenZeppelin/openzeppelin-contracts/blob/release-v2.5.0/contracts/utils/ReentrancyGuard.sol\":1435:1439  true */\n  0x01\n    /* \"https://github.com/OpenZeppelin/openzeppelin-contracts/blob/release-v2.5.0/contracts/utils/ReentrancyGuard.sol\":1421:1432  _notEntered */\n  0x00\n  dup1\n    /* \"https://github.com/OpenZeppelin/openzeppelin-contracts/blob/release-v2.5.0/contracts/utils/ReentrancyGuard.sol\":1421:1439  _notEntered = true */\n  0x0100\n  exp\n  dup2\n  sload\n  dup2\n  0xff\n  mul\n  not\n  and\n  swap1\n  dup4\n  iszero\n  iszero\n  mul\n  or\n  swap1\n  sstore\n  pop\n    /* \"https://github.com/OpenZeppelin/openzeppelin-contracts/blob/release-v2.5.0/contracts/crowdsale/Crowdsale.sol\":2416:2417  0 */\n  0x00\n    /* \"https://github.com/OpenZeppelin/openzeppelin-contracts/blob/release-v2.5.0/contracts/crowdsale/Crowdsale.sol\":2409:2413  rate */\n  dup4\n    /* \"https://github.com/OpenZeppelin/openzeppelin-contracts/blob/release-v2.5.0/contracts/crowdsale/Crowdsale.sol\":2409:2417  rate > 0 */\n  gt\n    /* \"https://github.com/OpenZeppelin/openzeppelin-contracts/blob/release-v2.5.0/contracts/crowdsale/Crowdsale.sol\":2401:2442  require(rate > 0, \"Crowdsale: rate is 0\") */\n  iszero\n  iszero\n  tag_9\n  jumpi\n  mload(0x40)\n  0x08c379a000000000000000000000000000000000000000000000000000000000\n  dup2\n  mstore\n  0x04\n  add\n  dup1\n  dup1\n  0x20\n  add\n  dup3\n  dup2\n  sub\n  dup3\n  mstore\n  0x14\n  dup2\n  mstore\n  0x20\n  add\n  dup1\n  0x43726f776473616c653a20726174652069732030000000000000000000000000\n  dup2\n  mstore\n  pop\n  0x20\n  add\n  swap2\n  pop\n  pop\n  mload(0x40)\n  dup1\n  swap2\n  sub\n  swap1\n  revert\ntag_9:\n    /* \"https://github.com/OpenZeppelin/openzeppelin-contracts/blob/release-v2.5.0/contracts/crowdsale/Crowdsale.sol\":2478:2479  0 */\n  0x00\n    /* \"https://github.com/OpenZeppelin/openzeppelin-contracts/blob/release-v2.5.0/contracts/crowdsale/Crowdsale.sol\":2460:2480  wallet != address(0) */\n  0xffffffffffffffffffffffffffffffffffffffff\n  and\n    /* \"https://github.com/OpenZeppelin/openzeppelin-contracts/blob/release-v2.5.0/contracts/crowdsale/Crowdsale.sol\":2460:2466  wallet */\n  dup3\n    /* \"https://github.com/OpenZeppelin/openzeppelin-contracts/blob/release-v2.5.0/contracts/crowdsale/Crowdsale.sol\":2460:2480  wallet != address(0) */\n  0xffffffffffffffffffffffffffffffffffffffff\n  and\n  eq\n  iszero\n    /* \"https://github.com/OpenZeppelin/openzeppelin-contracts/blob/release-v2.5.0/contracts/crowdsale/Crowdsale.sol\":2452:2522  require(wallet != address(0), \"Crowdsale: wallet is the zero address\") */\n  iszero\n  iszero\n  tag_10\n  jumpi\n  mload(0x40)\n  0x08c379a000000000000000000000000000000000000000000000000000000000\n  dup2\n  mstore\n  0x04\n  add\n  dup1\n  dup1\n  0x20\n  add\n  dup3\n  dup2\n  sub\n  dup3\n  mstore\n  0x25\n  dup2\n  mstore\n  0x20\n  add\n  dup1\n  data_e2b432b30cf592332baa824ba45b03380bf314917ec1eb0e2522d19fb933b9f6\n  0x25\n  swap2\n  codecopy\n  0x40\n  add\n  swap2\n  pop\n  pop\n  mload(0x40)\n  dup1\n  swap2\n  sub\n  swap1\n  revert\ntag_10:\n    /* \"https://github.com/OpenZeppelin/openzeppelin-contracts/blob/release-v2.5.0/contracts/crowdsale/Crowdsale.sol\":2566:2567  0 */\n  0x00\n    /* \"https://github.com/OpenZeppelin/openzeppelin-contracts/blob/release-v2.5.0/contracts/crowdsale/Crowdsale.sol\":2540:2568  address(token) != address(0) */\n  0xffffffffffffffffffffffffffffffffffffffff\n  and\n    /* \"https://github.com/OpenZeppelin/openzeppelin-contracts/blob/release-v2.5.0/contracts/crowdsale/Crowdsale.sol\":2548:2553  token */\n  dup2\n    /* \"https://github.com/OpenZeppelin/openzeppelin-contracts/blob/release-v2.5.0/contracts/crowdsale/Crowdsale.sol\":2540:2568  address(token) != address(0) */\n  0xffffffffffffffffffffffffffffffffffffffff\n  and\n  eq\n  iszero\n    /* \"https://github.com/OpenZeppelin/openzeppelin-contracts/blob/release-v2.5.0/contracts/crowdsale/Crowdsale.sol\":2532:2609  require(address(token) != address(0), \"Crowdsale: token is the zero address\") */\n  iszero\n  iszero\n  tag_11\n  jumpi\n  mload(0x40)\n  0x08c379a000000000000000000000000000000000000000000000000000000000\n  dup2\n  mstore\n  0x04\n  add\n  dup1\n  dup1\n  0x20\n  add\n  dup3\n  dup2\n  sub\n  dup3\n  mstore\n  0x24\n  dup2\n  mstore\n  0x20\n  add\n  dup1\n  data_64ba396754921ac5cdc6388a09272386edd92a5c198850f31a7c165ba7c79b82\n  0x24\n  swap2\n  codecopy\n  0x40\n  add\n  swap2\n  pop\n  pop\n  mload(0x40)\n  dup1\n  swap2\n  sub\n  swap1\n  revert\ntag_11:\n    /* \"https://github.com/OpenZeppelin/openzeppelin-contracts/blob/release-v2.5.0/contracts/crowdsale/Crowdsale.sol\":2628:2632  rate */\n  dup3\n    /* \"https://github.com/OpenZeppelin/openzeppelin-contracts/blob/release-v2.5.0/contracts/crowdsale/Crowdsale.sol\":2620:2625  _rate */\n  0x02\n    /* \"https://github.com/OpenZeppelin/openzeppelin-contracts/blob/release-v2.5.0/contracts/crowdsale/Crowdsale.sol\":2620:2632  _rate = rate */\n  dup2\n  swap1\n  sstore\n  pop\n    /* \"https://github.com/OpenZeppelin/openzeppelin-contracts/blob/release-v2.5.0/contracts/crowdsale/Crowdsale.sol\":2652:2658  wallet */\n  dup2\n    /* \"https://github.com/OpenZeppelin/openzeppelin-contracts/blob/release-v2.5.0/contracts/crowdsale/Crowdsale.sol\":2642:2649  _wallet */\n  0x01\n  0x00\n    /* \"https://github.com/OpenZeppelin/openzeppelin-contracts/blob/release-v2.5.0/contracts/crowdsale/Crowdsale.sol\":2642:2658  _wallet = wallet */\n  0x0100\n  exp\n  dup2\n  sload\n  dup2\n  0xffffffffffffffffffffffffffffffffffffffff\n  mul\n  not\n  and\n  swap1\n  dup4\n  0xffffffffffffffffffffffffffffffffffffffff\n  and\n  mul\n  or\n  swap1\n  sstore\n  pop\n    /* \"https://github.com/OpenZeppelin/openzeppelin-contracts/blob/release-v2.5.0/contracts/crowdsale/Crowdsale.sol\":2677:2682  token */\n  dup1\n    /* \"https://github.com/OpenZeppelin/openzeppelin-contracts/blob/release-v2.5.0/contracts/crowdsale/Crowdsale.sol\":2668:2674  _token */\n  0x00\n  0x01\n    /* \"https://github.com/OpenZeppelin/openzeppelin-contracts/blob/release-v2.5.0/contracts/crowdsale/Crowdsale.sol\":2668:2682  _token = token */\n  0x0100\n  exp\n  dup2\n  sload\n  dup2\n  0xffffffffffffffffffffffffffffffffffffffff\n  mul\n  not\n  and\n  swap1\n  dup4\n  0xffffffffffffffffffffffffffffffffffffffff\n  and\n  mul\n  or\n  swap1\n  sstore\n  pop\n    /* \"https://github.com/OpenZeppelin/openzeppelin-contracts/blob/release-v2.5.0/contracts/crowdsale/Crowdsale.sol\":2319:2689  constructor (uint256 rate, address payable wallet, IERC20 token) public {... */\n  pop\n  pop\n  pop\n    /* \"https://github.com/OpenZeppelin/openzeppelin-contracts/blob/release-v2.5.0/contracts/crowdsale/Crowdsale.sol\":896:7645  contract Crowdsale is Context, ReentrancyGuard {... */\n  dataSize(sub_0)\n  dup1\n  dataOffset(sub_0)\n  0x00\n  codecopy\n  0x00\n  return\nstop\ndata_64ba396754921ac5cdc6388a09272386edd92a5c198850f31a7c165ba7c79b82 43726f776473616c653a20746f6b656e20697320746865207a65726f2061646472657373\ndata_e2b432b30cf592332baa824ba45b03380bf314917ec1eb0e2522d19fb933b9f6 43726f776473616c653a2077616c6c657420697320746865207a65726f2061646472657373\n\nsub_0: assembly {\n        /* \"https://github.com/OpenZeppelin/openzeppelin-contracts/blob/release-v2.5.0/contracts/crowdsale/Crowdsale.sol\":896:7645  contract Crowdsale is Context, ReentrancyGuard {... */\n      mstore(0x40, 0x80)\n      jumpi(tag_1, lt(calldatasize, 0x04))\n      shr(0xe0, calldataload(0x00))\n      dup1\n      0x2c4e722e\n      eq\n      tag_2\n      jumpi\n      dup1\n      0x4042b66f\n      eq\n      tag_3\n      jumpi\n      dup1\n      0x521eb273\n      eq\n      tag_4\n      jumpi\n      dup1\n      0xec8ac4d8\n      eq\n      tag_5\n      jumpi\n      dup1\n      0xfc0c546a\n      eq\n      tag_6\n      jumpi\n    tag_1:\n        /* \"https://github.com/OpenZeppelin/openzeppelin-contracts/blob/release-v2.5.0/contracts/crowdsale/Crowdsale.sol\":3017:3040  buyTokens(_msgSender()) */\n      tag_9\n        /* \"https://github.com/OpenZeppelin/openzeppelin-contracts/blob/release-v2.5.0/contracts/crowdsale/Crowdsale.sol\":3027:3039  _msgSender() */\n      tag_10\n        /* \"https://github.com/OpenZeppelin/openzeppelin-contracts/blob/release-v2.5.0/contracts/crowdsale/Crowdsale.sol\":3027:3037  _msgSender */\n      tag_11\n        /* \"https://github.com/OpenZeppelin/openzeppelin-contracts/blob/release-v2.5.0/contracts/crowdsale/Crowdsale.sol\":3027:3039  _msgSender() */\n      jump\t// in\n    tag_10:\n        /* \"https://github.com/OpenZeppelin/openzeppelin-contracts/blob/release-v2.5.0/contracts/crowdsale/Crowdsale.sol\":3017:3026  buyTokens */\n      tag_12\n        /* \"https://github.com/OpenZeppelin/openzeppelin-contracts/blob/release-v2.5.0/contracts/crowdsale/Crowdsale.sol\":3017:3040  buyTokens(_msgSender()) */\n      jump\t// in\n    tag_9:\n        /* \"https://github.com/OpenZeppelin/openzeppelin-contracts/blob/release-v2.5.0/contracts/crowdsale/Crowdsale.sol\":896:7645  contract Crowdsale is Context, ReentrancyGuard {... */\n      stop\n        /* \"https://github.com/OpenZeppelin/openzeppelin-contracts/blob/release-v2.5.0/contracts/crowdsale/Crowdsale.sol\":3430:3505  function rate() public view returns (uint256) {... */\n    tag_2:\n      callvalue\n        /* \"--CODEGEN--\":8:17   */\n      dup1\n        /* \"--CODEGEN--\":5:7   */\n      iszero\n      tag_13\n      jumpi\n        /* \"--CODEGEN--\":30:31   */\n      0x00\n        /* \"--CODEGEN--\":27:28   */\n      dup1\n        /* \"--CODEGEN--\":20:32   */\n      revert\n        /* \"--CODEGEN--\":5:7   */\n    tag_13:\n        /* \"https://github.com/OpenZeppelin/openzeppelin-contracts/blob/release-v2.5.0/contracts/crowdsale/Crowdsale.sol\":3430:3505  function rate() public view returns (uint256) {... */\n      pop\n      tag_14\n      tag_15\n      jump\t// in\n    tag_14:\n      mload(0x40)\n      dup1\n      dup3\n      dup2\n      mstore\n      0x20\n      add\n      swap2\n      pop\n      pop\n      mload(0x40)\n      dup1\n      swap2\n      sub\n      swap1\n      return\n        /* \"https://github.com/OpenZeppelin/openzeppelin-contracts/blob/release-v2.5.0/contracts/crowdsale/Crowdsale.sol\":3568:3653  function weiRaised() public view returns (uint256) {... */\n    tag_3:\n      callvalue\n        /* \"--CODEGEN--\":8:17   */\n      dup1\n        /* \"--CODEGEN--\":5:7   */\n      iszero\n      tag_16\n      jumpi\n        /* \"--CODEGEN--\":30:31   */\n      0x00\n        /* \"--CODEGEN--\":27:28   */\n      dup1\n        /* \"--CODEGEN--\":20:32   */\n      revert\n        /* \"--CODEGEN--\":5:7   */\n    tag_16:\n        /* \"https://github.com/OpenZeppelin/openzeppelin-contracts/blob/release-v2.5.0/contracts/crowdsale/Crowdsale.sol\":3568:3653  function weiRaised() public view returns (uint256) {... */\n      pop\n      tag_17\n      tag_18\n      jump\t// in\n    tag_17:\n      mload(0x40)\n      dup1\n      dup3\n      dup2\n      mstore\n      0x20\n      add\n      swap2\n      pop\n      pop\n      mload(0x40)\n      dup1\n      swap2\n      sub\n      swap1\n      return\n        /* \"https://github.com/OpenZeppelin/openzeppelin-contracts/blob/release-v2.5.0/contracts/crowdsale/Crowdsale.sol\":3258:3345  function wallet() public view returns (address payable) {... */\n    tag_4:\n      callvalue\n        /* \"--CODEGEN--\":8:17   */\n      dup1\n        /* \"--CODEGEN--\":5:7   */\n      iszero\n      tag_19\n      jumpi\n        /* \"--CODEGEN--\":30:31   */\n      0x00\n        /* \"--CODEGEN--\":27:28   */\n      dup1\n        /* \"--CODEGEN--\":20:32   */\n      revert\n        /* \"--CODEGEN--\":5:7   */\n    tag_19:\n        /* \"https://github.com/OpenZeppelin/openzeppelin-contracts/blob/release-v2.5.0/contracts/crowdsale/Crowdsale.sol\":3258:3345  function wallet() public view returns (address payable) {... */\n      pop\n      tag_20\n      tag_21\n      jump\t// in\n    tag_20:\n      mload(0x40)\n      dup1\n      dup3\n      0xffffffffffffffffffffffffffffffffffffffff\n      and\n      0xffffffffffffffffffffffffffffffffffffffff\n      and\n      dup2\n      mstore\n      0x20\n      add\n      swap2\n      pop\n      pop\n      mload(0x40)\n      dup1\n      swap2\n      sub\n      swap1\n      return\n        /* \"https://github.com/OpenZeppelin/openzeppelin-contracts/blob/release-v2.5.0/contracts/crowdsale/Crowdsale.sol\":3910:4515  function buyTokens(address beneficiary) public nonReentrant payable {... */\n    tag_5:\n      tag_22\n      0x04\n      dup1\n      calldatasize\n      sub\n        /* \"--CODEGEN--\":13:15   */\n      0x20\n        /* \"--CODEGEN--\":8:11   */\n      dup2\n        /* \"--CODEGEN--\":5:16   */\n      lt\n        /* \"--CODEGEN--\":2:4   */\n      iszero\n      tag_23\n      jumpi\n        /* \"--CODEGEN--\":29:30   */\n      0x00\n        /* \"--CODEGEN--\":26:27   */\n      dup1\n        /* \"--CODEGEN--\":19:31   */\n      revert\n        /* \"--CODEGEN--\":2:4   */\n    tag_23:\n        /* \"https://github.com/OpenZeppelin/openzeppelin-contracts/blob/release-v2.5.0/contracts/crowdsale/Crowdsale.sol\":3910:4515  function buyTokens(address beneficiary) public nonReentrant payable {... */\n      dup2\n      add\n      swap1\n      dup1\n      dup1\n      calldataload\n      0xffffffffffffffffffffffffffffffffffffffff\n      and\n      swap1\n      0x20\n      add\n      swap1\n      swap3\n      swap2\n      swap1\n      pop\n      pop\n      pop\n      tag_12\n      jump\t// in\n    tag_22:\n      stop\n        /* \"https://github.com/OpenZeppelin/openzeppelin-contracts/blob/release-v2.5.0/contracts/crowdsale/Crowdsale.sol\":3106:3182  function token() public view returns (IERC20) {... */\n    tag_6:\n      callvalue\n        /* \"--CODEGEN--\":8:17   */\n      dup1\n        /* \"--CODEGEN--\":5:7   */\n      iszero\n      tag_24\n      jumpi\n        /* \"--CODEGEN--\":30:31   */\n      0x00\n        /* \"--CODEGEN--\":27:28   */\n      dup1\n        /* \"--CODEGEN--\":20:32   */\n      revert\n        /* \"--CODEGEN--\":5:7   */\n    tag_24:\n        /* \"https://github.com/OpenZeppelin/openzeppelin-contracts/blob/release-v2.5.0/contracts/crowdsale/Crowdsale.sol\":3106:3182  function token() public view returns (IERC20) {... */\n      pop\n      tag_25\n      tag_26\n      jump\t// in\n    tag_25:\n      mload(0x40)\n      dup1\n      dup3\n      0xffffffffffffffffffffffffffffffffffffffff\n      and\n      0xffffffffffffffffffffffffffffffffffffffff\n      and\n      dup2\n      mstore\n      0x20\n      add\n      swap2\n      pop\n      pop\n      mload(0x40)\n      dup1\n      swap2\n      sub\n      swap1\n      return\n        /* \"https://github.com/OpenZeppelin/openzeppelin-contracts/blob/release-v2.5.0/contracts/GSN/Context.sol\":788:884  function _msgSender() internal view returns (address payable) {... */\n    tag_11:\n        /* \"https://github.com/OpenZeppelin/openzeppelin-contracts/blob/release-v2.5.0/contracts/GSN/Context.sol\":833:848  address payable */\n      0x00\n        /* \"https://github.com/OpenZeppelin/openzeppelin-contracts/blob/release-v2.5.0/contracts/GSN/Context.sol\":867:877  msg.sender */\n      caller\n        /* \"https://github.com/OpenZeppelin/openzeppelin-contracts/blob/release-v2.5.0/contracts/GSN/Context.sol\":860:877  return msg.sender */\n      swap1\n      pop\n        /* \"https://github.com/OpenZeppelin/openzeppelin-contracts/blob/release-v2.5.0/contracts/GSN/Context.sol\":788:884  function _msgSender() internal view returns (address payable) {... */\n      swap1\n      jump\t// out\n        /* \"https://github.com/OpenZeppelin/openzeppelin-contracts/blob/release-v2.5.0/contracts/crowdsale/Crowdsale.sol\":3910:4515  function buyTokens(address beneficiary) public nonReentrant payable {... */\n    tag_12:\n        /* \"https://github.com/OpenZeppelin/openzeppelin-contracts/blob/release-v2.5.0/contracts/utils/ReentrancyGuard.sol\":1934:1945  _notEntered */\n      0x00\n      dup1\n      swap1\n      sload\n      swap1\n      0x0100\n      exp\n      swap1\n      div\n      0xff\n      and\n        /* \"https://github.com/OpenZeppelin/openzeppelin-contracts/blob/release-v2.5.0/contracts/utils/ReentrancyGuard.sol\":1926:1981  require(_notEntered, \"ReentrancyGuard: reentrant call\") */\n      iszero\n      iszero\n      tag_29\n      jumpi\n      mload(0x40)\n      0x08c379a000000000000000000000000000000000000000000000000000000000\n      dup2\n      mstore\n      0x04\n      add\n      dup1\n      dup1\n      0x20\n      add\n      dup3\n      dup2\n      sub\n      dup3\n      mstore\n      0x1f\n      dup2\n      mstore\n      0x20\n      add\n      dup1\n      0x5265656e7472616e637947756172643a207265656e7472616e742063616c6c00\n      dup2\n      mstore\n      pop\n      0x20\n      add\n      swap2\n      pop\n      pop\n      mload(0x40)\n      dup1\n      swap2\n      sub\n      swap1\n      revert\n    tag_29:\n        /* \"https://github.com/OpenZeppelin/openzeppelin-contracts/blob/release-v2.5.0/contracts/utils/ReentrancyGuard.sol\":2070:2075  false */\n      0x00\n        /* \"https://github.com/OpenZeppelin/openzeppelin-contracts/blob/release-v2.5.0/contracts/utils/ReentrancyGuard.sol\":2056:2067  _notEntered */\n      dup1\n      0x00\n        /* \"https://github.com/OpenZeppelin/openzeppelin-contracts/blob/release-v2.5.0/contracts/utils/ReentrancyGuard.sol\":2056:2075  _notEntered = false */\n      0x0100\n      exp\n      dup2\n      sload\n      dup2\n      0xff\n      mul\n      not\n      and\n      swap1\n      dup4\n      iszero\n      iszero\n      mul\n      or\n      swap1\n      sstore\n      pop\n        /* \"https://github.com/OpenZeppelin/openzeppelin-contracts/blob/release-v2.5.0/contracts/crowdsale/Crowdsale.sol\":3988:4005  uint256 weiAmount */\n      0x00\n        /* \"https://github.com/OpenZeppelin/openzeppelin-contracts/blob/release-v2.5.0/contracts/crowdsale/Crowdsale.sol\":4008:4017  msg.value */\n      callvalue\n        /* \"https://github.com/OpenZeppelin/openzeppelin-contracts/blob/release-v2.5.0/contracts/crowdsale/Crowdsale.sol\":3988:4017  uint256 weiAmount = msg.value */\n      swap1\n      pop\n        /* \"https://github.com/OpenZeppelin/openzeppelin-contracts/blob/release-v2.5.0/contracts/crowdsale/Crowdsale.sol\":4027:4071  _preValidatePurchase(beneficiary, weiAmount) */\n      tag_31\n        /* \"https://github.com/OpenZeppelin/openzeppelin-contracts/blob/release-v2.5.0/contracts/crowdsale/Crowdsale.sol\":4048:4059  beneficiary */\n      dup3\n        /* \"https://github.com/OpenZeppelin/openzeppelin-contracts/blob/release-v2.5.0/contracts/crowdsale/Crowdsale.sol\":4061:4070  weiAmount */\n      dup3\n        /* \"https://github.com/OpenZeppelin/openzeppelin-contracts/blob/release-v2.5.0/contracts/crowdsale/Crowdsale.sol\":4027:4047  _preValidatePurchase */\n      tag_32\n        /* \"https://github.com/OpenZeppelin/openzeppelin-contracts/blob/release-v2.5.0/contracts/crowdsale/Crowdsale.sol\":4027:4071  _preValidatePurchase(beneficiary, weiAmount) */\n      jump\t// in\n    tag_31:\n        /* \"https://github.com/OpenZeppelin/openzeppelin-contracts/blob/release-v2.5.0/contracts/crowdsale/Crowdsale.sol\":4130:4144  uint256 tokens */\n      0x00\n        /* \"https://github.com/OpenZeppelin/openzeppelin-contracts/blob/release-v2.5.0/contracts/crowdsale/Crowdsale.sol\":4147:4173  _getTokenAmount(weiAmount) */\n      tag_33\n        /* \"https://github.com/OpenZeppelin/openzeppelin-contracts/blob/release-v2.5.0/contracts/crowdsale/Crowdsale.sol\":4163:4172  weiAmount */\n      dup3\n        /* \"https://github.com/OpenZeppelin/openzeppelin-contracts/blob/release-v2.5.0/contracts/crowdsale/Crowdsale.sol\":4147:4162  _getTokenAmount */\n      tag_34\n        /* \"https://github.com/OpenZeppelin/openzeppelin-contracts/blob/release-v2.5.0/contracts/crowdsale/Crowdsale.sol\":4147:4173  _getTokenAmount(weiAmount) */\n      jump\t// in\n    tag_33:\n        /* \"https://github.com/OpenZeppelin/openzeppelin-contracts/blob/release-v2.5.0/contracts/crowdsale/Crowdsale.sol\":4130:4173  uint256 tokens = _getTokenAmount(weiAmount) */\n      swap1\n      pop\n        /* \"https://github.com/OpenZeppelin/openzeppelin-contracts/blob/release-v2.5.0/contracts/crowdsale/Crowdsale.sol\":4221:4246  _weiRaised.add(weiAmount) */\n      tag_35\n        /* \"https://github.com/OpenZeppelin/openzeppelin-contracts/blob/release-v2.5.0/contracts/crowdsale/Crowdsale.sol\":4236:4245  weiAmount */\n      dup3\n        /* \"https://github.com/OpenZeppelin/openzeppelin-contracts/blob/release-v2.5.0/contracts/crowdsale/Crowdsale.sol\":4221:4231  _weiRaised */\n      sload(0x03)\n        /* \"https://github.com/OpenZeppelin/openzeppelin-contracts/blob/release-v2.5.0/contracts/crowdsale/Crowdsale.sol\":4221:4235  _weiRaised.add */\n      tag_36\n      swap1\n        /* \"https://github.com/OpenZeppelin/openzeppelin-contracts/blob/release-v2.5.0/contracts/crowdsale/Crowdsale.sol\":4221:4246  _weiRaised.add(weiAmount) */\n      swap2\n      swap1\n      0xffffffff\n      and\n      jump\t// in\n    tag_35:\n        /* \"https://github.com/OpenZeppelin/openzeppelin-contracts/blob/release-v2.5.0/contracts/crowdsale/Crowdsale.sol\":4208:4218  _weiRaised */\n      0x03\n        /* \"https://github.com/OpenZeppelin/openzeppelin-contracts/blob/release-v2.5.0/contracts/crowdsale/Crowdsale.sol\":4208:4246  _weiRaised = _weiRaised.add(weiAmount) */\n      dup2\n      swap1\n      sstore\n      pop\n        /* \"https://github.com/OpenZeppelin/openzeppelin-contracts/blob/release-v2.5.0/contracts/crowdsale/Crowdsale.sol\":4257:4294  _processPurchase(beneficiary, tokens) */\n      tag_37\n        /* \"https://github.com/OpenZeppelin/openzeppelin-contracts/blob/release-v2.5.0/contracts/crowdsale/Crowdsale.sol\":4274:4285  beneficiary */\n      dup4\n        /* \"https://github.com/OpenZeppelin/openzeppelin-contracts/blob/release-v2.5.0/contracts/crowdsale/Crowdsale.sol\":4287:4293  tokens */\n      dup3\n        /* \"https://github.com/OpenZeppelin/openzeppelin-contracts/blob/release-v2.5.0/contracts/crowdsale/Crowdsale.sol\":4257:4273  _processPurchase */\n      tag_38\n        /* \"https://github.com/OpenZeppelin/openzeppelin-contracts/blob/release-v2.5.0/contracts/crowdsale/Crowdsale.sol\":4257:4294  _processPurchase(beneficiary, tokens) */\n      jump\t// in\n    tag_37:\n        /* \"https://github.com/OpenZeppelin/openzeppelin-contracts/blob/release-v2.5.0/contracts/crowdsale/Crowdsale.sol\":4339:4350  beneficiary */\n      dup3\n        /* \"https://github.com/OpenZeppelin/openzeppelin-contracts/blob/release-v2.5.0/contracts/crowdsale/Crowdsale.sol\":4309:4370  TokensPurchased(_msgSender(), beneficiary, weiAmount, tokens) */\n      0xffffffffffffffffffffffffffffffffffffffff\n      and\n        /* \"https://github.com/OpenZeppelin/openzeppelin-contracts/blob/release-v2.5.0/contracts/crowdsale/Crowdsale.sol\":4325:4337  _msgSender() */\n      tag_39\n        /* \"https://github.com/OpenZeppelin/openzeppelin-contracts/blob/release-v2.5.0/contracts/crowdsale/Crowdsale.sol\":4325:4335  _msgSender */\n      tag_11\n        /* \"https://github.com/OpenZeppelin/openzeppelin-contracts/blob/release-v2.5.0/contracts/crowdsale/Crowdsale.sol\":4325:4337  _msgSender() */\n      jump\t// in\n    tag_39:\n        /* \"https://github.com/OpenZeppelin/openzeppelin-contracts/blob/release-v2.5.0/contracts/crowdsale/Crowdsale.sol\":4309:4370  TokensPurchased(_msgSender(), beneficiary, weiAmount, tokens) */\n      0xffffffffffffffffffffffffffffffffffffffff\n      and\n      0x6faf93231a456e552dbc9961f58d9713ee4f2e69d15f1975b050ef0911053a7b\n        /* \"https://github.com/OpenZeppelin/openzeppelin-contracts/blob/release-v2.5.0/contracts/crowdsale/Crowdsale.sol\":4352:4361  weiAmount */\n      dup5\n        /* \"https://github.com/OpenZeppelin/openzeppelin-contracts/blob/release-v2.5.0/contracts/crowdsale/Crowdsale.sol\":4363:4369  tokens */\n      dup5\n        /* \"https://github.com/OpenZeppelin/openzeppelin-contracts/blob/release-v2.5.0/contracts/crowdsale/Crowdsale.sol\":4309:4370  TokensPurchased(_msgSender(), beneficiary, weiAmount, tokens) */\n      mload(0x40)\n      dup1\n      dup4\n      dup2\n      mstore\n      0x20\n      add\n      dup3\n      dup2\n      mstore\n      0x20\n      add\n      swap3\n      pop\n      pop\n      pop\n      mload(0x40)\n      dup1\n      swap2\n      sub\n      swap1\n      log3\n        /* \"https://github.com/OpenZeppelin/openzeppelin-contracts/blob/release-v2.5.0/contracts/crowdsale/Crowdsale.sol\":4381:4427  _updatePurchasingState(beneficiary, weiAmount) */\n      tag_40\n        /* \"https://github.com/OpenZeppelin/openzeppelin-contracts/blob/release-v2.5.0/contracts/crowdsale/Crowdsale.sol\":4404:4415  beneficiary */\n      dup4\n        /* \"https://github.com/OpenZeppelin/openzeppelin-contracts/blob/release-v2.5.0/contracts/crowdsale/Crowdsale.sol\":4417:4426  weiAmount */\n      dup4\n        /* \"https://github.com/OpenZeppelin/openzeppelin-contracts/blob/release-v2.5.0/contracts/crowdsale/Crowdsale.sol\":4381:4403  _updatePurchasingState */\n      tag_41\n        /* \"https://github.com/OpenZeppelin/openzeppelin-contracts/blob/release-v2.5.0/contracts/crowdsale/Crowdsale.sol\":4381:4427  _updatePurchasingState(beneficiary, weiAmount) */\n      jump\t// in\n    tag_40:\n        /* \"https://github.com/OpenZeppelin/openzeppelin-contracts/blob/release-v2.5.0/contracts/crowdsale/Crowdsale.sol\":4438:4453  _forwardFunds() */\n      tag_42\n        /* \"https://github.com/OpenZeppelin/openzeppelin-contracts/blob/release-v2.5.0/contracts/crowdsale/Crowdsale.sol\":4438:4451  _forwardFunds */\n      tag_43\n        /* \"https://github.com/OpenZeppelin/openzeppelin-contracts/blob/release-v2.5.0/contracts/crowdsale/Crowdsale.sol\":4438:4453  _forwardFunds() */\n      jump\t// in\n    tag_42:\n        /* \"https://github.com/OpenZeppelin/openzeppelin-contracts/blob/release-v2.5.0/contracts/crowdsale/Crowdsale.sol\":4463:4508  _postValidatePurchase(beneficiary, weiAmount) */\n      tag_44\n        /* \"https://github.com/OpenZeppelin/openzeppelin-contracts/blob/release-v2.5.0/contracts/crowdsale/Crowdsale.sol\":4485:4496  beneficiary */\n      dup4\n        /* \"https://github.com/OpenZeppelin/openzeppelin-contracts/blob/release-v2.5.0/contracts/crowdsale/Crowdsale.sol\":4498:4507  weiAmount */\n      dup4\n        /* \"https://github.com/OpenZeppelin/openzeppelin-contracts/blob/release-v2.5.0/contracts/crowdsale/Crowdsale.sol\":4463:4484  _postValidatePurchase */\n      tag_45\n        /* \"https://github.com/OpenZeppelin/openzeppelin-contracts/blob/release-v2.5.0/contracts/crowdsale/Crowdsale.sol\":4463:4508  _postValidatePurchase(beneficiary, weiAmount) */\n      jump\t// in\n    tag_44:\n        /* \"https://github.com/OpenZeppelin/openzeppelin-contracts/blob/release-v2.5.0/contracts/utils/ReentrancyGuard.sol\":2086:2087  _ */\n      pop\n      pop\n        /* \"https://github.com/OpenZeppelin/openzeppelin-contracts/blob/release-v2.5.0/contracts/utils/ReentrancyGuard.sol\":2244:2248  true */\n      0x01\n        /* \"https://github.com/OpenZeppelin/openzeppelin-contracts/blob/release-v2.5.0/contracts/utils/ReentrancyGuard.sol\":2230:2241  _notEntered */\n      0x00\n      dup1\n        /* \"https://github.com/OpenZeppelin/openzeppelin-contracts/blob/release-v2.5.0/contracts/utils/ReentrancyGuard.sol\":2230:2248  _notEntered = true */\n      0x0100\n      exp\n      dup2\n      sload\n      dup2\n      0xff\n      mul\n      not\n      and\n      swap1\n      dup4\n      iszero\n      iszero\n      mul\n      or\n      swap1\n      sstore\n      pop\n        /* \"https://github.com/OpenZeppelin/openzeppelin-contracts/blob/release-v2.5.0/contracts/crowdsale/Crowdsale.sol\":3910:4515  function buyTokens(address beneficiary) public nonReentrant payable {... */\n      pop\n      jump\t// out\n        /* \"https://github.com/OpenZeppelin/openzeppelin-contracts/blob/release-v2.5.0/contracts/crowdsale/Crowdsale.sol\":3430:3505  function rate() public view returns (uint256) {... */\n    tag_15:\n        /* \"https://github.com/OpenZeppelin/openzeppelin-contracts/blob/release-v2.5.0/contracts/crowdsale/Crowdsale.sol\":3467:3474  uint256 */\n      0x00\n        /* \"https://github.com/OpenZeppelin/openzeppelin-contracts/blob/release-v2.5.0/contracts/crowdsale/Crowdsale.sol\":3493:3498  _rate */\n      sload(0x02)\n        /* \"https://github.com/OpenZeppelin/openzeppelin-contracts/blob/release-v2.5.0/contracts/crowdsale/Crowdsale.sol\":3486:3498  return _rate */\n      swap1\n      pop\n        /* \"https://github.com/OpenZeppelin/openzeppelin-contracts/blob/release-v2.5.0/contracts/crowdsale/Crowdsale.sol\":3430:3505  function rate() public view returns (uint256) {... */\n      swap1\n      jump\t// out\n        /* \"https://github.com/OpenZeppelin/openzeppelin-contracts/blob/release-v2.5.0/contracts/crowdsale/Crowdsale.sol\":3568:3653  function weiRaised() public view returns (uint256) {... */\n    tag_18:\n        /* \"https://github.com/OpenZeppelin/openzeppelin-contracts/blob/release-v2.5.0/contracts/crowdsale/Crowdsale.sol\":3610:3617  uint256 */\n      0x00\n        /* \"https://github.com/OpenZeppelin/openzeppelin-contracts/blob/release-v2.5.0/contracts/crowdsale/Crowdsale.sol\":3636:3646  _weiRaised */\n      sload(0x03)\n        /* \"https://github.com/OpenZeppelin/openzeppelin-contracts/blob/release-v2.5.0/contracts/crowdsale/Crowdsale.sol\":3629:3646  return _weiRaised */\n      swap1\n      pop\n        /* \"https://github.com/OpenZeppelin/openzeppelin-contracts/blob/release-v2.5.0/contracts/crowdsale/Crowdsale.sol\":3568:3653  function weiRaised() public view returns (uint256) {... */\n      swap1\n      jump\t// out\n        /* \"https://github.com/OpenZeppelin/openzeppelin-contracts/blob/release-v2.5.0/contracts/crowdsale/Crowdsale.sol\":3258:3345  function wallet() public view returns (address payable) {... */\n    tag_21:\n        /* \"https://github.com/OpenZeppelin/openzeppelin-contracts/blob/release-v2.5.0/contracts/crowdsale/Crowdsale.sol\":3297:3312  address payable */\n      0x00\n        /* \"https://github.com/OpenZeppelin/openzeppelin-contracts/blob/release-v2.5.0/contracts/crowdsale/Crowdsale.sol\":3331:3338  _wallet */\n      0x01\n      0x00\n      swap1\n      sload\n      swap1\n      0x0100\n      exp\n      swap1\n      div\n      0xffffffffffffffffffffffffffffffffffffffff\n      and\n        /* \"https://github.com/OpenZeppelin/openzeppelin-contracts/blob/release-v2.5.0/contracts/crowdsale/Crowdsale.sol\":3324:3338  return _wallet */\n      swap1\n      pop\n        /* \"https://github.com/OpenZeppelin/openzeppelin-contracts/blob/release-v2.5.0/contracts/crowdsale/Crowdsale.sol\":3258:3345  function wallet() public view returns (address payable) {... */\n      swap1\n      jump\t// out\n        /* \"https://github.com/OpenZeppelin/openzeppelin-contracts/blob/release-v2.5.0/contracts/crowdsale/Crowdsale.sol\":3106:3182  function token() public view returns (IERC20) {... */\n    tag_26:\n        /* \"https://github.com/OpenZeppelin/openzeppelin-contracts/blob/release-v2.5.0/contracts/crowdsale/Crowdsale.sol\":3144:3150  IERC20 */\n      0x00\n        /* \"https://github.com/OpenZeppelin/openzeppelin-contracts/blob/release-v2.5.0/contracts/crowdsale/Crowdsale.sol\":3169:3175  _token */\n      dup1\n      0x01\n      swap1\n      sload\n      swap1\n      0x0100\n      exp\n      swap1\n      div\n      0xffffffffffffffffffffffffffffffffffffffff\n      and\n        /* \"https://github.com/OpenZeppelin/openzeppelin-contracts/blob/release-v2.5.0/contracts/crowdsale/Crowdsale.sol\":3162:3175  return _token */\n      swap1\n      pop\n        /* \"https://github.com/OpenZeppelin/openzeppelin-contracts/blob/release-v2.5.0/contracts/crowdsale/Crowdsale.sol\":3106:3182  function token() public view returns (IERC20) {... */\n      swap1\n      jump\t// out\n        /* \"https://github.com/OpenZeppelin/openzeppelin-contracts/blob/release-v2.5.0/contracts/crowdsale/Crowdsale.sol\":5057:5433  function _preValidatePurchase(address beneficiary, uint256 weiAmount) internal view {... */\n    tag_32:\n        /* \"https://github.com/OpenZeppelin/openzeppelin-contracts/blob/release-v2.5.0/contracts/crowdsale/Crowdsale.sol\":5182:5183  0 */\n      0x00\n        /* \"https://github.com/OpenZeppelin/openzeppelin-contracts/blob/release-v2.5.0/contracts/crowdsale/Crowdsale.sol\":5159:5184  beneficiary != address(0) */\n      0xffffffffffffffffffffffffffffffffffffffff\n      and\n        /* \"https://github.com/OpenZeppelin/openzeppelin-contracts/blob/release-v2.5.0/contracts/crowdsale/Crowdsale.sol\":5159:5170  beneficiary */\n      dup3\n        /* \"https://github.com/OpenZeppelin/openzeppelin-contracts/blob/release-v2.5.0/contracts/crowdsale/Crowdsale.sol\":5159:5184  beneficiary != address(0) */\n      0xffffffffffffffffffffffffffffffffffffffff\n      and\n      eq\n      iszero\n        /* \"https://github.com/OpenZeppelin/openzeppelin-contracts/blob/release-v2.5.0/contracts/crowdsale/Crowdsale.sol\":5151:5231  require(beneficiary != address(0), \"Crowdsale: beneficiary is the zero address\") */\n      iszero\n      iszero\n      tag_51\n      jumpi\n      mload(0x40)\n      0x08c379a000000000000000000000000000000000000000000000000000000000\n      dup2\n      mstore\n      0x04\n      add\n      dup1\n      dup1\n      0x20\n      add\n      dup3\n      dup2\n      sub\n      dup3\n      mstore\n      0x2a\n      dup2\n      mstore\n      0x20\n      add\n      dup1\n      data_b9d4bce01fb5c20cfa41c5b334ad79fcf3774809b1388b0603f3dcd505be7d6e\n      0x2a\n      swap2\n      codecopy\n      0x40\n      add\n      swap2\n      pop\n      pop\n      mload(0x40)\n      dup1\n      swap2\n      sub\n      swap1\n      revert\n    tag_51:\n        /* \"https://github.com/OpenZeppelin/openzeppelin-contracts/blob/release-v2.5.0/contracts/crowdsale/Crowdsale.sol\":5262:5263  0 */\n      0x00\n        /* \"https://github.com/OpenZeppelin/openzeppelin-contracts/blob/release-v2.5.0/contracts/crowdsale/Crowdsale.sol\":5249:5258  weiAmount */\n      dup2\n        /* \"https://github.com/OpenZeppelin/openzeppelin-contracts/blob/release-v2.5.0/contracts/crowdsale/Crowdsale.sol\":5249:5263  weiAmount != 0 */\n      eq\n      iszero\n        /* \"https://github.com/OpenZeppelin/openzeppelin-contracts/blob/release-v2.5.0/contracts/crowdsale/Crowdsale.sol\":5241:5293  require(weiAmount != 0, \"Crowdsale: weiAmount is 0\") */\n      iszero\n      iszero\n      tag_52\n      jumpi\n      mload(0x40)\n      0x08c379a000000000000000000000000000000000000000000000000000000000\n      dup2\n      mstore\n      0x04\n      add\n      dup1\n      dup1\n      0x20\n      add\n      dup3\n      dup2\n      sub\n      dup3\n      mstore\n      0x19\n      dup2\n      mstore\n      0x20\n      add\n      dup1\n      0x43726f776473616c653a20776569416d6f756e74206973203000000000000000\n      dup2\n      mstore\n      pop\n      0x20\n      add\n      swap2\n      pop\n      pop\n      mload(0x40)\n      dup1\n      swap2\n      sub\n      swap1\n      revert\n    tag_52:\n        /* \"https://github.com/OpenZeppelin/openzeppelin-contracts/blob/release-v2.5.0/contracts/crowdsale/Crowdsale.sol\":5057:5433  function _preValidatePurchase(address beneficiary, uint256 weiAmount) internal view {... */\n      pop\n      pop\n      jump\t// out\n        /* \"https://github.com/OpenZeppelin/openzeppelin-contracts/blob/release-v2.5.0/contracts/crowdsale/Crowdsale.sol\":7358:7478  function _getTokenAmount(uint256 weiAmount) internal view returns (uint256) {... */\n    tag_34:\n        /* \"https://github.com/OpenZeppelin/openzeppelin-contracts/blob/release-v2.5.0/contracts/crowdsale/Crowdsale.sol\":7425:7432  uint256 */\n      0x00\n        /* \"https://github.com/OpenZeppelin/openzeppelin-contracts/blob/release-v2.5.0/contracts/crowdsale/Crowdsale.sol\":7451:7471  weiAmount.mul(_rate) */\n      tag_54\n        /* \"https://github.com/OpenZeppelin/openzeppelin-contracts/blob/release-v2.5.0/contracts/crowdsale/Crowdsale.sol\":7465:7470  _rate */\n      sload(0x02)\n        /* \"https://github.com/OpenZeppelin/openzeppelin-contracts/blob/release-v2.5.0/contracts/crowdsale/Crowdsale.sol\":7451:7460  weiAmount */\n      dup4\n        /* \"https://github.com/OpenZeppelin/openzeppelin-contracts/blob/release-v2.5.0/contracts/crowdsale/Crowdsale.sol\":7451:7464  weiAmount.mul */\n      tag_55\n      swap1\n        /* \"https://github.com/OpenZeppelin/openzeppelin-contracts/blob/release-v2.5.0/contracts/crowdsale/Crowdsale.sol\":7451:7471  weiAmount.mul(_rate) */\n      swap2\n      swap1\n      0xffffffff\n      and\n      jump\t// in\n    tag_54:\n        /* \"https://github.com/OpenZeppelin/openzeppelin-contracts/blob/release-v2.5.0/contracts/crowdsale/Crowdsale.sol\":7444:7471  return weiAmount.mul(_rate) */\n      swap1\n      pop\n        /* \"https://github.com/OpenZeppelin/openzeppelin-contracts/blob/release-v2.5.0/contracts/crowdsale/Crowdsale.sol\":7358:7478  function _getTokenAmount(uint256 weiAmount) internal view returns (uint256) {... */\n      swap2\n      swap1\n      pop\n      jump\t// out\n        /* \"https://github.com/OpenZeppelin/openzeppelin-contracts/blob/release-v2.5.0/contracts/math/SafeMath.sol\":834:1010  function add(uint256 a, uint256 b) internal pure returns (uint256) {... */\n    tag_36:\n        /* \"https://github.com/OpenZeppelin/openzeppelin-contracts/blob/release-v2.5.0/contracts/math/SafeMath.sol\":892:899  uint256 */\n      0x00\n        /* \"https://github.com/OpenZeppelin/openzeppelin-contracts/blob/release-v2.5.0/contracts/math/SafeMath.sol\":911:920  uint256 c */\n      dup1\n        /* \"https://github.com/OpenZeppelin/openzeppelin-contracts/blob/release-v2.5.0/contracts/math/SafeMath.sol\":927:928  b */\n      dup3\n        /* \"https://github.com/OpenZeppelin/openzeppelin-contracts/blob/release-v2.5.0/contracts/math/SafeMath.sol\":923:924  a */\n      dup5\n        /* \"https://github.com/OpenZeppelin/openzeppelin-contracts/blob/release-v2.5.0/contracts/math/SafeMath.sol\":923:928  a + b */\n      add\n        /* \"https://github.com/OpenZeppelin/openzeppelin-contracts/blob/release-v2.5.0/contracts/math/SafeMath.sol\":911:928  uint256 c = a + b */\n      swap1\n      pop\n        /* \"https://github.com/OpenZeppelin/openzeppelin-contracts/blob/release-v2.5.0/contracts/math/SafeMath.sol\":951:952  a */\n      dup4\n        /* \"https://github.com/OpenZeppelin/openzeppelin-contracts/blob/release-v2.5.0/contracts/math/SafeMath.sol\":946:947  c */\n      dup2\n        /* \"https://github.com/OpenZeppelin/openzeppelin-contracts/blob/release-v2.5.0/contracts/math/SafeMath.sol\":946:952  c >= a */\n      lt\n      iszero\n        /* \"https://github.com/OpenZeppelin/openzeppelin-contracts/blob/release-v2.5.0/contracts/math/SafeMath.sol\":938:984  require(c >= a, \"SafeMath: addition overflow\") */\n      iszero\n      iszero\n      tag_57\n      jumpi\n      mload(0x40)\n      0x08c379a000000000000000000000000000000000000000000000000000000000\n      dup2\n      mstore\n      0x04\n      add\n      dup1\n      dup1\n      0x20\n      add\n      dup3\n      dup2\n      sub\n      dup3\n      mstore\n      0x1b\n      dup2\n      mstore\n      0x20\n      add\n      dup1\n      0x536166654d6174683a206164646974696f6e206f766572666c6f770000000000\n      dup2\n      mstore\n      pop\n      0x20\n      add\n      swap2\n      pop\n      pop\n      mload(0x40)\n      dup1\n      swap2\n      sub\n      swap1\n      revert\n    tag_57:\n        /* \"https://github.com/OpenZeppelin/openzeppelin-contracts/blob/release-v2.5.0/contracts/math/SafeMath.sol\":1002:1003  c */\n      dup1\n        /* \"https://github.com/OpenZeppelin/openzeppelin-contracts/blob/release-v2.5.0/contracts/math/SafeMath.sol\":995:1003  return c */\n      swap2\n      pop\n      pop\n        /* \"https://github.com/OpenZeppelin/openzeppelin-contracts/blob/release-v2.5.0/contracts/math/SafeMath.sol\":834:1010  function add(uint256 a, uint256 b) internal pure returns (uint256) {... */\n      swap3\n      swap2\n      pop\n      pop\n      jump\t// out\n        /* \"https://github.com/OpenZeppelin/openzeppelin-contracts/blob/release-v2.5.0/contracts/crowdsale/Crowdsale.sol\":6560:6694  function _processPurchase(address beneficiary, uint256 tokenAmount) internal {... */\n    tag_38:\n        /* \"https://github.com/OpenZeppelin/openzeppelin-contracts/blob/release-v2.5.0/contracts/crowdsale/Crowdsale.sol\":6647:6687  _deliverTokens(beneficiary, tokenAmount) */\n      tag_59\n        /* \"https://github.com/OpenZeppelin/openzeppelin-contracts/blob/release-v2.5.0/contracts/crowdsale/Crowdsale.sol\":6662:6673  beneficiary */\n      dup3\n        /* \"https://github.com/OpenZeppelin/openzeppelin-contracts/blob/release-v2.5.0/contracts/crowdsale/Crowdsale.sol\":6675:6686  tokenAmount */\n      dup3\n        /* \"https://github.com/OpenZeppelin/openzeppelin-contracts/blob/release-v2.5.0/contracts/crowdsale/Crowdsale.sol\":6647:6661  _deliverTokens */\n      tag_60\n        /* \"https://github.com/OpenZeppelin/openzeppelin-contracts/blob/release-v2.5.0/contracts/crowdsale/Crowdsale.sol\":6647:6687  _deliverTokens(beneficiary, tokenAmount) */\n      jump\t// in\n    tag_59:\n        /* \"https://github.com/OpenZeppelin/openzeppelin-contracts/blob/release-v2.5.0/contracts/crowdsale/Crowdsale.sol\":6560:6694  function _processPurchase(address beneficiary, uint256 tokenAmount) internal {... */\n      pop\n      pop\n      jump\t// out\n        /* \"https://github.com/OpenZeppelin/openzeppelin-contracts/blob/release-v2.5.0/contracts/crowdsale/Crowdsale.sol\":6964:7109  function _updatePurchasingState(address beneficiary, uint256 weiAmount) internal {... */\n    tag_41:\n      pop\n      pop\n      jump\t// out\n        /* \"https://github.com/OpenZeppelin/openzeppelin-contracts/blob/release-v2.5.0/contracts/crowdsale/Crowdsale.sol\":7565:7643  function _forwardFunds() internal {... */\n    tag_43:\n        /* \"https://github.com/OpenZeppelin/openzeppelin-contracts/blob/release-v2.5.0/contracts/crowdsale/Crowdsale.sol\":7609:7616  _wallet */\n      0x01\n      0x00\n      swap1\n      sload\n      swap1\n      0x0100\n      exp\n      swap1\n      div\n      0xffffffffffffffffffffffffffffffffffffffff\n      and\n        /* \"https://github.com/OpenZeppelin/openzeppelin-contracts/blob/release-v2.5.0/contracts/crowdsale/Crowdsale.sol\":7609:7625  _wallet.transfer */\n      0xffffffffffffffffffffffffffffffffffffffff\n      and\n        /* \"https://github.com/OpenZeppelin/openzeppelin-contracts/blob/release-v2.5.0/contracts/crowdsale/Crowdsale.sol\":7609:7636  _wallet.transfer(msg.value) */\n      0x08fc\n        /* \"https://github.com/OpenZeppelin/openzeppelin-contracts/blob/release-v2.5.0/contracts/crowdsale/Crowdsale.sol\":7626:7635  msg.value */\n      callvalue\n        /* \"https://github.com/OpenZeppelin/openzeppelin-contracts/blob/release-v2.5.0/contracts/crowdsale/Crowdsale.sol\":7609:7636  _wallet.transfer(msg.value) */\n      swap1\n      dup2\n      iszero\n      mul\n      swap1\n      mload(0x40)\n      0x00\n      mload(0x40)\n      dup1\n      dup4\n      sub\n      dup2\n      dup6\n      dup9\n      dup9\n      call\n      swap4\n      pop\n      pop\n      pop\n      pop\n      iszero\n        /* \"--CODEGEN--\":8:17   */\n      dup1\n        /* \"--CODEGEN--\":5:7   */\n      iszero\n      tag_63\n      jumpi\n        /* \"--CODEGEN--\":45:61   */\n      returndatasize\n        /* \"--CODEGEN--\":42:43   */\n      0x00\n        /* \"--CODEGEN--\":39:40   */\n      dup1\n        /* \"--CODEGEN--\":24:62   */\n      returndatacopy\n        /* \"--CODEGEN--\":77:93   */\n      returndatasize\n        /* \"--CODEGEN--\":74:75   */\n      0x00\n        /* \"--CODEGEN--\":67:94   */\n      revert\n        /* \"--CODEGEN--\":5:7   */\n    tag_63:\n        /* \"https://github.com/OpenZeppelin/openzeppelin-contracts/blob/release-v2.5.0/contracts/crowdsale/Crowdsale.sol\":7609:7636  _wallet.transfer(msg.value) */\n      pop\n        /* \"https://github.com/OpenZeppelin/openzeppelin-contracts/blob/release-v2.5.0/contracts/crowdsale/Crowdsale.sol\":7565:7643  function _forwardFunds() internal {... */\n      jump\t// out\n        /* \"https://github.com/OpenZeppelin/openzeppelin-contracts/blob/release-v2.5.0/contracts/crowdsale/Crowdsale.sol\":5728:5877  function _postValidatePurchase(address beneficiary, uint256 weiAmount) internal view {... */\n    tag_45:\n      pop\n      pop\n      jump\t// out\n        /* \"https://github.com/OpenZeppelin/openzeppelin-contracts/blob/release-v2.5.0/contracts/math/SafeMath.sol\":2159:2618  function mul(uint256 a, uint256 b) internal pure returns (uint256) {... */\n    tag_55:\n        /* \"https://github.com/OpenZeppelin/openzeppelin-contracts/blob/release-v2.5.0/contracts/math/SafeMath.sol\":2217:2224  uint256 */\n      0x00\n        /* \"https://github.com/OpenZeppelin/openzeppelin-contracts/blob/release-v2.5.0/contracts/math/SafeMath.sol\":2463:2464  0 */\n      dup1\n        /* \"https://github.com/OpenZeppelin/openzeppelin-contracts/blob/release-v2.5.0/contracts/math/SafeMath.sol\":2458:2459  a */\n      dup4\n        /* \"https://github.com/OpenZeppelin/openzeppelin-contracts/blob/release-v2.5.0/contracts/math/SafeMath.sol\":2458:2464  a == 0 */\n      eq\n        /* \"https://github.com/OpenZeppelin/openzeppelin-contracts/blob/release-v2.5.0/contracts/math/SafeMath.sol\":2454:2499  if (a == 0) {... */\n      iszero\n      tag_66\n      jumpi\n        /* \"https://github.com/OpenZeppelin/openzeppelin-contracts/blob/release-v2.5.0/contracts/math/SafeMath.sol\":2487:2488  0 */\n      0x00\n        /* \"https://github.com/OpenZeppelin/openzeppelin-contracts/blob/release-v2.5.0/contracts/math/SafeMath.sol\":2480:2488  return 0 */\n      swap1\n      pop\n      jump(tag_65)\n        /* \"https://github.com/OpenZeppelin/openzeppelin-contracts/blob/release-v2.5.0/contracts/math/SafeMath.sol\":2454:2499  if (a == 0) {... */\n    tag_66:\n        /* \"https://github.com/OpenZeppelin/openzeppelin-contracts/blob/release-v2.5.0/contracts/math/SafeMath.sol\":2509:2518  uint256 c */\n      0x00\n        /* \"https://github.com/OpenZeppelin/openzeppelin-contracts/blob/release-v2.5.0/contracts/math/SafeMath.sol\":2525:2526  b */\n      dup3\n        /* \"https://github.com/OpenZeppelin/openzeppelin-contracts/blob/release-v2.5.0/contracts/math/SafeMath.sol\":2521:2522  a */\n      dup5\n        /* \"https://github.com/OpenZeppelin/openzeppelin-contracts/blob/release-v2.5.0/contracts/math/SafeMath.sol\":2521:2526  a * b */\n      mul\n        /* \"https://github.com/OpenZeppelin/openzeppelin-contracts/blob/release-v2.5.0/contracts/math/SafeMath.sol\":2509:2526  uint256 c = a * b */\n      swap1\n      pop\n        /* \"https://github.com/OpenZeppelin/openzeppelin-contracts/blob/release-v2.5.0/contracts/math/SafeMath.sol\":2553:2554  b */\n      dup3\n        /* \"https://github.com/OpenZeppelin/openzeppelin-contracts/blob/release-v2.5.0/contracts/math/SafeMath.sol\":2548:2549  a */\n      dup5\n        /* \"https://github.com/OpenZeppelin/openzeppelin-contracts/blob/release-v2.5.0/contracts/math/SafeMath.sol\":2544:2545  c */\n      dup3\n        /* \"https://github.com/OpenZeppelin/openzeppelin-contracts/blob/release-v2.5.0/contracts/math/SafeMath.sol\":2544:2549  c / a */\n      dup2\n      iszero\n      iszero\n      tag_67\n      jumpi\n      invalid\n    tag_67:\n      div\n        /* \"https://github.com/OpenZeppelin/openzeppelin-contracts/blob/release-v2.5.0/contracts/math/SafeMath.sol\":2544:2554  c / a == b */\n      eq\n        /* \"https://github.com/OpenZeppelin/openzeppelin-contracts/blob/release-v2.5.0/contracts/math/SafeMath.sol\":2536:2592  require(c / a == b, \"SafeMath: multiplication overflow\") */\n      iszero\n      iszero\n      tag_68\n      jumpi\n      mload(0x40)\n      0x08c379a000000000000000000000000000000000000000000000000000000000\n      dup2\n      mstore\n      0x04\n      add\n      dup1\n      dup1\n      0x20\n      add\n      dup3\n      dup2\n      sub\n      dup3\n      mstore\n      0x21\n      dup2\n      mstore\n      0x20\n      add\n      dup1\n      data_9113bb53c2876a3805b2c9242029423fc540a728243ce887ab24c82cf119fba3\n      0x21\n      swap2\n      codecopy\n      0x40\n      add\n      swap2\n      pop\n      pop\n      mload(0x40)\n      dup1\n      swap2\n      sub\n      swap1\n      revert\n    tag_68:\n        /* \"https://github.com/OpenZeppelin/openzeppelin-contracts/blob/release-v2.5.0/contracts/math/SafeMath.sol\":2610:2611  c */\n      dup1\n        /* \"https://github.com/OpenZeppelin/openzeppelin-contracts/blob/release-v2.5.0/contracts/math/SafeMath.sol\":2603:2611  return c */\n      swap2\n      pop\n      pop\n        /* \"https://github.com/OpenZeppelin/openzeppelin-contracts/blob/release-v2.5.0/contracts/math/SafeMath.sol\":2159:2618  function mul(uint256 a, uint256 b) internal pure returns (uint256) {... */\n    tag_65:\n      swap3\n      swap2\n      pop\n      pop\n      jump\t// out\n        /* \"https://github.com/OpenZeppelin/openzeppelin-contracts/blob/release-v2.5.0/contracts/crowdsale/Crowdsale.sol\":6157:6294  function _deliverTokens(address beneficiary, uint256 tokenAmount) internal {... */\n    tag_60:\n        /* \"https://github.com/OpenZeppelin/openzeppelin-contracts/blob/release-v2.5.0/contracts/crowdsale/Crowdsale.sol\":6242:6287  _token.safeTransfer(beneficiary, tokenAmount) */\n      tag_70\n        /* \"https://github.com/OpenZeppelin/openzeppelin-contracts/blob/release-v2.5.0/contracts/crowdsale/Crowdsale.sol\":6262:6273  beneficiary */\n      dup3\n        /* \"https://github.com/OpenZeppelin/openzeppelin-contracts/blob/release-v2.5.0/contracts/crowdsale/Crowdsale.sol\":6275:6286  tokenAmount */\n      dup3\n        /* \"https://github.com/OpenZeppelin/openzeppelin-contracts/blob/release-v2.5.0/contracts/crowdsale/Crowdsale.sol\":6242:6248  _token */\n      0x00\n      0x01\n      swap1\n      sload\n      swap1\n      0x0100\n      exp\n      swap1\n      div\n      0xffffffffffffffffffffffffffffffffffffffff\n      and\n        /* \"https://github.com/OpenZeppelin/openzeppelin-contracts/blob/release-v2.5.0/contracts/crowdsale/Crowdsale.sol\":6242:6261  _token.safeTransfer */\n      0xffffffffffffffffffffffffffffffffffffffff\n      and\n      tag_71\n      swap1\n        /* \"https://github.com/OpenZeppelin/openzeppelin-contracts/blob/release-v2.5.0/contracts/crowdsale/Crowdsale.sol\":6242:6287  _token.safeTransfer(beneficiary, tokenAmount) */\n      swap3\n      swap2\n      swap1\n      0xffffffff\n      and\n      jump\t// in\n    tag_70:\n        /* \"https://github.com/OpenZeppelin/openzeppelin-contracts/blob/release-v2.5.0/contracts/crowdsale/Crowdsale.sol\":6157:6294  function _deliverTokens(address beneficiary, uint256 tokenAmount) internal {... */\n      pop\n      pop\n      jump\t// out\n        /* \"https://github.com/OpenZeppelin/openzeppelin-contracts/blob/release-v2.5.0/contracts/token/ERC20/SafeERC20.sol\":662:836  function safeTransfer(IERC20 token, address to, uint256 value) internal {... */\n    tag_71:\n        /* \"https://github.com/OpenZeppelin/openzeppelin-contracts/blob/release-v2.5.0/contracts/token/ERC20/SafeERC20.sol\":744:829  callOptionalReturn(token, abi.encodeWithSelector(token.transfer.selector, to, value)) */\n      tag_73\n        /* \"https://github.com/OpenZeppelin/openzeppelin-contracts/blob/release-v2.5.0/contracts/token/ERC20/SafeERC20.sol\":763:768  token */\n      dup4\n        /* \"https://github.com/OpenZeppelin/openzeppelin-contracts/blob/release-v2.5.0/contracts/token/ERC20/SafeERC20.sol\":793:798  token */\n      dup5\n        /* \"https://github.com/OpenZeppelin/openzeppelin-contracts/blob/release-v2.5.0/contracts/token/ERC20/SafeERC20.sol\":793:807  token.transfer */\n      0xffffffffffffffffffffffffffffffffffffffff\n      and\n      0xa9059cbb\n        /* \"https://github.com/OpenZeppelin/openzeppelin-contracts/blob/release-v2.5.0/contracts/token/ERC20/SafeERC20.sol\":793:816  token.transfer.selector */\n      swap1\n      pop\n      0xe0\n      shl\n        /* \"https://github.com/OpenZeppelin/openzeppelin-contracts/blob/release-v2.5.0/contracts/token/ERC20/SafeERC20.sol\":818:820  to */\n      dup5\n        /* \"https://github.com/OpenZeppelin/openzeppelin-contracts/blob/release-v2.5.0/contracts/token/ERC20/SafeERC20.sol\":822:827  value */\n      dup5\n        /* \"https://github.com/OpenZeppelin/openzeppelin-contracts/blob/release-v2.5.0/contracts/token/ERC20/SafeERC20.sol\":770:828  abi.encodeWithSelector(token.transfer.selector, to, value) */\n      add(0x24, mload(0x40))\n      dup1\n      dup4\n      0xffffffffffffffffffffffffffffffffffffffff\n      and\n      0xffffffffffffffffffffffffffffffffffffffff\n      and\n      dup2\n      mstore\n      0x20\n      add\n      dup3\n      dup2\n      mstore\n      0x20\n      add\n      swap3\n      pop\n      pop\n      pop\n      mload(0x40)\n        /* \"--CODEGEN--\":49:53   */\n      0x20\n        /* \"--CODEGEN--\":39:46   */\n      dup2\n        /* \"--CODEGEN--\":30:37   */\n      dup4\n        /* \"--CODEGEN--\":26:47   */\n      sub\n        /* \"--CODEGEN--\":22:54   */\n      sub\n        /* \"--CODEGEN--\":13:20   */\n      dup2\n        /* \"--CODEGEN--\":6:55   */\n      mstore\n        /* \"https://github.com/OpenZeppelin/openzeppelin-contracts/blob/release-v2.5.0/contracts/token/ERC20/SafeERC20.sol\":770:828  abi.encodeWithSelector(token.transfer.selector, to, value) */\n      swap1\n      0x40\n      mstore\n      swap1\n      not(0xffffffffffffffffffffffffffffffffffffffffffffffffffffffff)\n      and\n        /* \"--CODEGEN--\":38:42   */\n      0x20\n        /* \"--CODEGEN--\":29:36   */\n      dup3\n        /* \"--CODEGEN--\":25:43   */\n      add\n        /* \"--CODEGEN--\":67:77   */\n      dup1\n        /* \"--CODEGEN--\":61:78   */\n      mload\n        /* \"--CODEGEN--\":96:154   */\n      0xffffffffffffffffffffffffffffffffffffffffffffffffffffffff\n        /* \"--CODEGEN--\":199:207   */\n      dup4\n        /* \"--CODEGEN--\":192:196   */\n      dup2\n        /* \"--CODEGEN--\":186:190   */\n      dup4\n        /* \"--CODEGEN--\":182:197   */\n      and\n        /* \"--CODEGEN--\":179:208   */\n      or\n        /* \"--CODEGEN--\":167:177   */\n      dup4\n        /* \"--CODEGEN--\":160:209   */\n      mstore\n        /* \"--CODEGEN--\":0:215   */\n      pop\n      pop\n      pop\n        /* \"https://github.com/OpenZeppelin/openzeppelin-contracts/blob/release-v2.5.0/contracts/token/ERC20/SafeERC20.sol\":770:828  abi.encodeWithSelector(token.transfer.selector, to, value) */\n      pop\n        /* \"https://github.com/OpenZeppelin/openzeppelin-contracts/blob/release-v2.5.0/contracts/token/ERC20/SafeERC20.sol\":744:762  callOptionalReturn */\n      tag_74\n        /* \"https://github.com/OpenZeppelin/openzeppelin-contracts/blob/release-v2.5.0/contracts/token/ERC20/SafeERC20.sol\":744:829  callOptionalReturn(token, abi.encodeWithSelector(token.transfer.selector, to, value)) */\n      jump\t// in\n    tag_73:\n        /* \"https://github.com/OpenZeppelin/openzeppelin-contracts/blob/release-v2.5.0/contracts/token/ERC20/SafeERC20.sol\":662:836  function safeTransfer(IERC20 token, address to, uint256 value) internal {... */\n      pop\n      pop\n      pop\n      jump\t// out\n        /* \"https://github.com/OpenZeppelin/openzeppelin-contracts/blob/release-v2.5.0/contracts/token/ERC20/SafeERC20.sol\":2666:3761  function callOptionalReturn(IERC20 token, bytes memory data) private {... */\n    tag_74:\n        /* \"https://github.com/OpenZeppelin/openzeppelin-contracts/blob/release-v2.5.0/contracts/token/ERC20/SafeERC20.sol\":3261:3288  address(token).isContract() */\n      tag_76\n        /* \"https://github.com/OpenZeppelin/openzeppelin-contracts/blob/release-v2.5.0/contracts/token/ERC20/SafeERC20.sol\":3269:3274  token */\n      dup3\n        /* \"https://github.com/OpenZeppelin/openzeppelin-contracts/blob/release-v2.5.0/contracts/token/ERC20/SafeERC20.sol\":3261:3286  address(token).isContract */\n      0xffffffffffffffffffffffffffffffffffffffff\n      and\n      tag_77\n        /* \"https://github.com/OpenZeppelin/openzeppelin-contracts/blob/release-v2.5.0/contracts/token/ERC20/SafeERC20.sol\":3261:3288  address(token).isContract() */\n      jump\t// in\n    tag_76:\n        /* \"https://github.com/OpenZeppelin/openzeppelin-contracts/blob/release-v2.5.0/contracts/token/ERC20/SafeERC20.sol\":3253:3324  require(address(token).isContract(), \"SafeERC20: call to non-contract\") */\n      iszero\n      iszero\n      tag_78\n      jumpi\n      mload(0x40)\n      0x08c379a000000000000000000000000000000000000000000000000000000000\n      dup2\n      mstore\n      0x04\n      add\n      dup1\n      dup1\n      0x20\n      add\n      dup3\n      dup2\n      sub\n      dup3\n      mstore\n      0x1f\n      dup2\n      mstore\n      0x20\n      add\n      dup1\n      0x5361666545524332303a2063616c6c20746f206e6f6e2d636f6e747261637400\n      dup2\n      mstore\n      pop\n      0x20\n      add\n      swap2\n      pop\n      pop\n      mload(0x40)\n      dup1\n      swap2\n      sub\n      swap1\n      revert\n    tag_78:\n        /* \"https://github.com/OpenZeppelin/openzeppelin-contracts/blob/release-v2.5.0/contracts/token/ERC20/SafeERC20.sol\":3395:3407  bool success */\n      0x00\n        /* \"https://github.com/OpenZeppelin/openzeppelin-contracts/blob/release-v2.5.0/contracts/token/ERC20/SafeERC20.sol\":3409:3432  bytes memory returndata */\n      0x60\n        /* \"https://github.com/OpenZeppelin/openzeppelin-contracts/blob/release-v2.5.0/contracts/token/ERC20/SafeERC20.sol\":3444:3449  token */\n      dup4\n        /* \"https://github.com/OpenZeppelin/openzeppelin-contracts/blob/release-v2.5.0/contracts/token/ERC20/SafeERC20.sol\":3436:3455  address(token).call */\n      0xffffffffffffffffffffffffffffffffffffffff\n      and\n        /* \"https://github.com/OpenZeppelin/openzeppelin-contracts/blob/release-v2.5.0/contracts/token/ERC20/SafeERC20.sol\":3456:3460  data */\n      dup4\n        /* \"https://github.com/OpenZeppelin/openzeppelin-contracts/blob/release-v2.5.0/contracts/token/ERC20/SafeERC20.sol\":3436:3461  address(token).call(data) */\n      mload(0x40)\n      dup1\n      dup3\n      dup1\n      mload\n      swap1\n      0x20\n      add\n      swap1\n      dup1\n      dup4\n      dup4\n        /* \"--CODEGEN--\":36:189   */\n    tag_79:\n        /* \"--CODEGEN--\":66:68   */\n      0x20\n        /* \"--CODEGEN--\":61:64   */\n      dup4\n        /* \"--CODEGEN--\":58:69   */\n      lt\n        /* \"--CODEGEN--\":51:70   */\n      iszero\n        /* \"--CODEGEN--\":36:189   */\n      iszero\n      tag_80\n      jumpi\n        /* \"--CODEGEN--\":182:185   */\n      dup1\n        /* \"--CODEGEN--\":176:186   */\n      mload\n        /* \"--CODEGEN--\":171:174   */\n      dup3\n        /* \"--CODEGEN--\":164:187   */\n      mstore\n        /* \"--CODEGEN--\":98:100   */\n      0x20\n        /* \"--CODEGEN--\":93:96   */\n      dup3\n        /* \"--CODEGEN--\":89:101   */\n      add\n        /* \"--CODEGEN--\":82:101   */\n      swap2\n      pop\n        /* \"--CODEGEN--\":123:125   */\n      0x20\n        /* \"--CODEGEN--\":118:121   */\n      dup2\n        /* \"--CODEGEN--\":114:126   */\n      add\n        /* \"--CODEGEN--\":107:126   */\n      swap1\n      pop\n        /* \"--CODEGEN--\":148:150   */\n      0x20\n        /* \"--CODEGEN--\":143:146   */\n      dup4\n        /* \"--CODEGEN--\":139:151   */\n      sub\n        /* \"--CODEGEN--\":132:151   */\n      swap3\n      pop\n        /* \"--CODEGEN--\":36:189   */\n      jump(tag_79)\n    tag_80:\n        /* \"--CODEGEN--\":274:275   */\n      0x01\n        /* \"--CODEGEN--\":267:270   */\n      dup4\n        /* \"--CODEGEN--\":263:265   */\n      0x20\n        /* \"--CODEGEN--\":259:271   */\n      sub\n        /* \"--CODEGEN--\":254:257   */\n      0x0100\n        /* \"--CODEGEN--\":250:272   */\n      exp\n        /* \"--CODEGEN--\":246:276   */\n      sub\n        /* \"--CODEGEN--\":315:319   */\n      dup1\n        /* \"--CODEGEN--\":311:320   */\n      not\n        /* \"--CODEGEN--\":305:308   */\n      dup3\n        /* \"--CODEGEN--\":299:309   */\n      mload\n        /* \"--CODEGEN--\":295:321   */\n      and\n        /* \"--CODEGEN--\":356:360   */\n      dup2\n        /* \"--CODEGEN--\":350:353   */\n      dup5\n        /* \"--CODEGEN--\":344:354   */\n      mload\n        /* \"--CODEGEN--\":340:361   */\n      and\n        /* \"--CODEGEN--\":389:396   */\n      dup1\n        /* \"--CODEGEN--\":380:387   */\n      dup3\n        /* \"--CODEGEN--\":377:397   */\n      or\n        /* \"--CODEGEN--\":372:375   */\n      dup6\n        /* \"--CODEGEN--\":365:398   */\n      mstore\n        /* \"--CODEGEN--\":3:402   */\n      pop\n      pop\n      pop\n        /* \"https://github.com/OpenZeppelin/openzeppelin-contracts/blob/release-v2.5.0/contracts/token/ERC20/SafeERC20.sol\":3436:3461  address(token).call(data) */\n      pop\n      pop\n      pop\n      swap1\n      pop\n      add\n      swap2\n      pop\n      pop\n      0x00\n      mload(0x40)\n      dup1\n      dup4\n      sub\n      dup2\n      0x00\n      dup7\n      gas\n      call\n      swap2\n      pop\n      pop\n      returndatasize\n        /* \"--CODEGEN--\":14:15   */\n      dup1\n        /* \"--CODEGEN--\":21:22   */\n      0x00\n        /* \"--CODEGEN--\":16:47   */\n      dup2\n      eq\n      tag_83\n      jumpi\n        /* \"--CODEGEN--\":75:79   */\n      0x40\n        /* \"--CODEGEN--\":69:80   */\n      mload\n        /* \"--CODEGEN--\":64:80   */\n      swap2\n      pop\n        /* \"--CODEGEN--\":144:148   */\n      0x1f\n        /* \"--CODEGEN--\":140:149   */\n      not\n        /* \"--CODEGEN--\":133:137   */\n      0x3f\n        /* \"--CODEGEN--\":115:131   */\n      returndatasize\n        /* \"--CODEGEN--\":111:138   */\n      add\n        /* \"--CODEGEN--\":107:150   */\n      and\n        /* \"--CODEGEN--\":104:105   */\n      dup3\n        /* \"--CODEGEN--\":100:151   */\n      add\n        /* \"--CODEGEN--\":94:98   */\n      0x40\n        /* \"--CODEGEN--\":87:152   */\n      mstore\n        /* \"--CODEGEN--\":169:185   */\n      returndatasize\n        /* \"--CODEGEN--\":166:167   */\n      dup3\n        /* \"--CODEGEN--\":159:186   */\n      mstore\n        /* \"--CODEGEN--\":225:241   */\n      returndatasize\n        /* \"--CODEGEN--\":222:223   */\n      0x00\n        /* \"--CODEGEN--\":215:219   */\n      0x20\n        /* \"--CODEGEN--\":212:213   */\n      dup5\n        /* \"--CODEGEN--\":208:220   */\n      add\n        /* \"--CODEGEN--\":193:242   */\n      returndatacopy\n        /* \"--CODEGEN--\":7:249   */\n      jump(tag_82)\n        /* \"--CODEGEN--\":16:47   */\n    tag_83:\n        /* \"--CODEGEN--\":36:40   */\n      0x60\n        /* \"--CODEGEN--\":31:40   */\n      swap2\n      pop\n        /* \"--CODEGEN--\":7:249   */\n    tag_82:\n      pop\n        /* \"https://github.com/OpenZeppelin/openzeppelin-contracts/blob/release-v2.5.0/contracts/token/ERC20/SafeERC20.sol\":3394:3461  (bool success, bytes memory returndata) = address(token).call(data) */\n      swap2\n      pop\n      swap2\n      pop\n        /* \"https://github.com/OpenZeppelin/openzeppelin-contracts/blob/release-v2.5.0/contracts/token/ERC20/SafeERC20.sol\":3479:3486  success */\n      dup2\n        /* \"https://github.com/OpenZeppelin/openzeppelin-contracts/blob/release-v2.5.0/contracts/token/ERC20/SafeERC20.sol\":3471:3523  require(success, \"SafeERC20: low-level call failed\") */\n      iszero\n      iszero\n      tag_84\n      jumpi\n      mload(0x40)\n      0x08c379a000000000000000000000000000000000000000000000000000000000\n      dup2\n      mstore\n      0x04\n      add\n      dup1\n      dup1\n      0x20\n      add\n      dup3\n      dup2\n      sub\n      dup3\n      mstore\n      0x20\n      dup2\n      mstore\n      0x20\n      add\n      dup1\n      0x5361666545524332303a206c6f772d6c6576656c2063616c6c206661696c6564\n      dup2\n      mstore\n      pop\n      0x20\n      add\n      swap2\n      pop\n      pop\n      mload(0x40)\n      dup1\n      swap2\n      sub\n      swap1\n      revert\n    tag_84:\n        /* \"https://github.com/OpenZeppelin/openzeppelin-contracts/blob/release-v2.5.0/contracts/token/ERC20/SafeERC20.sol\":3558:3559  0 */\n      0x00\n        /* \"https://github.com/OpenZeppelin/openzeppelin-contracts/blob/release-v2.5.0/contracts/token/ERC20/SafeERC20.sol\":3538:3548  returndata */\n      dup2\n        /* \"https://github.com/OpenZeppelin/openzeppelin-contracts/blob/release-v2.5.0/contracts/token/ERC20/SafeERC20.sol\":3538:3555  returndata.length */\n      mload\n        /* \"https://github.com/OpenZeppelin/openzeppelin-contracts/blob/release-v2.5.0/contracts/token/ERC20/SafeERC20.sol\":3538:3559  returndata.length > 0 */\n      gt\n        /* \"https://github.com/OpenZeppelin/openzeppelin-contracts/blob/release-v2.5.0/contracts/token/ERC20/SafeERC20.sol\":3534:3755  if (returndata.length > 0) { // Return data is optional... */\n      iszero\n      tag_85\n      jumpi\n        /* \"https://github.com/OpenZeppelin/openzeppelin-contracts/blob/release-v2.5.0/contracts/token/ERC20/SafeERC20.sol\":3678:3688  returndata */\n      dup1\n        /* \"https://github.com/OpenZeppelin/openzeppelin-contracts/blob/release-v2.5.0/contracts/token/ERC20/SafeERC20.sol\":3667:3697  abi.decode(returndata, (bool)) */\n      dup1\n      0x20\n      add\n      swap1\n      mload\n        /* \"--CODEGEN--\":13:15   */\n      0x20\n        /* \"--CODEGEN--\":8:11   */\n      dup2\n        /* \"--CODEGEN--\":5:16   */\n      lt\n        /* \"--CODEGEN--\":2:4   */\n      iszero\n      tag_86\n      jumpi\n        /* \"--CODEGEN--\":29:30   */\n      0x00\n        /* \"--CODEGEN--\":26:27   */\n      dup1\n        /* \"--CODEGEN--\":19:31   */\n      revert\n        /* \"--CODEGEN--\":2:4   */\n    tag_86:\n        /* \"https://github.com/OpenZeppelin/openzeppelin-contracts/blob/release-v2.5.0/contracts/token/ERC20/SafeERC20.sol\":3667:3697  abi.decode(returndata, (bool)) */\n      dup2\n      add\n      swap1\n      dup1\n      dup1\n      mload\n      swap1\n      0x20\n      add\n      swap1\n      swap3\n      swap2\n      swap1\n      pop\n      pop\n      pop\n        /* \"https://github.com/OpenZeppelin/openzeppelin-contracts/blob/release-v2.5.0/contracts/token/ERC20/SafeERC20.sol\":3659:3744  require(abi.decode(returndata, (bool)), \"SafeERC20: ERC20 operation did not succeed\") */\n      iszero\n      iszero\n      tag_87\n      jumpi\n      mload(0x40)\n      0x08c379a000000000000000000000000000000000000000000000000000000000\n      dup2\n      mstore\n      0x04\n      add\n      dup1\n      dup1\n      0x20\n      add\n      dup3\n      dup2\n      sub\n      dup3\n      mstore\n      0x2a\n      dup2\n      mstore\n      0x20\n      add\n      dup1\n      data_e11ad79d1e4a7f2e5f376964cb99e8e8f7904e3fc16a109f7a7ecb9aa7956dcd\n      0x2a\n      swap2\n      codecopy\n      0x40\n      add\n      swap2\n      pop\n      pop\n      mload(0x40)\n      dup1\n      swap2\n      sub\n      swap1\n      revert\n    tag_87:\n        /* \"https://github.com/OpenZeppelin/openzeppelin-contracts/blob/release-v2.5.0/contracts/token/ERC20/SafeERC20.sol\":3534:3755  if (returndata.length > 0) { // Return data is optional... */\n    tag_85:\n        /* \"https://github.com/OpenZeppelin/openzeppelin-contracts/blob/release-v2.5.0/contracts/token/ERC20/SafeERC20.sol\":2666:3761  function callOptionalReturn(IERC20 token, bytes memory data) private {... */\n      pop\n      pop\n      pop\n      pop\n      jump\t// out\n        /* \"https://github.com/OpenZeppelin/openzeppelin-contracts/blob/release-v2.5.0/contracts/utils/Address.sol\":686:1296  function isContract(address account) internal view returns (bool) {... */\n    tag_77:\n        /* \"https://github.com/OpenZeppelin/openzeppelin-contracts/blob/release-v2.5.0/contracts/utils/Address.sol\":746:750  bool */\n      0x00\n        /* \"https://github.com/OpenZeppelin/openzeppelin-contracts/blob/release-v2.5.0/contracts/utils/Address.sol\":1004:1020  bytes32 codehash */\n      dup1\n        /* \"https://github.com/OpenZeppelin/openzeppelin-contracts/blob/release-v2.5.0/contracts/utils/Address.sol\":1030:1049  bytes32 accountHash */\n      0x00\n        /* \"https://github.com/OpenZeppelin/openzeppelin-contracts/blob/release-v2.5.0/contracts/utils/Address.sol\":1052:1118  0xc5d2460186f7233c927e7db2dcc703c0e500b653ca82273b7bfad8045d85a470 */\n      0xc5d2460186f7233c927e7db2dcc703c0e500b653ca82273b7bfad8045d85a470\n        /* \"https://github.com/OpenZeppelin/openzeppelin-contracts/blob/release-v2.5.0/contracts/utils/Address.sol\":1030:1118  bytes32 accountHash = 0xc5d2460186f7233c927e7db2dcc703c0e500b653ca82273b7bfad8045d85a470 */\n      0x00\n      shl\n      swap1\n      pop\n        /* \"https://github.com/OpenZeppelin/openzeppelin-contracts/blob/release-v2.5.0/contracts/utils/Address.sol\":1219:1226  account */\n      dup4\n        /* \"https://github.com/OpenZeppelin/openzeppelin-contracts/blob/release-v2.5.0/contracts/utils/Address.sol\":1207:1227  extcodehash(account) */\n      extcodehash\n        /* \"https://github.com/OpenZeppelin/openzeppelin-contracts/blob/release-v2.5.0/contracts/utils/Address.sol\":1195:1227  codehash := extcodehash(account) */\n      swap2\n      pop\n        /* \"https://github.com/OpenZeppelin/openzeppelin-contracts/blob/release-v2.5.0/contracts/utils/Address.sol\":1258:1269  accountHash */\n      dup1\n        /* \"https://github.com/OpenZeppelin/openzeppelin-contracts/blob/release-v2.5.0/contracts/utils/Address.sol\":1246:1254  codehash */\n      dup3\n        /* \"https://github.com/OpenZeppelin/openzeppelin-contracts/blob/release-v2.5.0/contracts/utils/Address.sol\":1246:1269  codehash != accountHash */\n      eq\n      iszero\n        /* \"https://github.com/OpenZeppelin/openzeppelin-contracts/blob/release-v2.5.0/contracts/utils/Address.sol\":1246:1288  codehash != accountHash && codehash != 0x0 */\n      dup1\n      iszero\n      tag_89\n      jumpi\n      pop\n        /* \"https://github.com/OpenZeppelin/openzeppelin-contracts/blob/release-v2.5.0/contracts/utils/Address.sol\":1285:1288  0x0 */\n      0x00\n        /* \"https://github.com/OpenZeppelin/openzeppelin-contracts/blob/release-v2.5.0/contracts/utils/Address.sol\":1273:1288  codehash != 0x0 */\n      dup1\n      shl\n        /* \"https://github.com/OpenZeppelin/openzeppelin-contracts/blob/release-v2.5.0/contracts/utils/Address.sol\":1273:1281  codehash */\n      dup3\n        /* \"https://github.com/OpenZeppelin/openzeppelin-contracts/blob/release-v2.5.0/contracts/utils/Address.sol\":1273:1288  codehash != 0x0 */\n      eq\n      iszero\n        /* \"https://github.com/OpenZeppelin/openzeppelin-contracts/blob/release-v2.5.0/contracts/utils/Address.sol\":1246:1288  codehash != accountHash && codehash != 0x0 */\n    tag_89:\n        /* \"https://github.com/OpenZeppelin/openzeppelin-contracts/blob/release-v2.5.0/contracts/utils/Address.sol\":1238:1289  return (codehash != accountHash && codehash != 0x0) */\n      swap3\n      pop\n      pop\n      pop\n        /* \"https://github.com/OpenZeppelin/openzeppelin-contracts/blob/release-v2.5.0/contracts/utils/Address.sol\":686:1296  function isContract(address account) internal view returns (bool) {... */\n      swap2\n      swap1\n      pop\n      jump\t// out\n    stop\n    data_9113bb53c2876a3805b2c9242029423fc540a728243ce887ab24c82cf119fba3 536166654d6174683a206d756c7469706c69636174696f6e206f766572666c6f77\n    data_b9d4bce01fb5c20cfa41c5b334ad79fcf3774809b1388b0603f3dcd505be7d6e 43726f776473616c653a2062656e656669636961727920697320746865207a65726f2061646472657373\n    data_e11ad79d1e4a7f2e5f376964cb99e8e8f7904e3fc16a109f7a7ecb9aa7956dcd 5361666545524332303a204552433230206f7065726174696f6e20646964206e6f742073756363656564\n\n    auxdata: 0xa165627a7a72305820f064b4c4233a27a252cf596769cbefb3296f8da68282ee44892b4a480e795ce00029\n}\n",
				"bytecode": {
					"linkReferences": {},
					"object": "608060405234801561001057600080fd5b50604051606080610d948339810180604052606081101561003057600080fd5b8101908080519060200190929190805190602001909291908051906020019092919050505060016000806101000a81548160ff0219169083151502179055506000831115156100e7576040517f08c379a00000000000000000000000000000000000000000000000000000000081526004018080602001828103825260148152602001807f43726f776473616c653a2072617465206973203000000000000000000000000081525060200191505060405180910390fd5b600073ffffffffffffffffffffffffffffffffffffffff168273ffffffffffffffffffffffffffffffffffffffff161415151561016f576040517f08c379a0000000000000000000000000000000000000000000000000000000008152600401808060200182810382526025815260200180610d6f6025913960400191505060405180910390fd5b600073ffffffffffffffffffffffffffffffffffffffff168173ffffffffffffffffffffffffffffffffffffffff16141515156101f7576040517f08c379a0000000000000000000000000000000000000000000000000000000008152600401808060200182810382526024815260200180610d4b6024913960400191505060405180910390fd5b8260028190555081600160006101000a81548173ffffffffffffffffffffffffffffffffffffffff021916908373ffffffffffffffffffffffffffffffffffffffff16021790555080600060016101000a81548173ffffffffffffffffffffffffffffffffffffffff021916908373ffffffffffffffffffffffffffffffffffffffff160217905550505050610ab9806102926000396000f3fe60806040526004361061004a5760003560e01c80632c4e722e1461005c5780634042b66f14610087578063521eb273146100b2578063ec8ac4d814610109578063fc0c546a1461014d575b61005a6100556101a4565b6101ac565b005b34801561006857600080fd5b50610071610339565b6040518082815260200191505060405180910390f35b34801561009357600080fd5b5061009c610343565b6040518082815260200191505060405180910390f35b3480156100be57600080fd5b506100c761034d565b604051808273ffffffffffffffffffffffffffffffffffffffff1673ffffffffffffffffffffffffffffffffffffffff16815260200191505060405180910390f35b61014b6004803603602081101561011f57600080fd5b81019080803573ffffffffffffffffffffffffffffffffffffffff1690602001909291905050506101ac565b005b34801561015957600080fd5b50610162610377565b604051808273ffffffffffffffffffffffffffffffffffffffff1673ffffffffffffffffffffffffffffffffffffffff16815260200191505060405180910390f35b600033905090565b6000809054906101000a900460ff16151561022f576040517f08c379a000000000000000000000000000000000000000000000000000000000815260040180806020018281038252601f8152602001807f5265656e7472616e637947756172643a207265656e7472616e742063616c6c0081525060200191505060405180910390fd5b60008060006101000a81548160ff021916908315150217905550600034905061025882826103a0565b6000610263826104a5565b905061027a826003546104c390919063ffffffff16565b60038190555061028a838261054d565b8273ffffffffffffffffffffffffffffffffffffffff166102a96101a4565b73ffffffffffffffffffffffffffffffffffffffff167f6faf93231a456e552dbc9961f58d9713ee4f2e69d15f1975b050ef0911053a7b8484604051808381526020018281526020019250505060405180910390a3610308838361055b565b61031061055f565b61031a83836105ca565b505060016000806101000a81548160ff02191690831515021790555050565b6000600254905090565b6000600354905090565b6000600160009054906101000a900473ffffffffffffffffffffffffffffffffffffffff16905090565b60008060019054906101000a900473ffffffffffffffffffffffffffffffffffffffff16905090565b600073ffffffffffffffffffffffffffffffffffffffff168273ffffffffffffffffffffffffffffffffffffffff1614151515610428576040517f08c379a000000000000000000000000000000000000000000000000000000000815260040180806020018281038252602a815260200180610a3a602a913960400191505060405180910390fd5b600081141515156104a1576040517f08c379a00000000000000000000000000000000000000000000000000000000081526004018080602001828103825260198152602001807f43726f776473616c653a20776569416d6f756e7420697320300000000000000081525060200191505060405180910390fd5b5050565b60006104bc600254836105ce90919063ffffffff16565b9050919050565b6000808284019050838110151515610543576040517f08c379a000000000000000000000000000000000000000000000000000000000815260040180806020018281038252601b8152602001807f536166654d6174683a206164646974696f6e206f766572666c6f77000000000081525060200191505060405180910390fd5b8091505092915050565b6105578282610658565b5050565b5050565b600160009054906101000a900473ffffffffffffffffffffffffffffffffffffffff1673ffffffffffffffffffffffffffffffffffffffff166108fc349081150290604051600060405180830381858888f193505050501580156105c7573d6000803e3d6000fd5b50565b5050565b6000808314156105e15760009050610652565b600082840290508284828115156105f457fe5b0414151561064d576040517f08c379a0000000000000000000000000000000000000000000000000000000008152600401808060200182810382526021815260200180610a196021913960400191505060405180910390fd5b809150505b92915050565b6106a58282600060019054906101000a900473ffffffffffffffffffffffffffffffffffffffff1673ffffffffffffffffffffffffffffffffffffffff166106a99092919063ffffffff16565b5050565b610775838473ffffffffffffffffffffffffffffffffffffffff1663a9059cbb905060e01b8484604051602401808373ffffffffffffffffffffffffffffffffffffffff1673ffffffffffffffffffffffffffffffffffffffff16815260200182815260200192505050604051602081830303815290604052907bffffffffffffffffffffffffffffffffffffffffffffffffffffffff19166020820180517bffffffffffffffffffffffffffffffffffffffffffffffffffffffff838183161783525050505061077a565b505050565b6107998273ffffffffffffffffffffffffffffffffffffffff166109cd565b151561080d576040517f08c379a000000000000000000000000000000000000000000000000000000000815260040180806020018281038252601f8152602001807f5361666545524332303a2063616c6c20746f206e6f6e2d636f6e74726163740081525060200191505060405180910390fd5b600060608373ffffffffffffffffffffffffffffffffffffffff16836040518082805190602001908083835b60208310151561085e5780518252602082019150602081019050602083039250610839565b6001836020036101000a0380198251168184511680821785525050505050509050019150506000604051808303816000865af19150503d80600081146108c0576040519150601f19603f3d011682016040523d82523d6000602084013e6108c5565b606091505b509150915081151561093f576040517f08c379a00000000000000000000000000000000000000000000000000000000081526004018080602001828103825260208152602001807f5361666545524332303a206c6f772d6c6576656c2063616c6c206661696c656481525060200191505060405180910390fd5b6000815111156109c75780806020019051602081101561095e57600080fd5b810190808051906020019092919050505015156109c6576040517f08c379a000000000000000000000000000000000000000000000000000000000815260040180806020018281038252602a815260200180610a64602a913960400191505060405180910390fd5b5b50505050565b60008060007fc5d2460186f7233c927e7db2dcc703c0e500b653ca82273b7bfad8045d85a47060001b9050833f9150808214158015610a0f57506000801b8214155b9250505091905056fe536166654d6174683a206d756c7469706c69636174696f6e206f766572666c6f7743726f776473616c653a2062656e656669636961727920697320746865207a65726f20616464726573735361666545524332303a204552433230206f7065726174696f6e20646964206e6f742073756363656564a165627a7a72305820f064b4c4233a27a252cf596769cbefb3296f8da68282ee44892b4a480e795ce0002943726f776473616c653a20746f6b656e20697320746865207a65726f206164647265737343726f776473616c653a2077616c6c657420697320746865207a65726f2061646472657373",
					"opcodes": "PUSH1 0x80 PUSH1 0x40 MSTORE CALLVALUE DUP1 ISZERO PUSH2 0x10 JUMPI PUSH1 0x0 DUP1 REVERT JUMPDEST POP PUSH1 0x40 MLOAD PUSH1 0x60 DUP1 PUSH2 0xD94 DUP4 CODECOPY DUP2 ADD DUP1 PUSH1 0x40 MSTORE PUSH1 0x60 DUP2 LT ISZERO PUSH2 0x30 JUMPI PUSH1 0x0 DUP1 REVERT JUMPDEST DUP2 ADD SWAP1 DUP1 DUP1 MLOAD SWAP1 PUSH1 0x20 ADD SWAP1 SWAP3 SWAP2 SWAP1 DUP1 MLOAD SWAP1 PUSH1 0x20 ADD SWAP1 SWAP3 SWAP2 SWAP1 DUP1 MLOAD SWAP1 PUSH1 0x20 ADD SWAP1 SWAP3 SWAP2 SWAP1 POP POP POP PUSH1 0x1 PUSH1 0x0 DUP1 PUSH2 0x100 EXP DUP2 SLOAD DUP2 PUSH1 0xFF MUL NOT AND SWAP1 DUP4 ISZERO ISZERO MUL OR SWAP1 SSTORE POP PUSH1 0x0 DUP4 GT ISZERO ISZERO PUSH2 0xE7 JUMPI PUSH1 0x40 MLOAD PUSH32 0x8C379A000000000000000000000000000000000000000000000000000000000 DUP2 MSTORE PUSH1 0x4 ADD DUP1 DUP1 PUSH1 0x20 ADD DUP3 DUP2 SUB DUP3 MSTORE PUSH1 0x14 DUP2 MSTORE PUSH1 0x20 ADD DUP1 PUSH32 0x43726F776473616C653A20726174652069732030000000000000000000000000 DUP2 MSTORE POP PUSH1 0x20 ADD SWAP2 POP POP PUSH1 0x40 MLOAD DUP1 SWAP2 SUB SWAP1 REVERT JUMPDEST PUSH1 0x0 PUSH20 0xFFFFFFFFFFFFFFFFFFFFFFFFFFFFFFFFFFFFFFFF AND DUP3 PUSH20 0xFFFFFFFFFFFFFFFFFFFFFFFFFFFFFFFFFFFFFFFF AND EQ ISZERO ISZERO ISZERO PUSH2 0x16F JUMPI PUSH1 0x40 MLOAD PUSH32 0x8C379A000000000000000000000000000000000000000000000000000000000 DUP2 MSTORE PUSH1 0x4 ADD DUP1 DUP1 PUSH1 0x20 ADD DUP3 DUP2 SUB DUP3 MSTORE PUSH1 0x25 DUP2 MSTORE PUSH1 0x20 ADD DUP1 PUSH2 0xD6F PUSH1 0x25 SWAP2 CODECOPY PUSH1 0x40 ADD SWAP2 POP POP PUSH1 0x40 MLOAD DUP1 SWAP2 SUB SWAP1 REVERT JUMPDEST PUSH1 0x0 PUSH20 0xFFFFFFFFFFFFFFFFFFFFFFFFFFFFFFFFFFFFFFFF AND DUP2 PUSH20 0xFFFFFFFFFFFFFFFFFFFFFFFFFFFFFFFFFFFFFFFF AND EQ ISZERO ISZERO ISZERO PUSH2 0x1F7 JUMPI PUSH1 0x40 MLOAD PUSH32 0x8C379A000000000000000000000000000000000000000000000000000000000 DUP2 MSTORE PUSH1 0x4 ADD DUP1 DUP1 PUSH1 0x20 ADD DUP3 DUP2 SUB DUP3 MSTORE PUSH1 0x24 DUP2 MSTORE PUSH1 0x20 ADD DUP1 PUSH2 0xD4B PUSH1 0x24 SWAP2 CODECOPY PUSH1 0x40 ADD SWAP2 POP POP PUSH1 0x40 MLOAD DUP1 SWAP2 SUB SWAP1 REVERT JUMPDEST DUP3 PUSH1 0x2 DUP2 SWAP1 SSTORE POP DUP2 PUSH1 0x1 PUSH1 0x0 PUSH2 0x100 EXP DUP2 SLOAD DUP2 PUSH20 0xFFFFFFFFFFFFFFFFFFFFFFFFFFFFFFFFFFFFFFFF MUL NOT AND SWAP1 DUP4 PUSH20 0xFFFFFFFFFFFFFFFFFFFFFFFFFFFFFFFFFFFFFFFF AND MUL OR SWAP1 SSTORE POP DUP1 PUSH1 0x0 PUSH1 0x1 PUSH2 0x100 EXP DUP2 SLOAD DUP2 PUSH20 0xFFFFFFFFFFFFFFFFFFFFFFFFFFFFFFFFFFFFFFFF MUL NOT AND SWAP1 DUP4 PUSH20 0xFFFFFFFFFFFFFFFFFFFFFFFFFFFFFFFFFFFFFFFF AND MUL OR SWAP1 SSTORE POP POP POP POP PUSH2 0xAB9 DUP1 PUSH2 0x292 PUSH1 0x0 CODECOPY PUSH1 0x0 RETURN INVALID PUSH1 0x80 PUSH1 0x40 MSTORE PUSH1 0x4 CALLDATASIZE LT PUSH2 0x4A JUMPI PUSH1 0x0 CALLDATALOAD PUSH1 0xE0 SHR DUP1 PUSH4 0x2C4E722E EQ PUSH2 0x5C JUMPI DUP1 PUSH4 0x4042B66F EQ PUSH2 0x87 JUMPI DUP1 PUSH4 0x521EB273 EQ PUSH2 0xB2 JUMPI DUP1 PUSH4 0xEC8AC4D8 EQ PUSH2 0x109 JUMPI DUP1 PUSH4 0xFC0C546A EQ PUSH2 0x14D JUMPI JUMPDEST PUSH2 0x5A PUSH2 0x55 PUSH2 0x1A4 JUMP JUMPDEST PUSH2 0x1AC JUMP JUMPDEST STOP JUMPDEST CALLVALUE DUP1 ISZERO PUSH2 0x68 JUMPI PUSH1 0x0 DUP1 REVERT JUMPDEST POP PUSH2 0x71 PUSH2 0x339 JUMP JUMPDEST PUSH1 0x40 MLOAD DUP1 DUP3 DUP2 MSTORE PUSH1 0x20 ADD SWAP2 POP POP PUSH1 0x40 MLOAD DUP1 SWAP2 SUB SWAP1 RETURN JUMPDEST CALLVALUE DUP1 ISZERO PUSH2 0x93 JUMPI PUSH1 0x0 DUP1 REVERT JUMPDEST POP PUSH2 0x9C PUSH2 0x343 JUMP JUMPDEST PUSH1 0x40 MLOAD DUP1 DUP3 DUP2 MSTORE PUSH1 0x20 ADD SWAP2 POP POP PUSH1 0x40 MLOAD DUP1 SWAP2 SUB SWAP1 RETURN JUMPDEST CALLVALUE DUP1 ISZERO PUSH2 0xBE JUMPI PUSH1 0x0 DUP1 REVERT JUMPDEST POP PUSH2 0xC7 PUSH2 0x34D JUMP JUMPDEST PUSH1 0x40 MLOAD DUP1 DUP3 PUSH20 0xFFFFFFFFFFFFFFFFFFFFFFFFFFFFFFFFFFFFFFFF AND PUSH20 0xFFFFFFFFFFFFFFFFFFFFFFFFFFFFFFFFFFFFFFFF AND DUP2 MSTORE PUSH1 0x20 ADD SWAP2 POP POP PUSH1 0x40 MLOAD DUP1 SWAP2 SUB SWAP1 RETURN JUMPDEST PUSH2 0x14B PUSH1 0x4 DUP1 CALLDATASIZE SUB PUSH1 0x20 DUP2 LT ISZERO PUSH2 0x11F JUMPI PUSH1 0x0 DUP1 REVERT JUMPDEST DUP2 ADD SWAP1 DUP1 DUP1 CALLDATALOAD PUSH20 0xFFFFFFFFFFFFFFFFFFFFFFFFFFFFFFFFFFFFFFFF AND SWAP1 PUSH1 0x20 ADD SWAP1 SWAP3 SWAP2 SWAP1 POP POP POP PUSH2 0x1AC JUMP JUMPDEST STOP JUMPDEST CALLVALUE DUP1 ISZERO PUSH2 0x159 JUMPI PUSH1 0x0 DUP1 REVERT JUMPDEST POP PUSH2 0x162 PUSH2 0x377 JUMP JUMPDEST PUSH1 0x40 MLOAD DUP1 DUP3 PUSH20 0xFFFFFFFFFFFFFFFFFFFFFFFFFFFFFFFFFFFFFFFF AND PUSH20 0xFFFFFFFFFFFFFFFFFFFFFFFFFFFFFFFFFFFFFFFF AND DUP2 MSTORE PUSH1 0x20 ADD SWAP2 POP POP PUSH1 0x40 MLOAD DUP1 SWAP2 SUB SWAP1 RETURN JUMPDEST PUSH1 0x0 CALLER SWAP1 POP SWAP1 JUMP JUMPDEST PUSH1 0x0 DUP1 SWAP1 SLOAD SWAP1 PUSH2 0x100 EXP SWAP1 DIV PUSH1 0xFF AND ISZERO ISZERO PUSH2 0x22F JUMPI PUSH1 0x40 MLOAD PUSH32 0x8C379A000000000000000000000000000000000000000000000000000000000 DUP2 MSTORE PUSH1 0x4 ADD DUP1 DUP1 PUSH1 0x20 ADD DUP3 DUP2 SUB DUP3 MSTORE PUSH1 0x1F DUP2 MSTORE PUSH1 0x20 ADD DUP1 PUSH32 0x5265656E7472616E637947756172643A207265656E7472616E742063616C6C00 DUP2 MSTORE POP PUSH1 0x20 ADD SWAP2 POP POP PUSH1 0x40 MLOAD DUP1 SWAP2 SUB SWAP1 REVERT JUMPDEST PUSH1 0x0 DUP1 PUSH1 0x0 PUSH2 0x100 EXP DUP2 SLOAD DUP2 PUSH1 0xFF MUL NOT AND SWAP1 DUP4 ISZERO ISZERO MUL OR SWAP1 SSTORE POP PUSH1 0x0 CALLVALUE SWAP1 POP PUSH2 0x258 DUP3 DUP3 PUSH2 0x3A0 JUMP JUMPDEST PUSH1 0x0 PUSH2 0x263 DUP3 PUSH2 0x4A5 JUMP JUMPDEST SWAP1 POP PUSH2 0x27A DUP3 PUSH1 0x3 SLOAD PUSH2 0x4C3 SWAP1 SWAP2 SWAP1 PUSH4 0xFFFFFFFF AND JUMP JUMPDEST PUSH1 0x3 DUP2 SWAP1 SSTORE POP PUSH2 0x28A DUP4 DUP3 PUSH2 0x54D JUMP JUMPDEST DUP3 PUSH20 0xFFFFFFFFFFFFFFFFFFFFFFFFFFFFFFFFFFFFFFFF AND PUSH2 0x2A9 PUSH2 0x1A4 JUMP JUMPDEST PUSH20 0xFFFFFFFFFFFFFFFFFFFFFFFFFFFFFFFFFFFFFFFF AND PUSH32 0x6FAF93231A456E552DBC9961F58D9713EE4F2E69D15F1975B050EF0911053A7B DUP5 DUP5 PUSH1 0x40 MLOAD DUP1 DUP4 DUP2 MSTORE PUSH1 0x20 ADD DUP3 DUP2 MSTORE PUSH1 0x20 ADD SWAP3 POP POP POP PUSH1 0x40 MLOAD DUP1 SWAP2 SUB SWAP1 LOG3 PUSH2 0x308 DUP4 DUP4 PUSH2 0x55B JUMP JUMPDEST PUSH2 0x310 PUSH2 0x55F JUMP JUMPDEST PUSH2 0x31A DUP4 DUP4 PUSH2 0x5CA JUMP JUMPDEST POP POP PUSH1 0x1 PUSH1 0x0 DUP1 PUSH2 0x100 EXP DUP2 SLOAD DUP2 PUSH1 0xFF MUL NOT AND SWAP1 DUP4 ISZERO ISZERO MUL OR SWAP1 SSTORE POP POP JUMP JUMPDEST PUSH1 0x0 PUSH1 0x2 SLOAD SWAP1 POP SWAP1 JUMP JUMPDEST PUSH1 0x0 PUSH1 0x3 SLOAD SWAP1 POP SWAP1 JUMP JUMPDEST PUSH1 0x0 PUSH1 0x1 PUSH1 0x0 SWAP1 SLOAD SWAP1 PUSH2 0x100 EXP SWAP1 DIV PUSH20 0xFFFFFFFFFFFFFFFFFFFFFFFFFFFFFFFFFFFFFFFF AND SWAP1 POP SWAP1 JUMP JUMPDEST PUSH1 0x0 DUP1 PUSH1 0x1 SWAP1 SLOAD SWAP1 PUSH2 0x100 EXP SWAP1 DIV PUSH20 0xFFFFFFFFFFFFFFFFFFFFFFFFFFFFFFFFFFFFFFFF AND SWAP1 POP SWAP1 JUMP JUMPDEST PUSH1 0x0 PUSH20 0xFFFFFFFFFFFFFFFFFFFFFFFFFFFFFFFFFFFFFFFF AND DUP3 PUSH20 0xFFFFFFFFFFFFFFFFFFFFFFFFFFFFFFFFFFFFFFFF AND EQ ISZERO ISZERO ISZERO PUSH2 0x428 JUMPI PUSH1 0x40 MLOAD PUSH32 0x8C379A000000000000000000000000000000000000000000000000000000000 DUP2 MSTORE PUSH1 0x4 ADD DUP1 DUP1 PUSH1 0x20 ADD DUP3 DUP2 SUB DUP3 MSTORE PUSH1 0x2A DUP2 MSTORE PUSH1 0x20 ADD DUP1 PUSH2 0xA3A PUSH1 0x2A SWAP2 CODECOPY PUSH1 0x40 ADD SWAP2 POP POP PUSH1 0x40 MLOAD DUP1 SWAP2 SUB SWAP1 REVERT JUMPDEST PUSH1 0x0 DUP2 EQ ISZERO ISZERO ISZERO PUSH2 0x4A1 JUMPI PUSH1 0x40 MLOAD PUSH32 0x8C379A000000000000000000000000000000000000000000000000000000000 DUP2 MSTORE PUSH1 0x4 ADD DUP1 DUP1 PUSH1 0x20 ADD DUP3 DUP2 SUB DUP3 MSTORE PUSH1 0x19 DUP2 MSTORE PUSH1 0x20 ADD DUP1 PUSH32 0x43726F776473616C653A20776569416D6F756E74206973203000000000000000 DUP2 MSTORE POP PUSH1 0x20 ADD SWAP2 POP POP PUSH1 0x40 MLOAD DUP1 SWAP2 SUB SWAP1 REVERT JUMPDEST POP POP JUMP JUMPDEST PUSH1 0x0 PUSH2 0x4BC PUSH1 0x2 SLOAD DUP4 PUSH2 0x5CE SWAP1 SWAP2 SWAP1 PUSH4 0xFFFFFFFF AND JUMP JUMPDEST SWAP1 POP SWAP2 SWAP1 POP JUMP JUMPDEST PUSH1 0x0 DUP1 DUP3 DUP5 ADD SWAP1 POP DUP4 DUP2 LT ISZERO ISZERO ISZERO PUSH2 0x543 JUMPI PUSH1 0x40 MLOAD PUSH32 0x8C379A000000000000000000000000000000000000000000000000000000000 DUP2 MSTORE PUSH1 0x4 ADD DUP1 DUP1 PUSH1 0x20 ADD DUP3 DUP2 SUB DUP3 MSTORE PUSH1 0x1B DUP2 MSTORE PUSH1 0x20 ADD DUP1 PUSH32 0x536166654D6174683A206164646974696F6E206F766572666C6F770000000000 DUP2 MSTORE POP PUSH1 0x20 ADD SWAP2 POP POP PUSH1 0x40 MLOAD DUP1 SWAP2 SUB SWAP1 REVERT JUMPDEST DUP1 SWAP2 POP POP SWAP3 SWAP2 POP POP JUMP JUMPDEST PUSH2 0x557 DUP3 DUP3 PUSH2 0x658 JUMP JUMPDEST POP POP JUMP JUMPDEST POP POP JUMP JUMPDEST PUSH1 0x1 PUSH1 0x0 SWAP1 SLOAD SWAP1 PUSH2 0x100 EXP SWAP1 DIV PUSH20 0xFFFFFFFFFFFFFFFFFFFFFFFFFFFFFFFFFFFFFFFF AND PUSH20 0xFFFFFFFFFFFFFFFFFFFFFFFFFFFFFFFFFFFFFFFF AND PUSH2 0x8FC CALLVALUE SWAP1 DUP2 ISZERO MUL SWAP1 PUSH1 0x40 MLOAD PUSH1 0x0 PUSH1 0x40 MLOAD DUP1 DUP4 SUB DUP2 DUP6 DUP9 DUP9 CALL SWAP4 POP POP POP POP ISZERO DUP1 ISZERO PUSH2 0x5C7 JUMPI RETURNDATASIZE PUSH1 0x0 DUP1 RETURNDATACOPY RETURNDATASIZE PUSH1 0x0 REVERT JUMPDEST POP JUMP JUMPDEST POP POP JUMP JUMPDEST PUSH1 0x0 DUP1 DUP4 EQ ISZERO PUSH2 0x5E1 JUMPI PUSH1 0x0 SWAP1 POP PUSH2 0x652 JUMP JUMPDEST PUSH1 0x0 DUP3 DUP5 MUL SWAP1 POP DUP3 DUP5 DUP3 DUP2 ISZERO ISZERO PUSH2 0x5F4 JUMPI INVALID JUMPDEST DIV EQ ISZERO ISZERO PUSH2 0x64D JUMPI PUSH1 0x40 MLOAD PUSH32 0x8C379A000000000000000000000000000000000000000000000000000000000 DUP2 MSTORE PUSH1 0x4 ADD DUP1 DUP1 PUSH1 0x20 ADD DUP3 DUP2 SUB DUP3 MSTORE PUSH1 0x21 DUP2 MSTORE PUSH1 0x20 ADD DUP1 PUSH2 0xA19 PUSH1 0x21 SWAP2 CODECOPY PUSH1 0x40 ADD SWAP2 POP POP PUSH1 0x40 MLOAD DUP1 SWAP2 SUB SWAP1 REVERT JUMPDEST DUP1 SWAP2 POP POP JUMPDEST SWAP3 SWAP2 POP POP JUMP JUMPDEST PUSH2 0x6A5 DUP3 DUP3 PUSH1 0x0 PUSH1 0x1 SWAP1 SLOAD SWAP1 PUSH2 0x100 EXP SWAP1 DIV PUSH20 0xFFFFFFFFFFFFFFFFFFFFFFFFFFFFFFFFFFFFFFFF AND PUSH20 0xFFFFFFFFFFFFFFFFFFFFFFFFFFFFFFFFFFFFFFFF AND PUSH2 0x6A9 SWAP1 SWAP3 SWAP2 SWAP1 PUSH4 0xFFFFFFFF AND JUMP JUMPDEST POP POP JUMP JUMPDEST PUSH2 0x775 DUP4 DUP5 PUSH20 0xFFFFFFFFFFFFFFFFFFFFFFFFFFFFFFFFFFFFFFFF AND PUSH4 0xA9059CBB SWAP1 POP PUSH1 0xE0 SHL DUP5 DUP5 PUSH1 0x40 MLOAD PUSH1 0x24 ADD DUP1 DUP4 PUSH20 0xFFFFFFFFFFFFFFFFFFFFFFFFFFFFFFFFFFFFFFFF AND PUSH20 0xFFFFFFFFFFFFFFFFFFFFFFFFFFFFFFFFFFFFFFFF AND DUP2 MSTORE PUSH1 0x20 ADD DUP3 DUP2 MSTORE PUSH1 0x20 ADD SWAP3 POP POP POP PUSH1 0x40 MLOAD PUSH1 0x20 DUP2 DUP4 SUB SUB DUP2 MSTORE SWAP1 PUSH1 0x40 MSTORE SWAP1 PUSH28 0xFFFFFFFFFFFFFFFFFFFFFFFFFFFFFFFFFFFFFFFFFFFFFFFFFFFFFFFF NOT AND PUSH1 0x20 DUP3 ADD DUP1 MLOAD PUSH28 0xFFFFFFFFFFFFFFFFFFFFFFFFFFFFFFFFFFFFFFFFFFFFFFFFFFFFFFFF DUP4 DUP2 DUP4 AND OR DUP4 MSTORE POP POP POP POP PUSH2 0x77A JUMP JUMPDEST POP POP POP JUMP JUMPDEST PUSH2 0x799 DUP3 PUSH20 0xFFFFFFFFFFFFFFFFFFFFFFFFFFFFFFFFFFFFFFFF AND PUSH2 0x9CD JUMP JUMPDEST ISZERO ISZERO PUSH2 0x80D JUMPI PUSH1 0x40 MLOAD PUSH32 0x8C379A000000000000000000000000000000000000000000000000000000000 DUP2 MSTORE PUSH1 0x4 ADD DUP1 DUP1 PUSH1 0x20 ADD DUP3 DUP2 SUB DUP3 MSTORE PUSH1 0x1F DUP2 MSTORE PUSH1 0x20 ADD DUP1 PUSH32 0x5361666545524332303A2063616C6C20746F206E6F6E2D636F6E747261637400 DUP2 MSTORE POP PUSH1 0x20 ADD SWAP2 POP POP PUSH1 0x40 MLOAD DUP1 SWAP2 SUB SWAP1 REVERT JUMPDEST PUSH1 0x0 PUSH1 0x60 DUP4 PUSH20 0xFFFFFFFFFFFFFFFFFFFFFFFFFFFFFFFFFFFFFFFF AND DUP4 PUSH1 0x40 MLOAD DUP1 DUP3 DUP1 MLOAD SWAP1 PUSH1 0x20 ADD SWAP1 DUP1 DUP4 DUP4 JUMPDEST PUSH1 0x20 DUP4 LT ISZERO ISZERO PUSH2 0x85E JUMPI DUP1 MLOAD DUP3 MSTORE PUSH1 0x20 DUP3 ADD SWAP2 POP PUSH1 0x20 DUP2 ADD SWAP1 POP PUSH1 0x20 DUP4 SUB SWAP3 POP PUSH2 0x839 JUMP JUMPDEST PUSH1 0x1 DUP4 PUSH1 0x20 SUB PUSH2 0x100 EXP SUB DUP1 NOT DUP3 MLOAD AND DUP2 DUP5 MLOAD AND DUP1 DUP3 OR DUP6 MSTORE POP POP POP POP POP POP SWAP1 POP ADD SWAP2 POP POP PUSH1 0x0 PUSH1 0x40 MLOAD DUP1 DUP4 SUB DUP2 PUSH1 0x0 DUP7 GAS CALL SWAP2 POP POP RETURNDATASIZE DUP1 PUSH1 0x0 DUP2 EQ PUSH2 0x8C0 JUMPI PUSH1 0x40 MLOAD SWAP2 POP PUSH1 0x1F NOT PUSH1 0x3F RETURNDATASIZE ADD AND DUP3 ADD PUSH1 0x40 MSTORE RETURNDATASIZE DUP3 MSTORE RETURNDATASIZE PUSH1 0x0 PUSH1 0x20 DUP5 ADD RETURNDATACOPY PUSH2 0x8C5 JUMP JUMPDEST PUSH1 0x60 SWAP2 POP JUMPDEST POP SWAP2 POP SWAP2 POP DUP2 ISZERO ISZERO PUSH2 0x93F JUMPI PUSH1 0x40 MLOAD PUSH32 0x8C379A000000000000000000000000000000000000000000000000000000000 DUP2 MSTORE PUSH1 0x4 ADD DUP1 DUP1 PUSH1 0x20 ADD DUP3 DUP2 SUB DUP3 MSTORE PUSH1 0x20 DUP2 MSTORE PUSH1 0x20 ADD DUP1 PUSH32 0x5361666545524332303A206C6F772D6C6576656C2063616C6C206661696C6564 DUP2 MSTORE POP PUSH1 0x20 ADD SWAP2 POP POP PUSH1 0x40 MLOAD DUP1 SWAP2 SUB SWAP1 REVERT JUMPDEST PUSH1 0x0 DUP2 MLOAD GT ISZERO PUSH2 0x9C7 JUMPI DUP1 DUP1 PUSH1 0x20 ADD SWAP1 MLOAD PUSH1 0x20 DUP2 LT ISZERO PUSH2 0x95E JUMPI PUSH1 0x0 DUP1 REVERT JUMPDEST DUP2 ADD SWAP1 DUP1 DUP1 MLOAD SWAP1 PUSH1 0x20 ADD SWAP1 SWAP3 SWAP2 SWAP1 POP POP POP ISZERO ISZERO PUSH2 0x9C6 JUMPI PUSH1 0x40 MLOAD PUSH32 0x8C379A000000000000000000000000000000000000000000000000000000000 DUP2 MSTORE PUSH1 0x4 ADD DUP1 DUP1 PUSH1 0x20 ADD DUP3 DUP2 SUB DUP3 MSTORE PUSH1 0x2A DUP2 MSTORE PUSH1 0x20 ADD DUP1 PUSH2 0xA64 PUSH1 0x2A SWAP2 CODECOPY PUSH1 0x40 ADD SWAP2 POP POP PUSH1 0x40 MLOAD DUP1 SWAP2 SUB SWAP1 REVERT JUMPDEST JUMPDEST POP POP POP POP JUMP JUMPDEST PUSH1 0x0 DUP1 PUSH1 0x0 PUSH32 0xC5D2460186F7233C927E7DB2DCC703C0E500B653CA82273B7BFAD8045D85A470 PUSH1 0x0 SHL SWAP1 POP DUP4 EXTCODEHASH SWAP2 POP DUP1 DUP3 EQ ISZERO DUP1 ISZERO PUSH2 0xA0F JUMPI POP PUSH1 0x0 DUP1 SHL DUP3 EQ ISZERO JUMPDEST SWAP3 POP POP POP SWAP2 SWAP1 POP JUMP INVALID MSTORE8 PUSH2 0x6665 0x4d PUSH2 0x7468 GASPRICE KECCAK256 PUSH14 0x756C7469706C69636174696F6E20 PUSH16 0x766572666C6F7743726F776473616C65 GASPRICE KECCAK256 PUSH3 0x656E65 PUSH7 0x69636961727920 PUSH10 0x7320746865207A65726F KECCAK256 PUSH2 0x6464 PUSH19 0x6573735361666545524332303A204552433230 KECCAK256 PUSH16 0x7065726174696F6E20646964206E6F74 KECCAK256 PUSH20 0x756363656564A165627A7A72305820F064B4C423 GASPRICE 0x27 LOG2 MSTORE 0xcf MSIZE PUSH8 0x69CBEFB3296F8DA6 DUP3 DUP3 0xee DIFFICULTY DUP10 0x2b 0x4a 0x48 0xe PUSH26 0x5CE0002943726F776473616C653A20746F6B656E206973207468 PUSH6 0x207A65726F20 PUSH2 0x6464 PUSH19 0x65737343726F776473616C653A2077616C6C65 PUSH21 0x20697320746865207A65726F206164647265737300 "
				},
				"gasEstimates": {
					"creation": {
						"codeDepositCost": "549000",
						"executionCost": "infinite",
						"totalCost": "infinite"
					},
					"external": {
						"": "infinite",
						"buyTokens(address)": "infinite",
						"rate()": "391",
						"token()": "577",
						"wallet()": "483",
						"weiRaised()": "413"
					},
					"internal": {
						"_deliverTokens(address,uint256)": "infinite",
						"_forwardFunds()": "infinite",
						"_getTokenAmount(uint256)": "infinite",
						"_postValidatePurchase(address,uint256)": "13",
						"_preValidatePurchase(address,uint256)": "infinite",
						"_processPurchase(address,uint256)": "infinite",
						"_updatePurchasingState(address,uint256)": "13"
					}
				},
				"methodIdentifiers": {
					"buyTokens(address)": "ec8ac4d8",
					"rate()": "2c4e722e",
					"token()": "fc0c546a",
					"wallet()": "521eb273",
					"weiRaised()": "4042b66f"
				}
			},
			"userdoc": {
				"methods": {}
			}
		}
	}
}