{
	"Challenge21/KaseiCoin.sol": {
		"KaseiCoin": {
			"abi": [
				{
					"constant": true,
					"inputs": [],
					"name": "name",
					"outputs": [
						{
							"name": "",
							"type": "string"
						}
					],
					"payable": false,
					"stateMutability": "view",
					"type": "function"
				},
				{
					"constant": false,
					"inputs": [
						{
							"name": "spender",
							"type": "address"
						},
						{
							"name": "amount",
							"type": "uint256"
						}
					],
					"name": "approve",
					"outputs": [
						{
							"name": "",
							"type": "bool"
						}
					],
					"payable": false,
					"stateMutability": "nonpayable",
					"type": "function"
				},
				{
					"constant": true,
					"inputs": [],
					"name": "totalSupply",
					"outputs": [
						{
							"name": "",
							"type": "uint256"
						}
					],
					"payable": false,
					"stateMutability": "view",
					"type": "function"
				},
				{
					"constant": false,
					"inputs": [
						{
							"name": "sender",
							"type": "address"
						},
						{
							"name": "recipient",
							"type": "address"
						},
						{
							"name": "amount",
							"type": "uint256"
						}
					],
					"name": "transferFrom",
					"outputs": [
						{
							"name": "",
							"type": "bool"
						}
					],
					"payable": false,
					"stateMutability": "nonpayable",
					"type": "function"
				},
				{
					"constant": true,
					"inputs": [],
					"name": "decimals",
					"outputs": [
						{
							"name": "",
							"type": "uint8"
						}
					],
					"payable": false,
					"stateMutability": "view",
					"type": "function"
				},
				{
					"constant": false,
					"inputs": [
						{
							"name": "spender",
							"type": "address"
						},
						{
							"name": "addedValue",
							"type": "uint256"
						}
					],
					"name": "increaseAllowance",
					"outputs": [
						{
							"name": "",
							"type": "bool"
						}
					],
					"payable": false,
					"stateMutability": "nonpayable",
					"type": "function"
				},
				{
					"constant": false,
					"inputs": [
						{
							"name": "account",
							"type": "address"
						},
						{
							"name": "amount",
							"type": "uint256"
						}
					],
					"name": "mint",
					"outputs": [
						{
							"name": "",
							"type": "bool"
						}
					],
					"payable": false,
					"stateMutability": "nonpayable",
					"type": "function"
				},
				{
					"constant": true,
					"inputs": [
						{
							"name": "account",
							"type": "address"
						}
					],
					"name": "balanceOf",
					"outputs": [
						{
							"name": "",
							"type": "uint256"
						}
					],
					"payable": false,
					"stateMutability": "view",
					"type": "function"
				},
				{
					"constant": true,
					"inputs": [],
					"name": "symbol",
					"outputs": [
						{
							"name": "",
							"type": "string"
						}
					],
					"payable": false,
					"stateMutability": "view",
					"type": "function"
				},
				{
					"constant": false,
					"inputs": [
						{
							"name": "account",
							"type": "address"
						}
					],
					"name": "addMinter",
					"outputs": [],
					"payable": false,
					"stateMutability": "nonpayable",
					"type": "function"
				},
				{
					"constant": false,
					"inputs": [],
					"name": "renounceMinter",
					"outputs": [],
					"payable": false,
					"stateMutability": "nonpayable",
					"type": "function"
				},
				{
					"constant": false,
					"inputs": [
						{
							"name": "spender",
							"type": "address"
						},
						{
							"name": "subtractedValue",
							"type": "uint256"
						}
					],
					"name": "decreaseAllowance",
					"outputs": [
						{
							"name": "",
							"type": "bool"
						}
					],
					"payable": false,
					"stateMutability": "nonpayable",
					"type": "function"
				},
				{
					"constant": false,
					"inputs": [
						{
							"name": "recipient",
							"type": "address"
						},
						{
							"name": "amount",
							"type": "uint256"
						}
					],
					"name": "transfer",
					"outputs": [
						{
							"name": "",
							"type": "bool"
						}
					],
					"payable": false,
					"stateMutability": "nonpayable",
					"type": "function"
				},
				{
					"constant": true,
					"inputs": [
						{
							"name": "account",
							"type": "address"
						}
					],
					"name": "isMinter",
					"outputs": [
						{
							"name": "",
							"type": "bool"
						}
					],
					"payable": false,
					"stateMutability": "view",
					"type": "function"
				},
				{
					"constant": true,
					"inputs": [
						{
							"name": "owner",
							"type": "address"
						},
						{
							"name": "spender",
							"type": "address"
						}
					],
					"name": "allowance",
					"outputs": [
						{
							"name": "",
							"type": "uint256"
						}
					],
					"payable": false,
					"stateMutability": "view",
					"type": "function"
				},
				{
					"inputs": [
						{
							"name": "name",
							"type": "string"
						},
						{
							"name": "symbol",
							"type": "string"
						},
						{
							"name": "initial_supply",
							"type": "uint256"
						}
					],
					"payable": false,
					"stateMutability": "nonpayable",
					"type": "constructor"
				},
				{
					"anonymous": false,
					"inputs": [
						{
							"indexed": true,
							"name": "account",
							"type": "address"
						}
					],
					"name": "MinterAdded",
					"type": "event"
				},
				{
					"anonymous": false,
					"inputs": [
						{
							"indexed": true,
							"name": "account",
							"type": "address"
						}
					],
					"name": "MinterRemoved",
					"type": "event"
				},
				{
					"anonymous": false,
					"inputs": [
						{
							"indexed": true,
							"name": "from",
							"type": "address"
						},
						{
							"indexed": true,
							"name": "to",
							"type": "address"
						},
						{
							"indexed": false,
							"name": "value",
							"type": "uint256"
						}
					],
					"name": "Transfer",
					"type": "event"
				},
				{
					"anonymous": false,
					"inputs": [
						{
							"indexed": true,
							"name": "owner",
							"type": "address"
						},
						{
							"indexed": true,
							"name": "spender",
							"type": "address"
						},
						{
							"indexed": false,
							"name": "value",
							"type": "uint256"
						}
					],
					"name": "Approval",
					"type": "event"
				}
			],
			"devdoc": {
				"methods": {
					"allowance(address,address)": {
						"details": "See {IERC20-allowance}."
					},
					"approve(address,uint256)": {
						"details": "See {IERC20-approve}.     * Requirements:     * - `spender` cannot be the zero address."
					},
					"balanceOf(address)": {
						"details": "See {IERC20-balanceOf}."
					},
					"decimals()": {
						"details": "Returns the number of decimals used to get its user representation. For example, if `decimals` equals `2`, a balance of `505` tokens should be displayed to a user as `5,05` (`505 / 10 ** 2`).     * Tokens usually opt for a value of 18, imitating the relationship between Ether and Wei.     * NOTE: This information is only used for _display_ purposes: it in no way affects any of the arithmetic of the contract, including {IERC20-balanceOf} and {IERC20-transfer}."
					},
					"decreaseAllowance(address,uint256)": {
						"details": "Atomically decreases the allowance granted to `spender` by the caller.     * This is an alternative to {approve} that can be used as a mitigation for problems described in {IERC20-approve}.     * Emits an {Approval} event indicating the updated allowance.     * Requirements:     * - `spender` cannot be the zero address. - `spender` must have allowance for the caller of at least `subtractedValue`."
					},
					"increaseAllowance(address,uint256)": {
						"details": "Atomically increases the allowance granted to `spender` by the caller.     * This is an alternative to {approve} that can be used as a mitigation for problems described in {IERC20-approve}.     * Emits an {Approval} event indicating the updated allowance.     * Requirements:     * - `spender` cannot be the zero address."
					},
					"mint(address,uint256)": {
						"details": "See {ERC20-_mint}.     * Requirements:     * - the caller must have the {MinterRole}."
					},
					"name()": {
						"details": "Returns the name of the token."
					},
					"symbol()": {
						"details": "Returns the symbol of the token, usually a shorter version of the name."
					},
					"totalSupply()": {
						"details": "See {IERC20-totalSupply}."
					},
					"transfer(address,uint256)": {
						"details": "See {IERC20-transfer}.     * Requirements:     * - `recipient` cannot be the zero address. - the caller must have a balance of at least `amount`."
					},
					"transferFrom(address,address,uint256)": {
						"details": "See {IERC20-transferFrom}.     * Emits an {Approval} event indicating the updated allowance. This is not required by the EIP. See the note at the beginning of {ERC20};     * Requirements: - `sender` and `recipient` cannot be the zero address. - `sender` must have a balance of at least `amount`. - the caller must have allowance for `sender`'s tokens of at least `amount`."
					}
				}
			},
			"evm": {
				"assembly": "    /* \"Challenge21/KaseiCoin.sol\":655:932  contract KaseiCoin is ERC20, ERC20Detailed, ERC20Mintable {... */\n  mstore(0x40, 0x80)\n    /* \"Challenge21/KaseiCoin.sol\":719:929  constructor (... */\n  callvalue\n    /* \"--CODEGEN--\":8:17   */\n  dup1\n    /* \"--CODEGEN--\":5:7   */\n  iszero\n  tag_1\n  jumpi\n    /* \"--CODEGEN--\":30:31   */\n  0x00\n    /* \"--CODEGEN--\":27:28   */\n  dup1\n    /* \"--CODEGEN--\":20:32   */\n  revert\n    /* \"--CODEGEN--\":5:7   */\ntag_1:\n    /* \"Challenge21/KaseiCoin.sol\":719:929  constructor (... */\n  pop\n  mload(0x40)\n  sub(codesize, bytecodeSize)\n  dup1\n  bytecodeSize\n  dup4\n  codecopy\n  dup2\n  add\n  dup1\n  0x40\n  mstore\n    /* \"--CODEGEN--\":13:15   */\n  0x60\n    /* \"--CODEGEN--\":8:11   */\n  dup2\n    /* \"--CODEGEN--\":5:16   */\n  lt\n    /* \"--CODEGEN--\":2:4   */\n  iszero\n  tag_2\n  jumpi\n    /* \"--CODEGEN--\":29:30   */\n  0x00\n    /* \"--CODEGEN--\":26:27   */\n  dup1\n    /* \"--CODEGEN--\":19:31   */\n  revert\n    /* \"--CODEGEN--\":2:4   */\ntag_2:\n    /* \"Challenge21/KaseiCoin.sol\":719:929  constructor (... */\n  dup2\n  add\n  swap1\n  dup1\n  dup1\n  mload\n    /* \"--CODEGEN--\":19:30   */\n  0x0100000000\n    /* \"--CODEGEN--\":14:17   */\n  dup2\n    /* \"--CODEGEN--\":11:31   */\n  gt\n    /* \"--CODEGEN--\":8:10   */\n  iszero\n  tag_3\n  jumpi\n    /* \"--CODEGEN--\":44:45   */\n  0x00\n    /* \"--CODEGEN--\":41:42   */\n  dup1\n    /* \"--CODEGEN--\":34:46   */\n  revert\n    /* \"--CODEGEN--\":8:10   */\ntag_3:\n    /* \"--CODEGEN--\":71:82   */\n  dup3\n    /* \"--CODEGEN--\":66:69   */\n  dup2\n    /* \"--CODEGEN--\":62:83   */\n  add\n    /* \"--CODEGEN--\":55:83   */\n  swap1\n  pop\n    /* \"--CODEGEN--\":123:127   */\n  0x20\n    /* \"--CODEGEN--\":118:121   */\n  dup2\n    /* \"--CODEGEN--\":114:128   */\n  add\n    /* \"--CODEGEN--\":159:168   */\n  dup5\n    /* \"--CODEGEN--\":141:157   */\n  dup2\n    /* \"--CODEGEN--\":138:169   */\n  gt\n    /* \"--CODEGEN--\":135:137   */\n  iszero\n  tag_4\n  jumpi\n    /* \"--CODEGEN--\":182:183   */\n  0x00\n    /* \"--CODEGEN--\":179:180   */\n  dup1\n    /* \"--CODEGEN--\":172:184   */\n  revert\n    /* \"--CODEGEN--\":135:137   */\ntag_4:\n    /* \"--CODEGEN--\":219:222   */\n  dup2\n    /* \"--CODEGEN--\":213:223   */\n  mload\n    /* \"--CODEGEN--\":330:339   */\n  dup6\n    /* \"--CODEGEN--\":325:326   */\n  0x01\n    /* \"--CODEGEN--\":311:323   */\n  dup3\n    /* \"--CODEGEN--\":307:327   */\n  mul\n    /* \"--CODEGEN--\":289:305   */\n  dup4\n    /* \"--CODEGEN--\":285:328   */\n  add\n    /* \"--CODEGEN--\":282:340   */\n  gt\n    /* \"--CODEGEN--\":261:272   */\n  0x0100000000\n    /* \"--CODEGEN--\":247:259   */\n  dup3\n    /* \"--CODEGEN--\":244:273   */\n  gt\n    /* \"--CODEGEN--\":233:348   */\n  or\n    /* \"--CODEGEN--\":230:232   */\n  iszero\n  tag_5\n  jumpi\n    /* \"--CODEGEN--\":361:362   */\n  0x00\n    /* \"--CODEGEN--\":358:359   */\n  dup1\n    /* \"--CODEGEN--\":351:363   */\n  revert\n    /* \"--CODEGEN--\":230:232   */\ntag_5:\n    /* \"--CODEGEN--\":0:372   */\n  pop\n  pop\n    /* \"Challenge21/KaseiCoin.sol\":719:929  constructor (... */\n  swap3\n  swap2\n  swap1\n  0x20\n  add\n  dup1\n  mload\n    /* \"--CODEGEN--\":19:30   */\n  0x0100000000\n    /* \"--CODEGEN--\":14:17   */\n  dup2\n    /* \"--CODEGEN--\":11:31   */\n  gt\n    /* \"--CODEGEN--\":8:10   */\n  iszero\n  tag_6\n  jumpi\n    /* \"--CODEGEN--\":44:45   */\n  0x00\n    /* \"--CODEGEN--\":41:42   */\n  dup1\n    /* \"--CODEGEN--\":34:46   */\n  revert\n    /* \"--CODEGEN--\":8:10   */\ntag_6:\n    /* \"--CODEGEN--\":71:82   */\n  dup3\n    /* \"--CODEGEN--\":66:69   */\n  dup2\n    /* \"--CODEGEN--\":62:83   */\n  add\n    /* \"--CODEGEN--\":55:83   */\n  swap1\n  pop\n    /* \"--CODEGEN--\":123:127   */\n  0x20\n    /* \"--CODEGEN--\":118:121   */\n  dup2\n    /* \"--CODEGEN--\":114:128   */\n  add\n    /* \"--CODEGEN--\":159:168   */\n  dup5\n    /* \"--CODEGEN--\":141:157   */\n  dup2\n    /* \"--CODEGEN--\":138:169   */\n  gt\n    /* \"--CODEGEN--\":135:137   */\n  iszero\n  tag_7\n  jumpi\n    /* \"--CODEGEN--\":182:183   */\n  0x00\n    /* \"--CODEGEN--\":179:180   */\n  dup1\n    /* \"--CODEGEN--\":172:184   */\n  revert\n    /* \"--CODEGEN--\":135:137   */\ntag_7:\n    /* \"--CODEGEN--\":219:222   */\n  dup2\n    /* \"--CODEGEN--\":213:223   */\n  mload\n    /* \"--CODEGEN--\":330:339   */\n  dup6\n    /* \"--CODEGEN--\":325:326   */\n  0x01\n    /* \"--CODEGEN--\":311:323   */\n  dup3\n    /* \"--CODEGEN--\":307:327   */\n  mul\n    /* \"--CODEGEN--\":289:305   */\n  dup4\n    /* \"--CODEGEN--\":285:328   */\n  add\n    /* \"--CODEGEN--\":282:340   */\n  gt\n    /* \"--CODEGEN--\":261:272   */\n  0x0100000000\n    /* \"--CODEGEN--\":247:259   */\n  dup3\n    /* \"--CODEGEN--\":244:273   */\n  gt\n    /* \"--CODEGEN--\":233:348   */\n  or\n    /* \"--CODEGEN--\":230:232   */\n  iszero\n  tag_8\n  jumpi\n    /* \"--CODEGEN--\":361:362   */\n  0x00\n    /* \"--CODEGEN--\":358:359   */\n  dup1\n    /* \"--CODEGEN--\":351:363   */\n  revert\n    /* \"--CODEGEN--\":230:232   */\ntag_8:\n    /* \"--CODEGEN--\":0:372   */\n  pop\n  pop\n    /* \"Challenge21/KaseiCoin.sol\":719:929  constructor (... */\n  swap3\n  swap2\n  swap1\n  0x20\n  add\n  dup1\n  mload\n  swap1\n  0x20\n  add\n  swap1\n  swap3\n  swap2\n  swap1\n  pop\n  pop\n  pop\n    /* \"Challenge21/KaseiCoin.sol\":847:851  name */\n  dup3\n    /* \"Challenge21/KaseiCoin.sol\":853:859  symbol */\n  dup3\n    /* \"Challenge21/KaseiCoin.sol\":861:863  18 */\n  0x12\n    /* \"https://github.com/OpenZeppelin/openzeppelin-contracts/blob/release-v2.5.0/contracts/token/ERC20/ERC20Detailed.sol\":512:516  name */\n  dup3\n    /* \"https://github.com/OpenZeppelin/openzeppelin-contracts/blob/release-v2.5.0/contracts/token/ERC20/ERC20Detailed.sol\":504:509  _name */\n  0x03\n    /* \"https://github.com/OpenZeppelin/openzeppelin-contracts/blob/release-v2.5.0/contracts/token/ERC20/ERC20Detailed.sol\":504:516  _name = name */\n  swap1\n  dup1\n  mload\n  swap1\n  0x20\n  add\n  swap1\n  tag_15\n  swap3\n  swap2\n  swap1\n  tag_16\n  jump\t// in\ntag_15:\n  pop\n    /* \"https://github.com/OpenZeppelin/openzeppelin-contracts/blob/release-v2.5.0/contracts/token/ERC20/ERC20Detailed.sol\":536:542  symbol */\n  dup2\n    /* \"https://github.com/OpenZeppelin/openzeppelin-contracts/blob/release-v2.5.0/contracts/token/ERC20/ERC20Detailed.sol\":526:533  _symbol */\n  0x04\n    /* \"https://github.com/OpenZeppelin/openzeppelin-contracts/blob/release-v2.5.0/contracts/token/ERC20/ERC20Detailed.sol\":526:542  _symbol = symbol */\n  swap1\n  dup1\n  mload\n  swap1\n  0x20\n  add\n  swap1\n  tag_17\n  swap3\n  swap2\n  swap1\n  tag_16\n  jump\t// in\ntag_17:\n  pop\n    /* \"https://github.com/OpenZeppelin/openzeppelin-contracts/blob/release-v2.5.0/contracts/token/ERC20/ERC20Detailed.sol\":564:572  decimals */\n  dup1\n    /* \"https://github.com/OpenZeppelin/openzeppelin-contracts/blob/release-v2.5.0/contracts/token/ERC20/ERC20Detailed.sol\":552:561  _decimals */\n  0x05\n  0x00\n    /* \"https://github.com/OpenZeppelin/openzeppelin-contracts/blob/release-v2.5.0/contracts/token/ERC20/ERC20Detailed.sol\":552:572  _decimals = decimals */\n  0x0100\n  exp\n  dup2\n  sload\n  dup2\n  0xff\n  mul\n  not\n  and\n  swap1\n  dup4\n  0xff\n  and\n  mul\n  or\n  swap1\n  sstore\n  pop\n    /* \"https://github.com/OpenZeppelin/openzeppelin-contracts/blob/release-v2.5.0/contracts/token/ERC20/ERC20Detailed.sol\":416:579  constructor (string memory name, string memory symbol, uint8 decimals) public {... */\n  pop\n  pop\n  pop\n    /* \"https://github.com/OpenZeppelin/openzeppelin-contracts/blob/release-v2.5.0/contracts/access/roles/MinterRole.sol\":318:342  _addMinter(_msgSender()) */\n  tag_19\n    /* \"https://github.com/OpenZeppelin/openzeppelin-contracts/blob/release-v2.5.0/contracts/access/roles/MinterRole.sol\":329:341  _msgSender() */\n  tag_20\n    /* \"https://github.com/OpenZeppelin/openzeppelin-contracts/blob/release-v2.5.0/contracts/access/roles/MinterRole.sol\":329:339  _msgSender */\n  shl(0x20, tag_21)\n    /* \"https://github.com/OpenZeppelin/openzeppelin-contracts/blob/release-v2.5.0/contracts/access/roles/MinterRole.sol\":329:341  _msgSender() */\n  0x20\n  shr\n  jump\t// in\ntag_20:\n    /* \"https://github.com/OpenZeppelin/openzeppelin-contracts/blob/release-v2.5.0/contracts/access/roles/MinterRole.sol\":318:328  _addMinter */\n  shl(0x20, tag_22)\n    /* \"https://github.com/OpenZeppelin/openzeppelin-contracts/blob/release-v2.5.0/contracts/access/roles/MinterRole.sol\":318:342  _addMinter(_msgSender()) */\n  0x20\n  shr\n  jump\t// in\ntag_19:\n    /* \"Challenge21/KaseiCoin.sol\":719:929  constructor (... */\n  pop\n  pop\n  pop\n    /* \"Challenge21/KaseiCoin.sol\":655:932  contract KaseiCoin is ERC20, ERC20Detailed, ERC20Mintable {... */\n  jump(tag_24)\n    /* \"https://github.com/OpenZeppelin/openzeppelin-contracts/blob/release-v2.5.0/contracts/GSN/Context.sol\":788:884  function _msgSender() internal view returns (address payable) {... */\ntag_21:\n    /* \"https://github.com/OpenZeppelin/openzeppelin-contracts/blob/release-v2.5.0/contracts/GSN/Context.sol\":833:848  address payable */\n  0x00\n    /* \"https://github.com/OpenZeppelin/openzeppelin-contracts/blob/release-v2.5.0/contracts/GSN/Context.sol\":867:877  msg.sender */\n  caller\n    /* \"https://github.com/OpenZeppelin/openzeppelin-contracts/blob/release-v2.5.0/contracts/GSN/Context.sol\":860:877  return msg.sender */\n  swap1\n  pop\n    /* \"https://github.com/OpenZeppelin/openzeppelin-contracts/blob/release-v2.5.0/contracts/GSN/Context.sol\":788:884  function _msgSender() internal view returns (address payable) {... */\n  swap1\n  jump\t// out\n    /* \"https://github.com/OpenZeppelin/openzeppelin-contracts/blob/release-v2.5.0/contracts/access/roles/MinterRole.sol\":786:905  function _addMinter(address account) internal {... */\ntag_22:\n    /* \"https://github.com/OpenZeppelin/openzeppelin-contracts/blob/release-v2.5.0/contracts/access/roles/MinterRole.sol\":842:863  _minters.add(account) */\n  tag_27\n    /* \"https://github.com/OpenZeppelin/openzeppelin-contracts/blob/release-v2.5.0/contracts/access/roles/MinterRole.sol\":855:862  account */\n  dup2\n    /* \"https://github.com/OpenZeppelin/openzeppelin-contracts/blob/release-v2.5.0/contracts/access/roles/MinterRole.sol\":842:850  _minters */\n  0x06\n    /* \"https://github.com/OpenZeppelin/openzeppelin-contracts/blob/release-v2.5.0/contracts/access/roles/MinterRole.sol\":842:854  _minters.add */\n  or(tag_0_152, shl(0x20, tag_28))\n  swap1\n    /* \"https://github.com/OpenZeppelin/openzeppelin-contracts/blob/release-v2.5.0/contracts/access/roles/MinterRole.sol\":842:863  _minters.add(account) */\n  swap2\n  swap1\n  0x20\n  shr\n  jump\t// in\ntag_27:\n    /* \"https://github.com/OpenZeppelin/openzeppelin-contracts/blob/release-v2.5.0/contracts/access/roles/MinterRole.sol\":890:897  account */\n  dup1\n    /* \"https://github.com/OpenZeppelin/openzeppelin-contracts/blob/release-v2.5.0/contracts/access/roles/MinterRole.sol\":878:898  MinterAdded(account) */\n  0xffffffffffffffffffffffffffffffffffffffff\n  and\n  0x6ae172837ea30b801fbfcdd4108aa1d5bf8ff775444fd70256b44e6bf3dfc3f6\n  mload(0x40)\n  mload(0x40)\n  dup1\n  swap2\n  sub\n  swap1\n  log2\n    /* \"https://github.com/OpenZeppelin/openzeppelin-contracts/blob/release-v2.5.0/contracts/access/roles/MinterRole.sol\":786:905  function _addMinter(address account) internal {... */\n  pop\n  jump\t// out\n    /* \"https://github.com/OpenZeppelin/openzeppelin-contracts/blob/release-v2.5.0/contracts/access/Roles.sol\":260:435  function add(Role storage role, address account) internal {... */\ntag_28:\n    /* \"https://github.com/OpenZeppelin/openzeppelin-contracts/blob/release-v2.5.0/contracts/access/Roles.sol\":337:355  has(role, account) */\n  tag_30\n    /* \"https://github.com/OpenZeppelin/openzeppelin-contracts/blob/release-v2.5.0/contracts/access/Roles.sol\":341:345  role */\n  dup3\n    /* \"https://github.com/OpenZeppelin/openzeppelin-contracts/blob/release-v2.5.0/contracts/access/Roles.sol\":347:354  account */\n  dup3\n    /* \"https://github.com/OpenZeppelin/openzeppelin-contracts/blob/release-v2.5.0/contracts/access/Roles.sol\":337:340  has */\n  shl(0x20, tag_31)\n    /* \"https://github.com/OpenZeppelin/openzeppelin-contracts/blob/release-v2.5.0/contracts/access/Roles.sol\":337:355  has(role, account) */\n  0x20\n  shr\n  jump\t// in\ntag_30:\n    /* \"https://github.com/OpenZeppelin/openzeppelin-contracts/blob/release-v2.5.0/contracts/access/Roles.sol\":336:355  !has(role, account) */\n  iszero\n    /* \"https://github.com/OpenZeppelin/openzeppelin-contracts/blob/release-v2.5.0/contracts/access/Roles.sol\":328:391  require(!has(role, account), \"Roles: account already has role\") */\n  iszero\n  iszero\n  tag_32\n  jumpi\n  mload(0x40)\n  0x08c379a000000000000000000000000000000000000000000000000000000000\n  dup2\n  mstore\n  0x04\n  add\n  dup1\n  dup1\n  0x20\n  add\n  dup3\n  dup2\n  sub\n  dup3\n  mstore\n  0x1f\n  dup2\n  mstore\n  0x20\n  add\n  dup1\n  0x526f6c65733a206163636f756e7420616c72656164792068617320726f6c6500\n  dup2\n  mstore\n  pop\n  0x20\n  add\n  swap2\n  pop\n  pop\n  mload(0x40)\n  dup1\n  swap2\n  sub\n  swap1\n  revert\ntag_32:\n    /* \"https://github.com/OpenZeppelin/openzeppelin-contracts/blob/release-v2.5.0/contracts/access/Roles.sol\":424:428  true */\n  0x01\n    /* \"https://github.com/OpenZeppelin/openzeppelin-contracts/blob/release-v2.5.0/contracts/access/Roles.sol\":401:405  role */\n  dup3\n    /* \"https://github.com/OpenZeppelin/openzeppelin-contracts/blob/release-v2.5.0/contracts/access/Roles.sol\":401:412  role.bearer */\n  0x00\n  add\n    /* \"https://github.com/OpenZeppelin/openzeppelin-contracts/blob/release-v2.5.0/contracts/access/Roles.sol\":401:421  role.bearer[account] */\n  0x00\n    /* \"https://github.com/OpenZeppelin/openzeppelin-contracts/blob/release-v2.5.0/contracts/access/Roles.sol\":413:420  account */\n  dup4\n    /* \"https://github.com/OpenZeppelin/openzeppelin-contracts/blob/release-v2.5.0/contracts/access/Roles.sol\":401:421  role.bearer[account] */\n  0xffffffffffffffffffffffffffffffffffffffff\n  and\n  0xffffffffffffffffffffffffffffffffffffffff\n  and\n  dup2\n  mstore\n  0x20\n  add\n  swap1\n  dup2\n  mstore\n  0x20\n  add\n  0x00\n  keccak256\n  0x00\n    /* \"https://github.com/OpenZeppelin/openzeppelin-contracts/blob/release-v2.5.0/contracts/access/Roles.sol\":401:428  role.bearer[account] = true */\n  0x0100\n  exp\n  dup2\n  sload\n  dup2\n  0xff\n  mul\n  not\n  and\n  swap1\n  dup4\n  iszero\n  iszero\n  mul\n  or\n  swap1\n  sstore\n  pop\n    /* \"https://github.com/OpenZeppelin/openzeppelin-contracts/blob/release-v2.5.0/contracts/access/Roles.sol\":260:435  function add(Role storage role, address account) internal {... */\n  pop\n  pop\n  jump\t// out\n    /* \"https://github.com/OpenZeppelin/openzeppelin-contracts/blob/release-v2.5.0/contracts/access/Roles.sol\":779:979  function has(Role storage role, address account) internal view returns (bool) {... */\ntag_31:\n    /* \"https://github.com/OpenZeppelin/openzeppelin-contracts/blob/release-v2.5.0/contracts/access/Roles.sol\":851:855  bool */\n  0x00\n    /* \"https://github.com/OpenZeppelin/openzeppelin-contracts/blob/release-v2.5.0/contracts/access/Roles.sol\":894:895  0 */\n  dup1\n    /* \"https://github.com/OpenZeppelin/openzeppelin-contracts/blob/release-v2.5.0/contracts/access/Roles.sol\":875:896  account != address(0) */\n  0xffffffffffffffffffffffffffffffffffffffff\n  and\n    /* \"https://github.com/OpenZeppelin/openzeppelin-contracts/blob/release-v2.5.0/contracts/access/Roles.sol\":875:882  account */\n  dup3\n    /* \"https://github.com/OpenZeppelin/openzeppelin-contracts/blob/release-v2.5.0/contracts/access/Roles.sol\":875:896  account != address(0) */\n  0xffffffffffffffffffffffffffffffffffffffff\n  and\n  eq\n  iszero\n    /* \"https://github.com/OpenZeppelin/openzeppelin-contracts/blob/release-v2.5.0/contracts/access/Roles.sol\":867:935  require(account != address(0), \"Roles: account is the zero address\") */\n  iszero\n  iszero\n  tag_34\n  jumpi\n  mload(0x40)\n  0x08c379a000000000000000000000000000000000000000000000000000000000\n  dup2\n  mstore\n  0x04\n  add\n  dup1\n  dup1\n  0x20\n  add\n  dup3\n  dup2\n  sub\n  dup3\n  mstore\n  0x22\n  dup2\n  mstore\n  0x20\n  add\n  dup1\n  data_9d214fa89563f4e6456a3929327e54500ea1cde2c0ba9fb2035ec106190d682f\n  0x22\n  swap2\n  codecopy\n  0x40\n  add\n  swap2\n  pop\n  pop\n  mload(0x40)\n  dup1\n  swap2\n  sub\n  swap1\n  revert\ntag_34:\n    /* \"https://github.com/OpenZeppelin/openzeppelin-contracts/blob/release-v2.5.0/contracts/access/Roles.sol\":952:956  role */\n  dup3\n    /* \"https://github.com/OpenZeppelin/openzeppelin-contracts/blob/release-v2.5.0/contracts/access/Roles.sol\":952:963  role.bearer */\n  0x00\n  add\n    /* \"https://github.com/OpenZeppelin/openzeppelin-contracts/blob/release-v2.5.0/contracts/access/Roles.sol\":952:972  role.bearer[account] */\n  0x00\n    /* \"https://github.com/OpenZeppelin/openzeppelin-contracts/blob/release-v2.5.0/contracts/access/Roles.sol\":964:971  account */\n  dup4\n    /* \"https://github.com/OpenZeppelin/openzeppelin-contracts/blob/release-v2.5.0/contracts/access/Roles.sol\":952:972  role.bearer[account] */\n  0xffffffffffffffffffffffffffffffffffffffff\n  and\n  0xffffffffffffffffffffffffffffffffffffffff\n  and\n  dup2\n  mstore\n  0x20\n  add\n  swap1\n  dup2\n  mstore\n  0x20\n  add\n  0x00\n  keccak256\n  0x00\n  swap1\n  sload\n  swap1\n  0x0100\n  exp\n  swap1\n  div\n  0xff\n  and\n    /* \"https://github.com/OpenZeppelin/openzeppelin-contracts/blob/release-v2.5.0/contracts/access/Roles.sol\":945:972  return role.bearer[account] */\n  swap1\n  pop\n    /* \"https://github.com/OpenZeppelin/openzeppelin-contracts/blob/release-v2.5.0/contracts/access/Roles.sol\":779:979  function has(Role storage role, address account) internal view returns (bool) {... */\n  swap3\n  swap2\n  pop\n  pop\n  jump\t// out\n    /* \"Challenge21/KaseiCoin.sol\":655:932  contract KaseiCoin is ERC20, ERC20Detailed, ERC20Mintable {... */\ntag_16:\n  dup3\n  dup1\n  sload\n  0x01\n  dup2\n  0x01\n  and\n  iszero\n  0x0100\n  mul\n  sub\n  and\n  0x02\n  swap1\n  div\n  swap1\n  0x00\n  mstore\n  keccak256(0x00, 0x20)\n  swap1\n  0x1f\n  add\n  0x20\n  swap1\n  div\n  dup2\n  add\n  swap3\n  dup3\n  0x1f\n  lt\n  tag_36\n  jumpi\n  dup1\n  mload\n  not(0xff)\n  and\n  dup4\n  dup1\n  add\n  or\n  dup6\n  sstore\n  jump(tag_35)\ntag_36:\n  dup3\n  dup1\n  add\n  0x01\n  add\n  dup6\n  sstore\n  dup3\n  iszero\n  tag_35\n  jumpi\n  swap2\n  dup3\n  add\ntag_37:\n  dup3\n  dup2\n  gt\n  iszero\n  tag_38\n  jumpi\n  dup3\n  mload\n  dup3\n  sstore\n  swap2\n  0x20\n  add\n  swap2\n  swap1\n  0x01\n  add\n  swap1\n  jump(tag_37)\ntag_38:\ntag_35:\n  pop\n  swap1\n  pop\n  tag_39\n  swap2\n  swap1\n  tag_40\n  jump\t// in\ntag_39:\n  pop\n  swap1\n  jump\t// out\ntag_40:\n  tag_41\n  swap2\n  swap1\ntag_42:\n  dup1\n  dup3\n  gt\n  iszero\n  tag_43\n  jumpi\n  0x00\n  dup2\n  0x00\n  swap1\n  sstore\n  pop\n  0x01\n  add\n  jump(tag_42)\ntag_43:\n  pop\n  swap1\n  jump\ntag_41:\n  swap1\n  jump\t// out\ntag_24:\n  dataSize(sub_0)\n  dup1\n  dataOffset(sub_0)\n  0x00\n  codecopy\n  0x00\n  return\nstop\ndata_9d214fa89563f4e6456a3929327e54500ea1cde2c0ba9fb2035ec106190d682f 526f6c65733a206163636f756e7420697320746865207a65726f2061646472657373\n\nsub_0: assembly {\n        /* \"Challenge21/KaseiCoin.sol\":655:932  contract KaseiCoin is ERC20, ERC20Detailed, ERC20Mintable {... */\n      mstore(0x40, 0x80)\n      callvalue\n        /* \"--CODEGEN--\":8:17   */\n      dup1\n        /* \"--CODEGEN--\":5:7   */\n      iszero\n      tag_1\n      jumpi\n        /* \"--CODEGEN--\":30:31   */\n      0x00\n        /* \"--CODEGEN--\":27:28   */\n      dup1\n        /* \"--CODEGEN--\":20:32   */\n      revert\n        /* \"--CODEGEN--\":5:7   */\n    tag_1:\n        /* \"Challenge21/KaseiCoin.sol\":655:932  contract KaseiCoin is ERC20, ERC20Detailed, ERC20Mintable {... */\n      pop\n      jumpi(tag_2, lt(calldatasize, 0x04))\n      shr(0xe0, calldataload(0x00))\n      dup1\n      0x70a08231\n      gt\n      tag_18\n      jumpi\n      dup1\n      0xa457c2d7\n      gt\n      tag_19\n      jumpi\n      dup1\n      0xa457c2d7\n      eq\n      tag_14\n      jumpi\n      dup1\n      0xa9059cbb\n      eq\n      tag_15\n      jumpi\n      dup1\n      0xaa271e1a\n      eq\n      tag_16\n      jumpi\n      dup1\n      0xdd62ed3e\n      eq\n      tag_17\n      jumpi\n      jump(tag_2)\n    tag_19:\n      dup1\n      0x70a08231\n      eq\n      tag_10\n      jumpi\n      dup1\n      0x95d89b41\n      eq\n      tag_11\n      jumpi\n      dup1\n      0x983b2d56\n      eq\n      tag_12\n      jumpi\n      dup1\n      0x98650275\n      eq\n      tag_13\n      jumpi\n      jump(tag_2)\n    tag_18:\n      dup1\n      0x23b872dd\n      gt\n      tag_20\n      jumpi\n      dup1\n      0x23b872dd\n      eq\n      tag_6\n      jumpi\n      dup1\n      0x313ce567\n      eq\n      tag_7\n      jumpi\n      dup1\n      0x39509351\n      eq\n      tag_8\n      jumpi\n      dup1\n      0x40c10f19\n      eq\n      tag_9\n      jumpi\n      jump(tag_2)\n    tag_20:\n      dup1\n      0x06fdde03\n      eq\n      tag_3\n      jumpi\n      dup1\n      0x095ea7b3\n      eq\n      tag_4\n      jumpi\n      dup1\n      0x18160ddd\n      eq\n      tag_5\n      jumpi\n    tag_2:\n      0x00\n      dup1\n      revert\n        /* \"https://github.com/OpenZeppelin/openzeppelin-contracts/blob/release-v2.5.0/contracts/token/ERC20/ERC20Detailed.sol\":644:725  function name() public view returns (string memory) {... */\n    tag_3:\n      tag_21\n      tag_22\n      jump\t// in\n    tag_21:\n      mload(0x40)\n      dup1\n      dup1\n      0x20\n      add\n      dup3\n      dup2\n      sub\n      dup3\n      mstore\n      dup4\n      dup2\n      dup2\n      mload\n      dup2\n      mstore\n      0x20\n      add\n      swap2\n      pop\n      dup1\n      mload\n      swap1\n      0x20\n      add\n      swap1\n      dup1\n      dup4\n      dup4\n        /* \"--CODEGEN--\":23:24   */\n      0x00\n        /* \"--CODEGEN--\":8:108   */\n    tag_23:\n        /* \"--CODEGEN--\":33:36   */\n      dup4\n        /* \"--CODEGEN--\":30:31   */\n      dup2\n        /* \"--CODEGEN--\":27:37   */\n      lt\n        /* \"--CODEGEN--\":8:108   */\n      iszero\n      tag_24\n      jumpi\n        /* \"--CODEGEN--\":99:100   */\n      dup1\n        /* \"--CODEGEN--\":94:97   */\n      dup3\n        /* \"--CODEGEN--\":90:101   */\n      add\n        /* \"--CODEGEN--\":84:102   */\n      mload\n        /* \"--CODEGEN--\":80:81   */\n      dup2\n        /* \"--CODEGEN--\":75:78   */\n      dup5\n        /* \"--CODEGEN--\":71:82   */\n      add\n        /* \"--CODEGEN--\":64:103   */\n      mstore\n        /* \"--CODEGEN--\":52:54   */\n      0x20\n        /* \"--CODEGEN--\":49:50   */\n      dup2\n        /* \"--CODEGEN--\":45:55   */\n      add\n        /* \"--CODEGEN--\":40:55   */\n      swap1\n      pop\n        /* \"--CODEGEN--\":8:108   */\n      jump(tag_23)\n    tag_24:\n        /* \"--CODEGEN--\":12:26   */\n      pop\n        /* \"https://github.com/OpenZeppelin/openzeppelin-contracts/blob/release-v2.5.0/contracts/token/ERC20/ERC20Detailed.sol\":644:725  function name() public view returns (string memory) {... */\n      pop\n      pop\n      pop\n      swap1\n      pop\n      swap1\n      dup2\n      add\n      swap1\n      0x1f\n      and\n      dup1\n      iszero\n      tag_26\n      jumpi\n      dup1\n      dup3\n      sub\n      dup1\n      mload\n      0x01\n      dup4\n      0x20\n      sub\n      0x0100\n      exp\n      sub\n      not\n      and\n      dup2\n      mstore\n      0x20\n      add\n      swap2\n      pop\n    tag_26:\n      pop\n      swap3\n      pop\n      pop\n      pop\n      mload(0x40)\n      dup1\n      swap2\n      sub\n      swap1\n      return\n        /* \"https://github.com/OpenZeppelin/openzeppelin-contracts/blob/release-v2.5.0/contracts/token/ERC20/ERC20.sol\":2500:2649  function approve(address spender, uint256 amount) public returns (bool) {... */\n    tag_4:\n      tag_27\n      0x04\n      dup1\n      calldatasize\n      sub\n        /* \"--CODEGEN--\":13:15   */\n      0x40\n        /* \"--CODEGEN--\":8:11   */\n      dup2\n        /* \"--CODEGEN--\":5:16   */\n      lt\n        /* \"--CODEGEN--\":2:4   */\n      iszero\n      tag_28\n      jumpi\n        /* \"--CODEGEN--\":29:30   */\n      0x00\n        /* \"--CODEGEN--\":26:27   */\n      dup1\n        /* \"--CODEGEN--\":19:31   */\n      revert\n        /* \"--CODEGEN--\":2:4   */\n    tag_28:\n        /* \"https://github.com/OpenZeppelin/openzeppelin-contracts/blob/release-v2.5.0/contracts/token/ERC20/ERC20.sol\":2500:2649  function approve(address spender, uint256 amount) public returns (bool) {... */\n      dup2\n      add\n      swap1\n      dup1\n      dup1\n      calldataload\n      0xffffffffffffffffffffffffffffffffffffffff\n      and\n      swap1\n      0x20\n      add\n      swap1\n      swap3\n      swap2\n      swap1\n      dup1\n      calldataload\n      swap1\n      0x20\n      add\n      swap1\n      swap3\n      swap2\n      swap1\n      pop\n      pop\n      pop\n      tag_29\n      jump\t// in\n    tag_27:\n      mload(0x40)\n      dup1\n      dup3\n      iszero\n      iszero\n      iszero\n      iszero\n      dup2\n      mstore\n      0x20\n      add\n      swap2\n      pop\n      pop\n      mload(0x40)\n      dup1\n      swap2\n      sub\n      swap1\n      return\n        /* \"https://github.com/OpenZeppelin/openzeppelin-contracts/blob/release-v2.5.0/contracts/token/ERC20/ERC20.sol\":1559:1648  function totalSupply() public view returns (uint256) {... */\n    tag_5:\n      tag_30\n      tag_31\n      jump\t// in\n    tag_30:\n      mload(0x40)\n      dup1\n      dup3\n      dup2\n      mstore\n      0x20\n      add\n      swap2\n      pop\n      pop\n      mload(0x40)\n      dup1\n      swap2\n      sub\n      swap1\n      return\n        /* \"https://github.com/OpenZeppelin/openzeppelin-contracts/blob/release-v2.5.0/contracts/token/ERC20/ERC20.sol\":3107:3407  function transferFrom(address sender, address recipient, uint256 amount) public returns (bool) {... */\n    tag_6:\n      tag_32\n      0x04\n      dup1\n      calldatasize\n      sub\n        /* \"--CODEGEN--\":13:15   */\n      0x60\n        /* \"--CODEGEN--\":8:11   */\n      dup2\n        /* \"--CODEGEN--\":5:16   */\n      lt\n        /* \"--CODEGEN--\":2:4   */\n      iszero\n      tag_33\n      jumpi\n        /* \"--CODEGEN--\":29:30   */\n      0x00\n        /* \"--CODEGEN--\":26:27   */\n      dup1\n        /* \"--CODEGEN--\":19:31   */\n      revert\n        /* \"--CODEGEN--\":2:4   */\n    tag_33:\n        /* \"https://github.com/OpenZeppelin/openzeppelin-contracts/blob/release-v2.5.0/contracts/token/ERC20/ERC20.sol\":3107:3407  function transferFrom(address sender, address recipient, uint256 amount) public returns (bool) {... */\n      dup2\n      add\n      swap1\n      dup1\n      dup1\n      calldataload\n      0xffffffffffffffffffffffffffffffffffffffff\n      and\n      swap1\n      0x20\n      add\n      swap1\n      swap3\n      swap2\n      swap1\n      dup1\n      calldataload\n      0xffffffffffffffffffffffffffffffffffffffff\n      and\n      swap1\n      0x20\n      add\n      swap1\n      swap3\n      swap2\n      swap1\n      dup1\n      calldataload\n      swap1\n      0x20\n      add\n      swap1\n      swap3\n      swap2\n      swap1\n      pop\n      pop\n      pop\n      tag_34\n      jump\t// in\n    tag_32:\n      mload(0x40)\n      dup1\n      dup3\n      iszero\n      iszero\n      iszero\n      iszero\n      dup2\n      mstore\n      0x20\n      add\n      swap2\n      pop\n      pop\n      mload(0x40)\n      dup1\n      swap2\n      sub\n      swap1\n      return\n        /* \"https://github.com/OpenZeppelin/openzeppelin-contracts/blob/release-v2.5.0/contracts/token/ERC20/ERC20Detailed.sol\":1472:1553  function decimals() public view returns (uint8) {... */\n    tag_7:\n      tag_35\n      tag_36\n      jump\t// in\n    tag_35:\n      mload(0x40)\n      dup1\n      dup3\n      0xff\n      and\n      0xff\n      and\n      dup2\n      mstore\n      0x20\n      add\n      swap2\n      pop\n      pop\n      mload(0x40)\n      dup1\n      swap2\n      sub\n      swap1\n      return\n        /* \"https://github.com/OpenZeppelin/openzeppelin-contracts/blob/release-v2.5.0/contracts/token/ERC20/ERC20.sol\":3802:4009  function increaseAllowance(address spender, uint256 addedValue) public returns (bool) {... */\n    tag_8:\n      tag_37\n      0x04\n      dup1\n      calldatasize\n      sub\n        /* \"--CODEGEN--\":13:15   */\n      0x40\n        /* \"--CODEGEN--\":8:11   */\n      dup2\n        /* \"--CODEGEN--\":5:16   */\n      lt\n        /* \"--CODEGEN--\":2:4   */\n      iszero\n      tag_38\n      jumpi\n        /* \"--CODEGEN--\":29:30   */\n      0x00\n        /* \"--CODEGEN--\":26:27   */\n      dup1\n        /* \"--CODEGEN--\":19:31   */\n      revert\n        /* \"--CODEGEN--\":2:4   */\n    tag_38:\n        /* \"https://github.com/OpenZeppelin/openzeppelin-contracts/blob/release-v2.5.0/contracts/token/ERC20/ERC20.sol\":3802:4009  function increaseAllowance(address spender, uint256 addedValue) public returns (bool) {... */\n      dup2\n      add\n      swap1\n      dup1\n      dup1\n      calldataload\n      0xffffffffffffffffffffffffffffffffffffffff\n      and\n      swap1\n      0x20\n      add\n      swap1\n      swap3\n      swap2\n      swap1\n      dup1\n      calldataload\n      swap1\n      0x20\n      add\n      swap1\n      swap3\n      swap2\n      swap1\n      pop\n      pop\n      pop\n      tag_39\n      jump\t// in\n    tag_37:\n      mload(0x40)\n      dup1\n      dup3\n      iszero\n      iszero\n      iszero\n      iszero\n      dup2\n      mstore\n      0x20\n      add\n      swap2\n      pop\n      pop\n      mload(0x40)\n      dup1\n      swap2\n      sub\n      swap1\n      return\n        /* \"https://github.com/OpenZeppelin/openzeppelin-contracts/blob/release-v2.5.0/contracts/token/ERC20/ERC20Mintable.sol\":502:642  function mint(address account, uint256 amount) public onlyMinter returns (bool) {... */\n    tag_9:\n      tag_40\n      0x04\n      dup1\n      calldatasize\n      sub\n        /* \"--CODEGEN--\":13:15   */\n      0x40\n        /* \"--CODEGEN--\":8:11   */\n      dup2\n        /* \"--CODEGEN--\":5:16   */\n      lt\n        /* \"--CODEGEN--\":2:4   */\n      iszero\n      tag_41\n      jumpi\n        /* \"--CODEGEN--\":29:30   */\n      0x00\n        /* \"--CODEGEN--\":26:27   */\n      dup1\n        /* \"--CODEGEN--\":19:31   */\n      revert\n        /* \"--CODEGEN--\":2:4   */\n    tag_41:\n        /* \"https://github.com/OpenZeppelin/openzeppelin-contracts/blob/release-v2.5.0/contracts/token/ERC20/ERC20Mintable.sol\":502:642  function mint(address account, uint256 amount) public onlyMinter returns (bool) {... */\n      dup2\n      add\n      swap1\n      dup1\n      dup1\n      calldataload\n      0xffffffffffffffffffffffffffffffffffffffff\n      and\n      swap1\n      0x20\n      add\n      swap1\n      swap3\n      swap2\n      swap1\n      dup1\n      calldataload\n      swap1\n      0x20\n      add\n      swap1\n      swap3\n      swap2\n      swap1\n      pop\n      pop\n      pop\n      tag_42\n      jump\t// in\n    tag_40:\n      mload(0x40)\n      dup1\n      dup3\n      iszero\n      iszero\n      iszero\n      iszero\n      dup2\n      mstore\n      0x20\n      add\n      swap2\n      pop\n      pop\n      mload(0x40)\n      dup1\n      swap2\n      sub\n      swap1\n      return\n        /* \"https://github.com/OpenZeppelin/openzeppelin-contracts/blob/release-v2.5.0/contracts/token/ERC20/ERC20.sol\":1706:1814  function balanceOf(address account) public view returns (uint256) {... */\n    tag_10:\n      tag_43\n      0x04\n      dup1\n      calldatasize\n      sub\n        /* \"--CODEGEN--\":13:15   */\n      0x20\n        /* \"--CODEGEN--\":8:11   */\n      dup2\n        /* \"--CODEGEN--\":5:16   */\n      lt\n        /* \"--CODEGEN--\":2:4   */\n      iszero\n      tag_44\n      jumpi\n        /* \"--CODEGEN--\":29:30   */\n      0x00\n        /* \"--CODEGEN--\":26:27   */\n      dup1\n        /* \"--CODEGEN--\":19:31   */\n      revert\n        /* \"--CODEGEN--\":2:4   */\n    tag_44:\n        /* \"https://github.com/OpenZeppelin/openzeppelin-contracts/blob/release-v2.5.0/contracts/token/ERC20/ERC20.sol\":1706:1814  function balanceOf(address account) public view returns (uint256) {... */\n      dup2\n      add\n      swap1\n      dup1\n      dup1\n      calldataload\n      0xffffffffffffffffffffffffffffffffffffffff\n      and\n      swap1\n      0x20\n      add\n      swap1\n      swap3\n      swap2\n      swap1\n      pop\n      pop\n      pop\n      tag_45\n      jump\t// in\n    tag_43:\n      mload(0x40)\n      dup1\n      dup3\n      dup2\n      mstore\n      0x20\n      add\n      swap2\n      pop\n      pop\n      mload(0x40)\n      dup1\n      swap2\n      sub\n      swap1\n      return\n        /* \"https://github.com/OpenZeppelin/openzeppelin-contracts/blob/release-v2.5.0/contracts/token/ERC20/ERC20Detailed.sol\":838:923  function symbol() public view returns (string memory) {... */\n    tag_11:\n      tag_46\n      tag_47\n      jump\t// in\n    tag_46:\n      mload(0x40)\n      dup1\n      dup1\n      0x20\n      add\n      dup3\n      dup2\n      sub\n      dup3\n      mstore\n      dup4\n      dup2\n      dup2\n      mload\n      dup2\n      mstore\n      0x20\n      add\n      swap2\n      pop\n      dup1\n      mload\n      swap1\n      0x20\n      add\n      swap1\n      dup1\n      dup4\n      dup4\n        /* \"--CODEGEN--\":23:24   */\n      0x00\n        /* \"--CODEGEN--\":8:108   */\n    tag_48:\n        /* \"--CODEGEN--\":33:36   */\n      dup4\n        /* \"--CODEGEN--\":30:31   */\n      dup2\n        /* \"--CODEGEN--\":27:37   */\n      lt\n        /* \"--CODEGEN--\":8:108   */\n      iszero\n      tag_49\n      jumpi\n        /* \"--CODEGEN--\":99:100   */\n      dup1\n        /* \"--CODEGEN--\":94:97   */\n      dup3\n        /* \"--CODEGEN--\":90:101   */\n      add\n        /* \"--CODEGEN--\":84:102   */\n      mload\n        /* \"--CODEGEN--\":80:81   */\n      dup2\n        /* \"--CODEGEN--\":75:78   */\n      dup5\n        /* \"--CODEGEN--\":71:82   */\n      add\n        /* \"--CODEGEN--\":64:103   */\n      mstore\n        /* \"--CODEGEN--\":52:54   */\n      0x20\n        /* \"--CODEGEN--\":49:50   */\n      dup2\n        /* \"--CODEGEN--\":45:55   */\n      add\n        /* \"--CODEGEN--\":40:55   */\n      swap1\n      pop\n        /* \"--CODEGEN--\":8:108   */\n      jump(tag_48)\n    tag_49:\n        /* \"--CODEGEN--\":12:26   */\n      pop\n        /* \"https://github.com/OpenZeppelin/openzeppelin-contracts/blob/release-v2.5.0/contracts/token/ERC20/ERC20Detailed.sol\":838:923  function symbol() public view returns (string memory) {... */\n      pop\n      pop\n      pop\n      swap1\n      pop\n      swap1\n      dup2\n      add\n      swap1\n      0x1f\n      and\n      dup1\n      iszero\n      tag_51\n      jumpi\n      dup1\n      dup3\n      sub\n      dup1\n      mload\n      0x01\n      dup4\n      0x20\n      sub\n      0x0100\n      exp\n      sub\n      not\n      and\n      dup2\n      mstore\n      0x20\n      add\n      swap2\n      pop\n    tag_51:\n      pop\n      swap3\n      pop\n      pop\n      pop\n      mload(0x40)\n      dup1\n      swap2\n      sub\n      swap1\n      return\n        /* \"https://github.com/OpenZeppelin/openzeppelin-contracts/blob/release-v2.5.0/contracts/access/roles/MinterRole.sol\":607:697  function addMinter(address account) public onlyMinter {... */\n    tag_12:\n      tag_52\n      0x04\n      dup1\n      calldatasize\n      sub\n        /* \"--CODEGEN--\":13:15   */\n      0x20\n        /* \"--CODEGEN--\":8:11   */\n      dup2\n        /* \"--CODEGEN--\":5:16   */\n      lt\n        /* \"--CODEGEN--\":2:4   */\n      iszero\n      tag_53\n      jumpi\n        /* \"--CODEGEN--\":29:30   */\n      0x00\n        /* \"--CODEGEN--\":26:27   */\n      dup1\n        /* \"--CODEGEN--\":19:31   */\n      revert\n        /* \"--CODEGEN--\":2:4   */\n    tag_53:\n        /* \"https://github.com/OpenZeppelin/openzeppelin-contracts/blob/release-v2.5.0/contracts/access/roles/MinterRole.sol\":607:697  function addMinter(address account) public onlyMinter {... */\n      dup2\n      add\n      swap1\n      dup1\n      dup1\n      calldataload\n      0xffffffffffffffffffffffffffffffffffffffff\n      and\n      swap1\n      0x20\n      add\n      swap1\n      swap3\n      swap2\n      swap1\n      pop\n      pop\n      pop\n      tag_54\n      jump\t// in\n    tag_52:\n      stop\n        /* \"https://github.com/OpenZeppelin/openzeppelin-contracts/blob/release-v2.5.0/contracts/access/roles/MinterRole.sol\":703:780  function renounceMinter() public {... */\n    tag_13:\n      tag_55\n      tag_56\n      jump\t// in\n    tag_55:\n      stop\n        /* \"https://github.com/OpenZeppelin/openzeppelin-contracts/blob/release-v2.5.0/contracts/token/ERC20/ERC20.sol\":4496:4754  function decreaseAllowance(address spender, uint256 subtractedValue) public returns (bool) {... */\n    tag_14:\n      tag_57\n      0x04\n      dup1\n      calldatasize\n      sub\n        /* \"--CODEGEN--\":13:15   */\n      0x40\n        /* \"--CODEGEN--\":8:11   */\n      dup2\n        /* \"--CODEGEN--\":5:16   */\n      lt\n        /* \"--CODEGEN--\":2:4   */\n      iszero\n      tag_58\n      jumpi\n        /* \"--CODEGEN--\":29:30   */\n      0x00\n        /* \"--CODEGEN--\":26:27   */\n      dup1\n        /* \"--CODEGEN--\":19:31   */\n      revert\n        /* \"--CODEGEN--\":2:4   */\n    tag_58:\n        /* \"https://github.com/OpenZeppelin/openzeppelin-contracts/blob/release-v2.5.0/contracts/token/ERC20/ERC20.sol\":4496:4754  function decreaseAllowance(address spender, uint256 subtractedValue) public returns (bool) {... */\n      dup2\n      add\n      swap1\n      dup1\n      dup1\n      calldataload\n      0xffffffffffffffffffffffffffffffffffffffff\n      and\n      swap1\n      0x20\n      add\n      swap1\n      swap3\n      swap2\n      swap1\n      dup1\n      calldataload\n      swap1\n      0x20\n      add\n      swap1\n      swap3\n      swap2\n      swap1\n      pop\n      pop\n      pop\n      tag_59\n      jump\t// in\n    tag_57:\n      mload(0x40)\n      dup1\n      dup3\n      iszero\n      iszero\n      iszero\n      iszero\n      dup2\n      mstore\n      0x20\n      add\n      swap2\n      pop\n      pop\n      mload(0x40)\n      dup1\n      swap2\n      sub\n      swap1\n      return\n        /* \"https://github.com/OpenZeppelin/openzeppelin-contracts/blob/release-v2.5.0/contracts/token/ERC20/ERC20.sol\":2017:2172  function transfer(address recipient, uint256 amount) public returns (bool) {... */\n    tag_15:\n      tag_60\n      0x04\n      dup1\n      calldatasize\n      sub\n        /* \"--CODEGEN--\":13:15   */\n      0x40\n        /* \"--CODEGEN--\":8:11   */\n      dup2\n        /* \"--CODEGEN--\":5:16   */\n      lt\n        /* \"--CODEGEN--\":2:4   */\n      iszero\n      tag_61\n      jumpi\n        /* \"--CODEGEN--\":29:30   */\n      0x00\n        /* \"--CODEGEN--\":26:27   */\n      dup1\n        /* \"--CODEGEN--\":19:31   */\n      revert\n        /* \"--CODEGEN--\":2:4   */\n    tag_61:\n        /* \"https://github.com/OpenZeppelin/openzeppelin-contracts/blob/release-v2.5.0/contracts/token/ERC20/ERC20.sol\":2017:2172  function transfer(address recipient, uint256 amount) public returns (bool) {... */\n      dup2\n      add\n      swap1\n      dup1\n      dup1\n      calldataload\n      0xffffffffffffffffffffffffffffffffffffffff\n      and\n      swap1\n      0x20\n      add\n      swap1\n      swap3\n      swap2\n      swap1\n      dup1\n      calldataload\n      swap1\n      0x20\n      add\n      swap1\n      swap3\n      swap2\n      swap1\n      pop\n      pop\n      pop\n      tag_62\n      jump\t// in\n    tag_60:\n      mload(0x40)\n      dup1\n      dup3\n      iszero\n      iszero\n      iszero\n      iszero\n      dup2\n      mstore\n      0x20\n      add\n      swap2\n      pop\n      pop\n      mload(0x40)\n      dup1\n      swap2\n      sub\n      swap1\n      return\n        /* \"https://github.com/OpenZeppelin/openzeppelin-contracts/blob/release-v2.5.0/contracts/access/roles/MinterRole.sol\":494:601  function isMinter(address account) public view returns (bool) {... */\n    tag_16:\n      tag_63\n      0x04\n      dup1\n      calldatasize\n      sub\n        /* \"--CODEGEN--\":13:15   */\n      0x20\n        /* \"--CODEGEN--\":8:11   */\n      dup2\n        /* \"--CODEGEN--\":5:16   */\n      lt\n        /* \"--CODEGEN--\":2:4   */\n      iszero\n      tag_64\n      jumpi\n        /* \"--CODEGEN--\":29:30   */\n      0x00\n        /* \"--CODEGEN--\":26:27   */\n      dup1\n        /* \"--CODEGEN--\":19:31   */\n      revert\n        /* \"--CODEGEN--\":2:4   */\n    tag_64:\n        /* \"https://github.com/OpenZeppelin/openzeppelin-contracts/blob/release-v2.5.0/contracts/access/roles/MinterRole.sol\":494:601  function isMinter(address account) public view returns (bool) {... */\n      dup2\n      add\n      swap1\n      dup1\n      dup1\n      calldataload\n      0xffffffffffffffffffffffffffffffffffffffff\n      and\n      swap1\n      0x20\n      add\n      swap1\n      swap3\n      swap2\n      swap1\n      pop\n      pop\n      pop\n      tag_65\n      jump\t// in\n    tag_63:\n      mload(0x40)\n      dup1\n      dup3\n      iszero\n      iszero\n      iszero\n      iszero\n      dup2\n      mstore\n      0x20\n      add\n      swap2\n      pop\n      pop\n      mload(0x40)\n      dup1\n      swap2\n      sub\n      swap1\n      return\n        /* \"https://github.com/OpenZeppelin/openzeppelin-contracts/blob/release-v2.5.0/contracts/token/ERC20/ERC20.sol\":2230:2362  function allowance(address owner, address spender) public view returns (uint256) {... */\n    tag_17:\n      tag_66\n      0x04\n      dup1\n      calldatasize\n      sub\n        /* \"--CODEGEN--\":13:15   */\n      0x40\n        /* \"--CODEGEN--\":8:11   */\n      dup2\n        /* \"--CODEGEN--\":5:16   */\n      lt\n        /* \"--CODEGEN--\":2:4   */\n      iszero\n      tag_67\n      jumpi\n        /* \"--CODEGEN--\":29:30   */\n      0x00\n        /* \"--CODEGEN--\":26:27   */\n      dup1\n        /* \"--CODEGEN--\":19:31   */\n      revert\n        /* \"--CODEGEN--\":2:4   */\n    tag_67:\n        /* \"https://github.com/OpenZeppelin/openzeppelin-contracts/blob/release-v2.5.0/contracts/token/ERC20/ERC20.sol\":2230:2362  function allowance(address owner, address spender) public view returns (uint256) {... */\n      dup2\n      add\n      swap1\n      dup1\n      dup1\n      calldataload\n      0xffffffffffffffffffffffffffffffffffffffff\n      and\n      swap1\n      0x20\n      add\n      swap1\n      swap3\n      swap2\n      swap1\n      dup1\n      calldataload\n      0xffffffffffffffffffffffffffffffffffffffff\n      and\n      swap1\n      0x20\n      add\n      swap1\n      swap3\n      swap2\n      swap1\n      pop\n      pop\n      pop\n      tag_68\n      jump\t// in\n    tag_66:\n      mload(0x40)\n      dup1\n      dup3\n      dup2\n      mstore\n      0x20\n      add\n      swap2\n      pop\n      pop\n      mload(0x40)\n      dup1\n      swap2\n      sub\n      swap1\n      return\n        /* \"https://github.com/OpenZeppelin/openzeppelin-contracts/blob/release-v2.5.0/contracts/token/ERC20/ERC20Detailed.sol\":644:725  function name() public view returns (string memory) {... */\n    tag_22:\n        /* \"https://github.com/OpenZeppelin/openzeppelin-contracts/blob/release-v2.5.0/contracts/token/ERC20/ERC20Detailed.sol\":681:694  string memory */\n      0x60\n        /* \"https://github.com/OpenZeppelin/openzeppelin-contracts/blob/release-v2.5.0/contracts/token/ERC20/ERC20Detailed.sol\":713:718  _name */\n      0x03\n        /* \"https://github.com/OpenZeppelin/openzeppelin-contracts/blob/release-v2.5.0/contracts/token/ERC20/ERC20Detailed.sol\":706:718  return _name */\n      dup1\n      sload\n      0x01\n      dup2\n      0x01\n      and\n      iszero\n      0x0100\n      mul\n      sub\n      and\n      0x02\n      swap1\n      div\n      dup1\n      0x1f\n      add\n      0x20\n      dup1\n      swap2\n      div\n      mul\n      0x20\n      add\n      mload(0x40)\n      swap1\n      dup2\n      add\n      0x40\n      mstore\n      dup1\n      swap3\n      swap2\n      swap1\n      dup2\n      dup2\n      mstore\n      0x20\n      add\n      dup3\n      dup1\n      sload\n      0x01\n      dup2\n      0x01\n      and\n      iszero\n      0x0100\n      mul\n      sub\n      and\n      0x02\n      swap1\n      div\n      dup1\n      iszero\n      tag_70\n      jumpi\n      dup1\n      0x1f\n      lt\n      tag_71\n      jumpi\n      0x0100\n      dup1\n      dup4\n      sload\n      div\n      mul\n      dup4\n      mstore\n      swap2\n      0x20\n      add\n      swap2\n      jump(tag_70)\n    tag_71:\n      dup3\n      add\n      swap2\n      swap1\n      0x00\n      mstore\n      keccak256(0x00, 0x20)\n      swap1\n    tag_72:\n      dup2\n      sload\n      dup2\n      mstore\n      swap1\n      0x01\n      add\n      swap1\n      0x20\n      add\n      dup1\n      dup4\n      gt\n      tag_72\n      jumpi\n      dup3\n      swap1\n      sub\n      0x1f\n      and\n      dup3\n      add\n      swap2\n    tag_70:\n      pop\n      pop\n      pop\n      pop\n      pop\n      swap1\n      pop\n        /* \"https://github.com/OpenZeppelin/openzeppelin-contracts/blob/release-v2.5.0/contracts/token/ERC20/ERC20Detailed.sol\":644:725  function name() public view returns (string memory) {... */\n      swap1\n      jump\t// out\n        /* \"https://github.com/OpenZeppelin/openzeppelin-contracts/blob/release-v2.5.0/contracts/token/ERC20/ERC20.sol\":2500:2649  function approve(address spender, uint256 amount) public returns (bool) {... */\n    tag_29:\n        /* \"https://github.com/OpenZeppelin/openzeppelin-contracts/blob/release-v2.5.0/contracts/token/ERC20/ERC20.sol\":2566:2570  bool */\n      0x00\n        /* \"https://github.com/OpenZeppelin/openzeppelin-contracts/blob/release-v2.5.0/contracts/token/ERC20/ERC20.sol\":2582:2621  _approve(_msgSender(), spender, amount) */\n      tag_74\n        /* \"https://github.com/OpenZeppelin/openzeppelin-contracts/blob/release-v2.5.0/contracts/token/ERC20/ERC20.sol\":2591:2603  _msgSender() */\n      tag_75\n        /* \"https://github.com/OpenZeppelin/openzeppelin-contracts/blob/release-v2.5.0/contracts/token/ERC20/ERC20.sol\":2591:2601  _msgSender */\n      tag_76\n        /* \"https://github.com/OpenZeppelin/openzeppelin-contracts/blob/release-v2.5.0/contracts/token/ERC20/ERC20.sol\":2591:2603  _msgSender() */\n      jump\t// in\n    tag_75:\n        /* \"https://github.com/OpenZeppelin/openzeppelin-contracts/blob/release-v2.5.0/contracts/token/ERC20/ERC20.sol\":2605:2612  spender */\n      dup5\n        /* \"https://github.com/OpenZeppelin/openzeppelin-contracts/blob/release-v2.5.0/contracts/token/ERC20/ERC20.sol\":2614:2620  amount */\n      dup5\n        /* \"https://github.com/OpenZeppelin/openzeppelin-contracts/blob/release-v2.5.0/contracts/token/ERC20/ERC20.sol\":2582:2590  _approve */\n      tag_77\n        /* \"https://github.com/OpenZeppelin/openzeppelin-contracts/blob/release-v2.5.0/contracts/token/ERC20/ERC20.sol\":2582:2621  _approve(_msgSender(), spender, amount) */\n      jump\t// in\n    tag_74:\n        /* \"https://github.com/OpenZeppelin/openzeppelin-contracts/blob/release-v2.5.0/contracts/token/ERC20/ERC20.sol\":2638:2642  true */\n      0x01\n        /* \"https://github.com/OpenZeppelin/openzeppelin-contracts/blob/release-v2.5.0/contracts/token/ERC20/ERC20.sol\":2631:2642  return true */\n      swap1\n      pop\n        /* \"https://github.com/OpenZeppelin/openzeppelin-contracts/blob/release-v2.5.0/contracts/token/ERC20/ERC20.sol\":2500:2649  function approve(address spender, uint256 amount) public returns (bool) {... */\n      swap3\n      swap2\n      pop\n      pop\n      jump\t// out\n        /* \"https://github.com/OpenZeppelin/openzeppelin-contracts/blob/release-v2.5.0/contracts/token/ERC20/ERC20.sol\":1559:1648  function totalSupply() public view returns (uint256) {... */\n    tag_31:\n        /* \"https://github.com/OpenZeppelin/openzeppelin-contracts/blob/release-v2.5.0/contracts/token/ERC20/ERC20.sol\":1603:1610  uint256 */\n      0x00\n        /* \"https://github.com/OpenZeppelin/openzeppelin-contracts/blob/release-v2.5.0/contracts/token/ERC20/ERC20.sol\":1629:1641  _totalSupply */\n      sload(0x02)\n        /* \"https://github.com/OpenZeppelin/openzeppelin-contracts/blob/release-v2.5.0/contracts/token/ERC20/ERC20.sol\":1622:1641  return _totalSupply */\n      swap1\n      pop\n        /* \"https://github.com/OpenZeppelin/openzeppelin-contracts/blob/release-v2.5.0/contracts/token/ERC20/ERC20.sol\":1559:1648  function totalSupply() public view returns (uint256) {... */\n      swap1\n      jump\t// out\n        /* \"https://github.com/OpenZeppelin/openzeppelin-contracts/blob/release-v2.5.0/contracts/token/ERC20/ERC20.sol\":3107:3407  function transferFrom(address sender, address recipient, uint256 amount) public returns (bool) {... */\n    tag_34:\n        /* \"https://github.com/OpenZeppelin/openzeppelin-contracts/blob/release-v2.5.0/contracts/token/ERC20/ERC20.sol\":3196:3200  bool */\n      0x00\n        /* \"https://github.com/OpenZeppelin/openzeppelin-contracts/blob/release-v2.5.0/contracts/token/ERC20/ERC20.sol\":3212:3248  _transfer(sender, recipient, amount) */\n      tag_80\n        /* \"https://github.com/OpenZeppelin/openzeppelin-contracts/blob/release-v2.5.0/contracts/token/ERC20/ERC20.sol\":3222:3228  sender */\n      dup5\n        /* \"https://github.com/OpenZeppelin/openzeppelin-contracts/blob/release-v2.5.0/contracts/token/ERC20/ERC20.sol\":3230:3239  recipient */\n      dup5\n        /* \"https://github.com/OpenZeppelin/openzeppelin-contracts/blob/release-v2.5.0/contracts/token/ERC20/ERC20.sol\":3241:3247  amount */\n      dup5\n        /* \"https://github.com/OpenZeppelin/openzeppelin-contracts/blob/release-v2.5.0/contracts/token/ERC20/ERC20.sol\":3212:3221  _transfer */\n      tag_81\n        /* \"https://github.com/OpenZeppelin/openzeppelin-contracts/blob/release-v2.5.0/contracts/token/ERC20/ERC20.sol\":3212:3248  _transfer(sender, recipient, amount) */\n      jump\t// in\n    tag_80:\n        /* \"https://github.com/OpenZeppelin/openzeppelin-contracts/blob/release-v2.5.0/contracts/token/ERC20/ERC20.sol\":3258:3379  _approve(sender, _msgSender(), _allowances[sender][_msgSender()].sub(amount, \"ERC20: transfer amount exceeds allowance\")) */\n      tag_82\n        /* \"https://github.com/OpenZeppelin/openzeppelin-contracts/blob/release-v2.5.0/contracts/token/ERC20/ERC20.sol\":3267:3273  sender */\n      dup5\n        /* \"https://github.com/OpenZeppelin/openzeppelin-contracts/blob/release-v2.5.0/contracts/token/ERC20/ERC20.sol\":3275:3287  _msgSender() */\n      tag_83\n        /* \"https://github.com/OpenZeppelin/openzeppelin-contracts/blob/release-v2.5.0/contracts/token/ERC20/ERC20.sol\":3275:3285  _msgSender */\n      tag_76\n        /* \"https://github.com/OpenZeppelin/openzeppelin-contracts/blob/release-v2.5.0/contracts/token/ERC20/ERC20.sol\":3275:3287  _msgSender() */\n      jump\t// in\n    tag_83:\n        /* \"https://github.com/OpenZeppelin/openzeppelin-contracts/blob/release-v2.5.0/contracts/token/ERC20/ERC20.sol\":3289:3378  _allowances[sender][_msgSender()].sub(amount, \"ERC20: transfer amount exceeds allowance\") */\n      tag_84\n        /* \"https://github.com/OpenZeppelin/openzeppelin-contracts/blob/release-v2.5.0/contracts/token/ERC20/ERC20.sol\":3327:3333  amount */\n      dup6\n        /* \"https://github.com/OpenZeppelin/openzeppelin-contracts/blob/release-v2.5.0/contracts/token/ERC20/ERC20.sol\":3289:3378  _allowances[sender][_msgSender()].sub(amount, \"ERC20: transfer amount exceeds allowance\") */\n      mload(0x40)\n      dup1\n      0x60\n      add\n      0x40\n      mstore\n      dup1\n      0x28\n      dup2\n      mstore\n      0x20\n      add\n      data_974d1b4421da69cc60b481194f0dad36a5bb4e23da810da7a7fb30cdba178330\n      0x28\n      swap2\n      codecopy\n        /* \"https://github.com/OpenZeppelin/openzeppelin-contracts/blob/release-v2.5.0/contracts/token/ERC20/ERC20.sol\":3289:3300  _allowances */\n      0x01\n        /* \"https://github.com/OpenZeppelin/openzeppelin-contracts/blob/release-v2.5.0/contracts/token/ERC20/ERC20.sol\":3289:3308  _allowances[sender] */\n      0x00\n        /* \"https://github.com/OpenZeppelin/openzeppelin-contracts/blob/release-v2.5.0/contracts/token/ERC20/ERC20.sol\":3301:3307  sender */\n      dup12\n        /* \"https://github.com/OpenZeppelin/openzeppelin-contracts/blob/release-v2.5.0/contracts/token/ERC20/ERC20.sol\":3289:3308  _allowances[sender] */\n      0xffffffffffffffffffffffffffffffffffffffff\n      and\n      0xffffffffffffffffffffffffffffffffffffffff\n      and\n      dup2\n      mstore\n      0x20\n      add\n      swap1\n      dup2\n      mstore\n      0x20\n      add\n      0x00\n      keccak256\n        /* \"https://github.com/OpenZeppelin/openzeppelin-contracts/blob/release-v2.5.0/contracts/token/ERC20/ERC20.sol\":3289:3322  _allowances[sender][_msgSender()] */\n      0x00\n        /* \"https://github.com/OpenZeppelin/openzeppelin-contracts/blob/release-v2.5.0/contracts/token/ERC20/ERC20.sol\":3309:3321  _msgSender() */\n      tag_85\n        /* \"https://github.com/OpenZeppelin/openzeppelin-contracts/blob/release-v2.5.0/contracts/token/ERC20/ERC20.sol\":3309:3319  _msgSender */\n      tag_76\n        /* \"https://github.com/OpenZeppelin/openzeppelin-contracts/blob/release-v2.5.0/contracts/token/ERC20/ERC20.sol\":3309:3321  _msgSender() */\n      jump\t// in\n    tag_85:\n        /* \"https://github.com/OpenZeppelin/openzeppelin-contracts/blob/release-v2.5.0/contracts/token/ERC20/ERC20.sol\":3289:3322  _allowances[sender][_msgSender()] */\n      0xffffffffffffffffffffffffffffffffffffffff\n      and\n      0xffffffffffffffffffffffffffffffffffffffff\n      and\n      dup2\n      mstore\n      0x20\n      add\n      swap1\n      dup2\n      mstore\n      0x20\n      add\n      0x00\n      keccak256\n      sload\n        /* \"https://github.com/OpenZeppelin/openzeppelin-contracts/blob/release-v2.5.0/contracts/token/ERC20/ERC20.sol\":3289:3326  _allowances[sender][_msgSender()].sub */\n      tag_86\n      swap1\n        /* \"https://github.com/OpenZeppelin/openzeppelin-contracts/blob/release-v2.5.0/contracts/token/ERC20/ERC20.sol\":3289:3378  _allowances[sender][_msgSender()].sub(amount, \"ERC20: transfer amount exceeds allowance\") */\n      swap3\n      swap2\n      swap1\n      0xffffffff\n      and\n      jump\t// in\n    tag_84:\n        /* \"https://github.com/OpenZeppelin/openzeppelin-contracts/blob/release-v2.5.0/contracts/token/ERC20/ERC20.sol\":3258:3266  _approve */\n      tag_77\n        /* \"https://github.com/OpenZeppelin/openzeppelin-contracts/blob/release-v2.5.0/contracts/token/ERC20/ERC20.sol\":3258:3379  _approve(sender, _msgSender(), _allowances[sender][_msgSender()].sub(amount, \"ERC20: transfer amount exceeds allowance\")) */\n      jump\t// in\n    tag_82:\n        /* \"https://github.com/OpenZeppelin/openzeppelin-contracts/blob/release-v2.5.0/contracts/token/ERC20/ERC20.sol\":3396:3400  true */\n      0x01\n        /* \"https://github.com/OpenZeppelin/openzeppelin-contracts/blob/release-v2.5.0/contracts/token/ERC20/ERC20.sol\":3389:3400  return true */\n      swap1\n      pop\n        /* \"https://github.com/OpenZeppelin/openzeppelin-contracts/blob/release-v2.5.0/contracts/token/ERC20/ERC20.sol\":3107:3407  function transferFrom(address sender, address recipient, uint256 amount) public returns (bool) {... */\n      swap4\n      swap3\n      pop\n      pop\n      pop\n      jump\t// out\n        /* \"https://github.com/OpenZeppelin/openzeppelin-contracts/blob/release-v2.5.0/contracts/token/ERC20/ERC20Detailed.sol\":1472:1553  function decimals() public view returns (uint8) {... */\n    tag_36:\n        /* \"https://github.com/OpenZeppelin/openzeppelin-contracts/blob/release-v2.5.0/contracts/token/ERC20/ERC20Detailed.sol\":1513:1518  uint8 */\n      0x00\n        /* \"https://github.com/OpenZeppelin/openzeppelin-contracts/blob/release-v2.5.0/contracts/token/ERC20/ERC20Detailed.sol\":1537:1546  _decimals */\n      0x05\n      0x00\n      swap1\n      sload\n      swap1\n      0x0100\n      exp\n      swap1\n      div\n      0xff\n      and\n        /* \"https://github.com/OpenZeppelin/openzeppelin-contracts/blob/release-v2.5.0/contracts/token/ERC20/ERC20Detailed.sol\":1530:1546  return _decimals */\n      swap1\n      pop\n        /* \"https://github.com/OpenZeppelin/openzeppelin-contracts/blob/release-v2.5.0/contracts/token/ERC20/ERC20Detailed.sol\":1472:1553  function decimals() public view returns (uint8) {... */\n      swap1\n      jump\t// out\n        /* \"https://github.com/OpenZeppelin/openzeppelin-contracts/blob/release-v2.5.0/contracts/token/ERC20/ERC20.sol\":3802:4009  function increaseAllowance(address spender, uint256 addedValue) public returns (bool) {... */\n    tag_39:\n        /* \"https://github.com/OpenZeppelin/openzeppelin-contracts/blob/release-v2.5.0/contracts/token/ERC20/ERC20.sol\":3882:3886  bool */\n      0x00\n        /* \"https://github.com/OpenZeppelin/openzeppelin-contracts/blob/release-v2.5.0/contracts/token/ERC20/ERC20.sol\":3898:3981  _approve(_msgSender(), spender, _allowances[_msgSender()][spender].add(addedValue)) */\n      tag_89\n        /* \"https://github.com/OpenZeppelin/openzeppelin-contracts/blob/release-v2.5.0/contracts/token/ERC20/ERC20.sol\":3907:3919  _msgSender() */\n      tag_90\n        /* \"https://github.com/OpenZeppelin/openzeppelin-contracts/blob/release-v2.5.0/contracts/token/ERC20/ERC20.sol\":3907:3917  _msgSender */\n      tag_76\n        /* \"https://github.com/OpenZeppelin/openzeppelin-contracts/blob/release-v2.5.0/contracts/token/ERC20/ERC20.sol\":3907:3919  _msgSender() */\n      jump\t// in\n    tag_90:\n        /* \"https://github.com/OpenZeppelin/openzeppelin-contracts/blob/release-v2.5.0/contracts/token/ERC20/ERC20.sol\":3921:3928  spender */\n      dup5\n        /* \"https://github.com/OpenZeppelin/openzeppelin-contracts/blob/release-v2.5.0/contracts/token/ERC20/ERC20.sol\":3930:3980  _allowances[_msgSender()][spender].add(addedValue) */\n      tag_91\n        /* \"https://github.com/OpenZeppelin/openzeppelin-contracts/blob/release-v2.5.0/contracts/token/ERC20/ERC20.sol\":3969:3979  addedValue */\n      dup6\n        /* \"https://github.com/OpenZeppelin/openzeppelin-contracts/blob/release-v2.5.0/contracts/token/ERC20/ERC20.sol\":3930:3941  _allowances */\n      0x01\n        /* \"https://github.com/OpenZeppelin/openzeppelin-contracts/blob/release-v2.5.0/contracts/token/ERC20/ERC20.sol\":3930:3955  _allowances[_msgSender()] */\n      0x00\n        /* \"https://github.com/OpenZeppelin/openzeppelin-contracts/blob/release-v2.5.0/contracts/token/ERC20/ERC20.sol\":3942:3954  _msgSender() */\n      tag_92\n        /* \"https://github.com/OpenZeppelin/openzeppelin-contracts/blob/release-v2.5.0/contracts/token/ERC20/ERC20.sol\":3942:3952  _msgSender */\n      tag_76\n        /* \"https://github.com/OpenZeppelin/openzeppelin-contracts/blob/release-v2.5.0/contracts/token/ERC20/ERC20.sol\":3942:3954  _msgSender() */\n      jump\t// in\n    tag_92:\n        /* \"https://github.com/OpenZeppelin/openzeppelin-contracts/blob/release-v2.5.0/contracts/token/ERC20/ERC20.sol\":3930:3955  _allowances[_msgSender()] */\n      0xffffffffffffffffffffffffffffffffffffffff\n      and\n      0xffffffffffffffffffffffffffffffffffffffff\n      and\n      dup2\n      mstore\n      0x20\n      add\n      swap1\n      dup2\n      mstore\n      0x20\n      add\n      0x00\n      keccak256\n        /* \"https://github.com/OpenZeppelin/openzeppelin-contracts/blob/release-v2.5.0/contracts/token/ERC20/ERC20.sol\":3930:3964  _allowances[_msgSender()][spender] */\n      0x00\n        /* \"https://github.com/OpenZeppelin/openzeppelin-contracts/blob/release-v2.5.0/contracts/token/ERC20/ERC20.sol\":3956:3963  spender */\n      dup10\n        /* \"https://github.com/OpenZeppelin/openzeppelin-contracts/blob/release-v2.5.0/contracts/token/ERC20/ERC20.sol\":3930:3964  _allowances[_msgSender()][spender] */\n      0xffffffffffffffffffffffffffffffffffffffff\n      and\n      0xffffffffffffffffffffffffffffffffffffffff\n      and\n      dup2\n      mstore\n      0x20\n      add\n      swap1\n      dup2\n      mstore\n      0x20\n      add\n      0x00\n      keccak256\n      sload\n        /* \"https://github.com/OpenZeppelin/openzeppelin-contracts/blob/release-v2.5.0/contracts/token/ERC20/ERC20.sol\":3930:3968  _allowances[_msgSender()][spender].add */\n      tag_93\n      swap1\n        /* \"https://github.com/OpenZeppelin/openzeppelin-contracts/blob/release-v2.5.0/contracts/token/ERC20/ERC20.sol\":3930:3980  _allowances[_msgSender()][spender].add(addedValue) */\n      swap2\n      swap1\n      0xffffffff\n      and\n      jump\t// in\n    tag_91:\n        /* \"https://github.com/OpenZeppelin/openzeppelin-contracts/blob/release-v2.5.0/contracts/token/ERC20/ERC20.sol\":3898:3906  _approve */\n      tag_77\n        /* \"https://github.com/OpenZeppelin/openzeppelin-contracts/blob/release-v2.5.0/contracts/token/ERC20/ERC20.sol\":3898:3981  _approve(_msgSender(), spender, _allowances[_msgSender()][spender].add(addedValue)) */\n      jump\t// in\n    tag_89:\n        /* \"https://github.com/OpenZeppelin/openzeppelin-contracts/blob/release-v2.5.0/contracts/token/ERC20/ERC20.sol\":3998:4002  true */\n      0x01\n        /* \"https://github.com/OpenZeppelin/openzeppelin-contracts/blob/release-v2.5.0/contracts/token/ERC20/ERC20.sol\":3991:4002  return true */\n      swap1\n      pop\n        /* \"https://github.com/OpenZeppelin/openzeppelin-contracts/blob/release-v2.5.0/contracts/token/ERC20/ERC20.sol\":3802:4009  function increaseAllowance(address spender, uint256 addedValue) public returns (bool) {... */\n      swap3\n      swap2\n      pop\n      pop\n      jump\t// out\n        /* \"https://github.com/OpenZeppelin/openzeppelin-contracts/blob/release-v2.5.0/contracts/token/ERC20/ERC20Mintable.sol\":502:642  function mint(address account, uint256 amount) public onlyMinter returns (bool) {... */\n    tag_42:\n        /* \"https://github.com/OpenZeppelin/openzeppelin-contracts/blob/release-v2.5.0/contracts/token/ERC20/ERC20Mintable.sol\":576:580  bool */\n      0x00\n        /* \"https://github.com/OpenZeppelin/openzeppelin-contracts/blob/release-v2.5.0/contracts/access/roles/MinterRole.sol\":395:417  isMinter(_msgSender()) */\n      tag_95\n        /* \"https://github.com/OpenZeppelin/openzeppelin-contracts/blob/release-v2.5.0/contracts/access/roles/MinterRole.sol\":404:416  _msgSender() */\n      tag_96\n        /* \"https://github.com/OpenZeppelin/openzeppelin-contracts/blob/release-v2.5.0/contracts/access/roles/MinterRole.sol\":404:414  _msgSender */\n      tag_76\n        /* \"https://github.com/OpenZeppelin/openzeppelin-contracts/blob/release-v2.5.0/contracts/access/roles/MinterRole.sol\":404:416  _msgSender() */\n      jump\t// in\n    tag_96:\n        /* \"https://github.com/OpenZeppelin/openzeppelin-contracts/blob/release-v2.5.0/contracts/access/roles/MinterRole.sol\":395:403  isMinter */\n      tag_65\n        /* \"https://github.com/OpenZeppelin/openzeppelin-contracts/blob/release-v2.5.0/contracts/access/roles/MinterRole.sol\":395:417  isMinter(_msgSender()) */\n      jump\t// in\n    tag_95:\n        /* \"https://github.com/OpenZeppelin/openzeppelin-contracts/blob/release-v2.5.0/contracts/access/roles/MinterRole.sol\":387:470  require(isMinter(_msgSender()), \"MinterRole: caller does not have the Minter role\") */\n      iszero\n      iszero\n      tag_97\n      jumpi\n      mload(0x40)\n      0x08c379a000000000000000000000000000000000000000000000000000000000\n      dup2\n      mstore\n      0x04\n      add\n      dup1\n      dup1\n      0x20\n      add\n      dup3\n      dup2\n      sub\n      dup3\n      mstore\n      0x30\n      dup2\n      mstore\n      0x20\n      add\n      dup1\n      data_79ecb50133735b20228dea9d08fe36a462bbc1350f591a146908848db91104cd\n      0x30\n      swap2\n      codecopy\n      0x40\n      add\n      swap2\n      pop\n      pop\n      mload(0x40)\n      dup1\n      swap2\n      sub\n      swap1\n      revert\n    tag_97:\n        /* \"https://github.com/OpenZeppelin/openzeppelin-contracts/blob/release-v2.5.0/contracts/token/ERC20/ERC20Mintable.sol\":592:614  _mint(account, amount) */\n      tag_99\n        /* \"https://github.com/OpenZeppelin/openzeppelin-contracts/blob/release-v2.5.0/contracts/token/ERC20/ERC20Mintable.sol\":598:605  account */\n      dup4\n        /* \"https://github.com/OpenZeppelin/openzeppelin-contracts/blob/release-v2.5.0/contracts/token/ERC20/ERC20Mintable.sol\":607:613  amount */\n      dup4\n        /* \"https://github.com/OpenZeppelin/openzeppelin-contracts/blob/release-v2.5.0/contracts/token/ERC20/ERC20Mintable.sol\":592:597  _mint */\n      tag_100\n        /* \"https://github.com/OpenZeppelin/openzeppelin-contracts/blob/release-v2.5.0/contracts/token/ERC20/ERC20Mintable.sol\":592:614  _mint(account, amount) */\n      jump\t// in\n    tag_99:\n        /* \"https://github.com/OpenZeppelin/openzeppelin-contracts/blob/release-v2.5.0/contracts/token/ERC20/ERC20Mintable.sol\":631:635  true */\n      0x01\n        /* \"https://github.com/OpenZeppelin/openzeppelin-contracts/blob/release-v2.5.0/contracts/token/ERC20/ERC20Mintable.sol\":624:635  return true */\n      swap1\n      pop\n        /* \"https://github.com/OpenZeppelin/openzeppelin-contracts/blob/release-v2.5.0/contracts/token/ERC20/ERC20Mintable.sol\":502:642  function mint(address account, uint256 amount) public onlyMinter returns (bool) {... */\n      swap3\n      swap2\n      pop\n      pop\n      jump\t// out\n        /* \"https://github.com/OpenZeppelin/openzeppelin-contracts/blob/release-v2.5.0/contracts/token/ERC20/ERC20.sol\":1706:1814  function balanceOf(address account) public view returns (uint256) {... */\n    tag_45:\n        /* \"https://github.com/OpenZeppelin/openzeppelin-contracts/blob/release-v2.5.0/contracts/token/ERC20/ERC20.sol\":1763:1770  uint256 */\n      0x00\n        /* \"https://github.com/OpenZeppelin/openzeppelin-contracts/blob/release-v2.5.0/contracts/token/ERC20/ERC20.sol\":1789:1798  _balances */\n      dup1\n        /* \"https://github.com/OpenZeppelin/openzeppelin-contracts/blob/release-v2.5.0/contracts/token/ERC20/ERC20.sol\":1789:1807  _balances[account] */\n      0x00\n        /* \"https://github.com/OpenZeppelin/openzeppelin-contracts/blob/release-v2.5.0/contracts/token/ERC20/ERC20.sol\":1799:1806  account */\n      dup4\n        /* \"https://github.com/OpenZeppelin/openzeppelin-contracts/blob/release-v2.5.0/contracts/token/ERC20/ERC20.sol\":1789:1807  _balances[account] */\n      0xffffffffffffffffffffffffffffffffffffffff\n      and\n      0xffffffffffffffffffffffffffffffffffffffff\n      and\n      dup2\n      mstore\n      0x20\n      add\n      swap1\n      dup2\n      mstore\n      0x20\n      add\n      0x00\n      keccak256\n      sload\n        /* \"https://github.com/OpenZeppelin/openzeppelin-contracts/blob/release-v2.5.0/contracts/token/ERC20/ERC20.sol\":1782:1807  return _balances[account] */\n      swap1\n      pop\n        /* \"https://github.com/OpenZeppelin/openzeppelin-contracts/blob/release-v2.5.0/contracts/token/ERC20/ERC20.sol\":1706:1814  function balanceOf(address account) public view returns (uint256) {... */\n      swap2\n      swap1\n      pop\n      jump\t// out\n        /* \"https://github.com/OpenZeppelin/openzeppelin-contracts/blob/release-v2.5.0/contracts/token/ERC20/ERC20Detailed.sol\":838:923  function symbol() public view returns (string memory) {... */\n    tag_47:\n        /* \"https://github.com/OpenZeppelin/openzeppelin-contracts/blob/release-v2.5.0/contracts/token/ERC20/ERC20Detailed.sol\":877:890  string memory */\n      0x60\n        /* \"https://github.com/OpenZeppelin/openzeppelin-contracts/blob/release-v2.5.0/contracts/token/ERC20/ERC20Detailed.sol\":909:916  _symbol */\n      0x04\n        /* \"https://github.com/OpenZeppelin/openzeppelin-contracts/blob/release-v2.5.0/contracts/token/ERC20/ERC20Detailed.sol\":902:916  return _symbol */\n      dup1\n      sload\n      0x01\n      dup2\n      0x01\n      and\n      iszero\n      0x0100\n      mul\n      sub\n      and\n      0x02\n      swap1\n      div\n      dup1\n      0x1f\n      add\n      0x20\n      dup1\n      swap2\n      div\n      mul\n      0x20\n      add\n      mload(0x40)\n      swap1\n      dup2\n      add\n      0x40\n      mstore\n      dup1\n      swap3\n      swap2\n      swap1\n      dup2\n      dup2\n      mstore\n      0x20\n      add\n      dup3\n      dup1\n      sload\n      0x01\n      dup2\n      0x01\n      and\n      iszero\n      0x0100\n      mul\n      sub\n      and\n      0x02\n      swap1\n      div\n      dup1\n      iszero\n      tag_103\n      jumpi\n      dup1\n      0x1f\n      lt\n      tag_104\n      jumpi\n      0x0100\n      dup1\n      dup4\n      sload\n      div\n      mul\n      dup4\n      mstore\n      swap2\n      0x20\n      add\n      swap2\n      jump(tag_103)\n    tag_104:\n      dup3\n      add\n      swap2\n      swap1\n      0x00\n      mstore\n      keccak256(0x00, 0x20)\n      swap1\n    tag_105:\n      dup2\n      sload\n      dup2\n      mstore\n      swap1\n      0x01\n      add\n      swap1\n      0x20\n      add\n      dup1\n      dup4\n      gt\n      tag_105\n      jumpi\n      dup3\n      swap1\n      sub\n      0x1f\n      and\n      dup3\n      add\n      swap2\n    tag_103:\n      pop\n      pop\n      pop\n      pop\n      pop\n      swap1\n      pop\n        /* \"https://github.com/OpenZeppelin/openzeppelin-contracts/blob/release-v2.5.0/contracts/token/ERC20/ERC20Detailed.sol\":838:923  function symbol() public view returns (string memory) {... */\n      swap1\n      jump\t// out\n        /* \"https://github.com/OpenZeppelin/openzeppelin-contracts/blob/release-v2.5.0/contracts/access/roles/MinterRole.sol\":607:697  function addMinter(address account) public onlyMinter {... */\n    tag_54:\n        /* \"https://github.com/OpenZeppelin/openzeppelin-contracts/blob/release-v2.5.0/contracts/access/roles/MinterRole.sol\":395:417  isMinter(_msgSender()) */\n      tag_107\n        /* \"https://github.com/OpenZeppelin/openzeppelin-contracts/blob/release-v2.5.0/contracts/access/roles/MinterRole.sol\":404:416  _msgSender() */\n      tag_108\n        /* \"https://github.com/OpenZeppelin/openzeppelin-contracts/blob/release-v2.5.0/contracts/access/roles/MinterRole.sol\":404:414  _msgSender */\n      tag_76\n        /* \"https://github.com/OpenZeppelin/openzeppelin-contracts/blob/release-v2.5.0/contracts/access/roles/MinterRole.sol\":404:416  _msgSender() */\n      jump\t// in\n    tag_108:\n        /* \"https://github.com/OpenZeppelin/openzeppelin-contracts/blob/release-v2.5.0/contracts/access/roles/MinterRole.sol\":395:403  isMinter */\n      tag_65\n        /* \"https://github.com/OpenZeppelin/openzeppelin-contracts/blob/release-v2.5.0/contracts/access/roles/MinterRole.sol\":395:417  isMinter(_msgSender()) */\n      jump\t// in\n    tag_107:\n        /* \"https://github.com/OpenZeppelin/openzeppelin-contracts/blob/release-v2.5.0/contracts/access/roles/MinterRole.sol\":387:470  require(isMinter(_msgSender()), \"MinterRole: caller does not have the Minter role\") */\n      iszero\n      iszero\n      tag_109\n      jumpi\n      mload(0x40)\n      0x08c379a000000000000000000000000000000000000000000000000000000000\n      dup2\n      mstore\n      0x04\n      add\n      dup1\n      dup1\n      0x20\n      add\n      dup3\n      dup2\n      sub\n      dup3\n      mstore\n      0x30\n      dup2\n      mstore\n      0x20\n      add\n      dup1\n      data_79ecb50133735b20228dea9d08fe36a462bbc1350f591a146908848db91104cd\n      0x30\n      swap2\n      codecopy\n      0x40\n      add\n      swap2\n      pop\n      pop\n      mload(0x40)\n      dup1\n      swap2\n      sub\n      swap1\n      revert\n    tag_109:\n        /* \"https://github.com/OpenZeppelin/openzeppelin-contracts/blob/release-v2.5.0/contracts/access/roles/MinterRole.sol\":671:690  _addMinter(account) */\n      tag_111\n        /* \"https://github.com/OpenZeppelin/openzeppelin-contracts/blob/release-v2.5.0/contracts/access/roles/MinterRole.sol\":682:689  account */\n      dup2\n        /* \"https://github.com/OpenZeppelin/openzeppelin-contracts/blob/release-v2.5.0/contracts/access/roles/MinterRole.sol\":671:681  _addMinter */\n      tag_112\n        /* \"https://github.com/OpenZeppelin/openzeppelin-contracts/blob/release-v2.5.0/contracts/access/roles/MinterRole.sol\":671:690  _addMinter(account) */\n      jump\t// in\n    tag_111:\n        /* \"https://github.com/OpenZeppelin/openzeppelin-contracts/blob/release-v2.5.0/contracts/access/roles/MinterRole.sol\":607:697  function addMinter(address account) public onlyMinter {... */\n      pop\n      jump\t// out\n        /* \"https://github.com/OpenZeppelin/openzeppelin-contracts/blob/release-v2.5.0/contracts/access/roles/MinterRole.sol\":703:780  function renounceMinter() public {... */\n    tag_56:\n        /* \"https://github.com/OpenZeppelin/openzeppelin-contracts/blob/release-v2.5.0/contracts/access/roles/MinterRole.sol\":746:773  _removeMinter(_msgSender()) */\n      tag_114\n        /* \"https://github.com/OpenZeppelin/openzeppelin-contracts/blob/release-v2.5.0/contracts/access/roles/MinterRole.sol\":760:772  _msgSender() */\n      tag_115\n        /* \"https://github.com/OpenZeppelin/openzeppelin-contracts/blob/release-v2.5.0/contracts/access/roles/MinterRole.sol\":760:770  _msgSender */\n      tag_76\n        /* \"https://github.com/OpenZeppelin/openzeppelin-contracts/blob/release-v2.5.0/contracts/access/roles/MinterRole.sol\":760:772  _msgSender() */\n      jump\t// in\n    tag_115:\n        /* \"https://github.com/OpenZeppelin/openzeppelin-contracts/blob/release-v2.5.0/contracts/access/roles/MinterRole.sol\":746:759  _removeMinter */\n      tag_116\n        /* \"https://github.com/OpenZeppelin/openzeppelin-contracts/blob/release-v2.5.0/contracts/access/roles/MinterRole.sol\":746:773  _removeMinter(_msgSender()) */\n      jump\t// in\n    tag_114:\n        /* \"https://github.com/OpenZeppelin/openzeppelin-contracts/blob/release-v2.5.0/contracts/access/roles/MinterRole.sol\":703:780  function renounceMinter() public {... */\n      jump\t// out\n        /* \"https://github.com/OpenZeppelin/openzeppelin-contracts/blob/release-v2.5.0/contracts/token/ERC20/ERC20.sol\":4496:4754  function decreaseAllowance(address spender, uint256 subtractedValue) public returns (bool) {... */\n    tag_59:\n        /* \"https://github.com/OpenZeppelin/openzeppelin-contracts/blob/release-v2.5.0/contracts/token/ERC20/ERC20.sol\":4581:4585  bool */\n      0x00\n        /* \"https://github.com/OpenZeppelin/openzeppelin-contracts/blob/release-v2.5.0/contracts/token/ERC20/ERC20.sol\":4597:4726  _approve(_msgSender(), spender, _allowances[_msgSender()][spender].sub(subtractedValue, \"ERC20: decreased allowance below zero\")) */\n      tag_118\n        /* \"https://github.com/OpenZeppelin/openzeppelin-contracts/blob/release-v2.5.0/contracts/token/ERC20/ERC20.sol\":4606:4618  _msgSender() */\n      tag_119\n        /* \"https://github.com/OpenZeppelin/openzeppelin-contracts/blob/release-v2.5.0/contracts/token/ERC20/ERC20.sol\":4606:4616  _msgSender */\n      tag_76\n        /* \"https://github.com/OpenZeppelin/openzeppelin-contracts/blob/release-v2.5.0/contracts/token/ERC20/ERC20.sol\":4606:4618  _msgSender() */\n      jump\t// in\n    tag_119:\n        /* \"https://github.com/OpenZeppelin/openzeppelin-contracts/blob/release-v2.5.0/contracts/token/ERC20/ERC20.sol\":4620:4627  spender */\n      dup5\n        /* \"https://github.com/OpenZeppelin/openzeppelin-contracts/blob/release-v2.5.0/contracts/token/ERC20/ERC20.sol\":4629:4725  _allowances[_msgSender()][spender].sub(subtractedValue, \"ERC20: decreased allowance below zero\") */\n      tag_120\n        /* \"https://github.com/OpenZeppelin/openzeppelin-contracts/blob/release-v2.5.0/contracts/token/ERC20/ERC20.sol\":4668:4683  subtractedValue */\n      dup6\n        /* \"https://github.com/OpenZeppelin/openzeppelin-contracts/blob/release-v2.5.0/contracts/token/ERC20/ERC20.sol\":4629:4725  _allowances[_msgSender()][spender].sub(subtractedValue, \"ERC20: decreased allowance below zero\") */\n      mload(0x40)\n      dup1\n      0x60\n      add\n      0x40\n      mstore\n      dup1\n      0x25\n      dup2\n      mstore\n      0x20\n      add\n      data_f8b476f7d28209d77d4a4ac1fe36b9f8259aa1bb6bddfa6e89de7e51615cf8a8\n      0x25\n      swap2\n      codecopy\n        /* \"https://github.com/OpenZeppelin/openzeppelin-contracts/blob/release-v2.5.0/contracts/token/ERC20/ERC20.sol\":4629:4640  _allowances */\n      0x01\n        /* \"https://github.com/OpenZeppelin/openzeppelin-contracts/blob/release-v2.5.0/contracts/token/ERC20/ERC20.sol\":4629:4654  _allowances[_msgSender()] */\n      0x00\n        /* \"https://github.com/OpenZeppelin/openzeppelin-contracts/blob/release-v2.5.0/contracts/token/ERC20/ERC20.sol\":4641:4653  _msgSender() */\n      tag_121\n        /* \"https://github.com/OpenZeppelin/openzeppelin-contracts/blob/release-v2.5.0/contracts/token/ERC20/ERC20.sol\":4641:4651  _msgSender */\n      tag_76\n        /* \"https://github.com/OpenZeppelin/openzeppelin-contracts/blob/release-v2.5.0/contracts/token/ERC20/ERC20.sol\":4641:4653  _msgSender() */\n      jump\t// in\n    tag_121:\n        /* \"https://github.com/OpenZeppelin/openzeppelin-contracts/blob/release-v2.5.0/contracts/token/ERC20/ERC20.sol\":4629:4654  _allowances[_msgSender()] */\n      0xffffffffffffffffffffffffffffffffffffffff\n      and\n      0xffffffffffffffffffffffffffffffffffffffff\n      and\n      dup2\n      mstore\n      0x20\n      add\n      swap1\n      dup2\n      mstore\n      0x20\n      add\n      0x00\n      keccak256\n        /* \"https://github.com/OpenZeppelin/openzeppelin-contracts/blob/release-v2.5.0/contracts/token/ERC20/ERC20.sol\":4629:4663  _allowances[_msgSender()][spender] */\n      0x00\n        /* \"https://github.com/OpenZeppelin/openzeppelin-contracts/blob/release-v2.5.0/contracts/token/ERC20/ERC20.sol\":4655:4662  spender */\n      dup11\n        /* \"https://github.com/OpenZeppelin/openzeppelin-contracts/blob/release-v2.5.0/contracts/token/ERC20/ERC20.sol\":4629:4663  _allowances[_msgSender()][spender] */\n      0xffffffffffffffffffffffffffffffffffffffff\n      and\n      0xffffffffffffffffffffffffffffffffffffffff\n      and\n      dup2\n      mstore\n      0x20\n      add\n      swap1\n      dup2\n      mstore\n      0x20\n      add\n      0x00\n      keccak256\n      sload\n        /* \"https://github.com/OpenZeppelin/openzeppelin-contracts/blob/release-v2.5.0/contracts/token/ERC20/ERC20.sol\":4629:4667  _allowances[_msgSender()][spender].sub */\n      tag_86\n      swap1\n        /* \"https://github.com/OpenZeppelin/openzeppelin-contracts/blob/release-v2.5.0/contracts/token/ERC20/ERC20.sol\":4629:4725  _allowances[_msgSender()][spender].sub(subtractedValue, \"ERC20: decreased allowance below zero\") */\n      swap3\n      swap2\n      swap1\n      0xffffffff\n      and\n      jump\t// in\n    tag_120:\n        /* \"https://github.com/OpenZeppelin/openzeppelin-contracts/blob/release-v2.5.0/contracts/token/ERC20/ERC20.sol\":4597:4605  _approve */\n      tag_77\n        /* \"https://github.com/OpenZeppelin/openzeppelin-contracts/blob/release-v2.5.0/contracts/token/ERC20/ERC20.sol\":4597:4726  _approve(_msgSender(), spender, _allowances[_msgSender()][spender].sub(subtractedValue, \"ERC20: decreased allowance below zero\")) */\n      jump\t// in\n    tag_118:\n        /* \"https://github.com/OpenZeppelin/openzeppelin-contracts/blob/release-v2.5.0/contracts/token/ERC20/ERC20.sol\":4743:4747  true */\n      0x01\n        /* \"https://github.com/OpenZeppelin/openzeppelin-contracts/blob/release-v2.5.0/contracts/token/ERC20/ERC20.sol\":4736:4747  return true */\n      swap1\n      pop\n        /* \"https://github.com/OpenZeppelin/openzeppelin-contracts/blob/release-v2.5.0/contracts/token/ERC20/ERC20.sol\":4496:4754  function decreaseAllowance(address spender, uint256 subtractedValue) public returns (bool) {... */\n      swap3\n      swap2\n      pop\n      pop\n      jump\t// out\n        /* \"https://github.com/OpenZeppelin/openzeppelin-contracts/blob/release-v2.5.0/contracts/token/ERC20/ERC20.sol\":2017:2172  function transfer(address recipient, uint256 amount) public returns (bool) {... */\n    tag_62:\n        /* \"https://github.com/OpenZeppelin/openzeppelin-contracts/blob/release-v2.5.0/contracts/token/ERC20/ERC20.sol\":2086:2090  bool */\n      0x00\n        /* \"https://github.com/OpenZeppelin/openzeppelin-contracts/blob/release-v2.5.0/contracts/token/ERC20/ERC20.sol\":2102:2144  _transfer(_msgSender(), recipient, amount) */\n      tag_123\n        /* \"https://github.com/OpenZeppelin/openzeppelin-contracts/blob/release-v2.5.0/contracts/token/ERC20/ERC20.sol\":2112:2124  _msgSender() */\n      tag_124\n        /* \"https://github.com/OpenZeppelin/openzeppelin-contracts/blob/release-v2.5.0/contracts/token/ERC20/ERC20.sol\":2112:2122  _msgSender */\n      tag_76\n        /* \"https://github.com/OpenZeppelin/openzeppelin-contracts/blob/release-v2.5.0/contracts/token/ERC20/ERC20.sol\":2112:2124  _msgSender() */\n      jump\t// in\n    tag_124:\n        /* \"https://github.com/OpenZeppelin/openzeppelin-contracts/blob/release-v2.5.0/contracts/token/ERC20/ERC20.sol\":2126:2135  recipient */\n      dup5\n        /* \"https://github.com/OpenZeppelin/openzeppelin-contracts/blob/release-v2.5.0/contracts/token/ERC20/ERC20.sol\":2137:2143  amount */\n      dup5\n        /* \"https://github.com/OpenZeppelin/openzeppelin-contracts/blob/release-v2.5.0/contracts/token/ERC20/ERC20.sol\":2102:2111  _transfer */\n      tag_81\n        /* \"https://github.com/OpenZeppelin/openzeppelin-contracts/blob/release-v2.5.0/contracts/token/ERC20/ERC20.sol\":2102:2144  _transfer(_msgSender(), recipient, amount) */\n      jump\t// in\n    tag_123:\n        /* \"https://github.com/OpenZeppelin/openzeppelin-contracts/blob/release-v2.5.0/contracts/token/ERC20/ERC20.sol\":2161:2165  true */\n      0x01\n        /* \"https://github.com/OpenZeppelin/openzeppelin-contracts/blob/release-v2.5.0/contracts/token/ERC20/ERC20.sol\":2154:2165  return true */\n      swap1\n      pop\n        /* \"https://github.com/OpenZeppelin/openzeppelin-contracts/blob/release-v2.5.0/contracts/token/ERC20/ERC20.sol\":2017:2172  function transfer(address recipient, uint256 amount) public returns (bool) {... */\n      swap3\n      swap2\n      pop\n      pop\n      jump\t// out\n        /* \"https://github.com/OpenZeppelin/openzeppelin-contracts/blob/release-v2.5.0/contracts/access/roles/MinterRole.sol\":494:601  function isMinter(address account) public view returns (bool) {... */\n    tag_65:\n        /* \"https://github.com/OpenZeppelin/openzeppelin-contracts/blob/release-v2.5.0/contracts/access/roles/MinterRole.sol\":550:554  bool */\n      0x00\n        /* \"https://github.com/OpenZeppelin/openzeppelin-contracts/blob/release-v2.5.0/contracts/access/roles/MinterRole.sol\":573:594  _minters.has(account) */\n      tag_126\n        /* \"https://github.com/OpenZeppelin/openzeppelin-contracts/blob/release-v2.5.0/contracts/access/roles/MinterRole.sol\":586:593  account */\n      dup3\n        /* \"https://github.com/OpenZeppelin/openzeppelin-contracts/blob/release-v2.5.0/contracts/access/roles/MinterRole.sol\":573:581  _minters */\n      0x06\n        /* \"https://github.com/OpenZeppelin/openzeppelin-contracts/blob/release-v2.5.0/contracts/access/roles/MinterRole.sol\":573:585  _minters.has */\n      tag_127\n      swap1\n        /* \"https://github.com/OpenZeppelin/openzeppelin-contracts/blob/release-v2.5.0/contracts/access/roles/MinterRole.sol\":573:594  _minters.has(account) */\n      swap2\n      swap1\n      0xffffffff\n      and\n      jump\t// in\n    tag_126:\n        /* \"https://github.com/OpenZeppelin/openzeppelin-contracts/blob/release-v2.5.0/contracts/access/roles/MinterRole.sol\":566:594  return _minters.has(account) */\n      swap1\n      pop\n        /* \"https://github.com/OpenZeppelin/openzeppelin-contracts/blob/release-v2.5.0/contracts/access/roles/MinterRole.sol\":494:601  function isMinter(address account) public view returns (bool) {... */\n      swap2\n      swap1\n      pop\n      jump\t// out\n        /* \"https://github.com/OpenZeppelin/openzeppelin-contracts/blob/release-v2.5.0/contracts/token/ERC20/ERC20.sol\":2230:2362  function allowance(address owner, address spender) public view returns (uint256) {... */\n    tag_68:\n        /* \"https://github.com/OpenZeppelin/openzeppelin-contracts/blob/release-v2.5.0/contracts/token/ERC20/ERC20.sol\":2302:2309  uint256 */\n      0x00\n        /* \"https://github.com/OpenZeppelin/openzeppelin-contracts/blob/release-v2.5.0/contracts/token/ERC20/ERC20.sol\":2328:2339  _allowances */\n      0x01\n        /* \"https://github.com/OpenZeppelin/openzeppelin-contracts/blob/release-v2.5.0/contracts/token/ERC20/ERC20.sol\":2328:2346  _allowances[owner] */\n      0x00\n        /* \"https://github.com/OpenZeppelin/openzeppelin-contracts/blob/release-v2.5.0/contracts/token/ERC20/ERC20.sol\":2340:2345  owner */\n      dup5\n        /* \"https://github.com/OpenZeppelin/openzeppelin-contracts/blob/release-v2.5.0/contracts/token/ERC20/ERC20.sol\":2328:2346  _allowances[owner] */\n      0xffffffffffffffffffffffffffffffffffffffff\n      and\n      0xffffffffffffffffffffffffffffffffffffffff\n      and\n      dup2\n      mstore\n      0x20\n      add\n      swap1\n      dup2\n      mstore\n      0x20\n      add\n      0x00\n      keccak256\n        /* \"https://github.com/OpenZeppelin/openzeppelin-contracts/blob/release-v2.5.0/contracts/token/ERC20/ERC20.sol\":2328:2355  _allowances[owner][spender] */\n      0x00\n        /* \"https://github.com/OpenZeppelin/openzeppelin-contracts/blob/release-v2.5.0/contracts/token/ERC20/ERC20.sol\":2347:2354  spender */\n      dup4\n        /* \"https://github.com/OpenZeppelin/openzeppelin-contracts/blob/release-v2.5.0/contracts/token/ERC20/ERC20.sol\":2328:2355  _allowances[owner][spender] */\n      0xffffffffffffffffffffffffffffffffffffffff\n      and\n      0xffffffffffffffffffffffffffffffffffffffff\n      and\n      dup2\n      mstore\n      0x20\n      add\n      swap1\n      dup2\n      mstore\n      0x20\n      add\n      0x00\n      keccak256\n      sload\n        /* \"https://github.com/OpenZeppelin/openzeppelin-contracts/blob/release-v2.5.0/contracts/token/ERC20/ERC20.sol\":2321:2355  return _allowances[owner][spender] */\n      swap1\n      pop\n        /* \"https://github.com/OpenZeppelin/openzeppelin-contracts/blob/release-v2.5.0/contracts/token/ERC20/ERC20.sol\":2230:2362  function allowance(address owner, address spender) public view returns (uint256) {... */\n      swap3\n      swap2\n      pop\n      pop\n      jump\t// out\n        /* \"https://github.com/OpenZeppelin/openzeppelin-contracts/blob/release-v2.5.0/contracts/GSN/Context.sol\":788:884  function _msgSender() internal view returns (address payable) {... */\n    tag_76:\n        /* \"https://github.com/OpenZeppelin/openzeppelin-contracts/blob/release-v2.5.0/contracts/GSN/Context.sol\":833:848  address payable */\n      0x00\n        /* \"https://github.com/OpenZeppelin/openzeppelin-contracts/blob/release-v2.5.0/contracts/GSN/Context.sol\":867:877  msg.sender */\n      caller\n        /* \"https://github.com/OpenZeppelin/openzeppelin-contracts/blob/release-v2.5.0/contracts/GSN/Context.sol\":860:877  return msg.sender */\n      swap1\n      pop\n        /* \"https://github.com/OpenZeppelin/openzeppelin-contracts/blob/release-v2.5.0/contracts/GSN/Context.sol\":788:884  function _msgSender() internal view returns (address payable) {... */\n      swap1\n      jump\t// out\n        /* \"https://github.com/OpenZeppelin/openzeppelin-contracts/blob/release-v2.5.0/contracts/token/ERC20/ERC20.sol\":7350:7682  function _approve(address owner, address spender, uint256 amount) internal {... */\n    tag_77:\n        /* \"https://github.com/OpenZeppelin/openzeppelin-contracts/blob/release-v2.5.0/contracts/token/ERC20/ERC20.sol\":7460:7461  0 */\n      0x00\n        /* \"https://github.com/OpenZeppelin/openzeppelin-contracts/blob/release-v2.5.0/contracts/token/ERC20/ERC20.sol\":7443:7462  owner != address(0) */\n      0xffffffffffffffffffffffffffffffffffffffff\n      and\n        /* \"https://github.com/OpenZeppelin/openzeppelin-contracts/blob/release-v2.5.0/contracts/token/ERC20/ERC20.sol\":7443:7448  owner */\n      dup4\n        /* \"https://github.com/OpenZeppelin/openzeppelin-contracts/blob/release-v2.5.0/contracts/token/ERC20/ERC20.sol\":7443:7462  owner != address(0) */\n      0xffffffffffffffffffffffffffffffffffffffff\n      and\n      eq\n      iszero\n        /* \"https://github.com/OpenZeppelin/openzeppelin-contracts/blob/release-v2.5.0/contracts/token/ERC20/ERC20.sol\":7435:7503  require(owner != address(0), \"ERC20: approve from the zero address\") */\n      iszero\n      iszero\n      tag_131\n      jumpi\n      mload(0x40)\n      0x08c379a000000000000000000000000000000000000000000000000000000000\n      dup2\n      mstore\n      0x04\n      add\n      dup1\n      dup1\n      0x20\n      add\n      dup3\n      dup2\n      sub\n      dup3\n      mstore\n      0x24\n      dup2\n      mstore\n      0x20\n      add\n      dup1\n      data_c953f4879035ed60e766b34720f656aab5c697b141d924c283124ecedb91c208\n      0x24\n      swap2\n      codecopy\n      0x40\n      add\n      swap2\n      pop\n      pop\n      mload(0x40)\n      dup1\n      swap2\n      sub\n      swap1\n      revert\n    tag_131:\n        /* \"https://github.com/OpenZeppelin/openzeppelin-contracts/blob/release-v2.5.0/contracts/token/ERC20/ERC20.sol\":7540:7541  0 */\n      0x00\n        /* \"https://github.com/OpenZeppelin/openzeppelin-contracts/blob/release-v2.5.0/contracts/token/ERC20/ERC20.sol\":7521:7542  spender != address(0) */\n      0xffffffffffffffffffffffffffffffffffffffff\n      and\n        /* \"https://github.com/OpenZeppelin/openzeppelin-contracts/blob/release-v2.5.0/contracts/token/ERC20/ERC20.sol\":7521:7528  spender */\n      dup3\n        /* \"https://github.com/OpenZeppelin/openzeppelin-contracts/blob/release-v2.5.0/contracts/token/ERC20/ERC20.sol\":7521:7542  spender != address(0) */\n      0xffffffffffffffffffffffffffffffffffffffff\n      and\n      eq\n      iszero\n        /* \"https://github.com/OpenZeppelin/openzeppelin-contracts/blob/release-v2.5.0/contracts/token/ERC20/ERC20.sol\":7513:7581  require(spender != address(0), \"ERC20: approve to the zero address\") */\n      iszero\n      iszero\n      tag_132\n      jumpi\n      mload(0x40)\n      0x08c379a000000000000000000000000000000000000000000000000000000000\n      dup2\n      mstore\n      0x04\n      add\n      dup1\n      dup1\n      0x20\n      add\n      dup3\n      dup2\n      sub\n      dup3\n      mstore\n      0x22\n      dup2\n      mstore\n      0x20\n      add\n      dup1\n      data_24883cc5fe64ace9d0df1893501ecb93c77180f0ff69cca79affb3c316dc8029\n      0x22\n      swap2\n      codecopy\n      0x40\n      add\n      swap2\n      pop\n      pop\n      mload(0x40)\n      dup1\n      swap2\n      sub\n      swap1\n      revert\n    tag_132:\n        /* \"https://github.com/OpenZeppelin/openzeppelin-contracts/blob/release-v2.5.0/contracts/token/ERC20/ERC20.sol\":7622:7628  amount */\n      dup1\n        /* \"https://github.com/OpenZeppelin/openzeppelin-contracts/blob/release-v2.5.0/contracts/token/ERC20/ERC20.sol\":7592:7603  _allowances */\n      0x01\n        /* \"https://github.com/OpenZeppelin/openzeppelin-contracts/blob/release-v2.5.0/contracts/token/ERC20/ERC20.sol\":7592:7610  _allowances[owner] */\n      0x00\n        /* \"https://github.com/OpenZeppelin/openzeppelin-contracts/blob/release-v2.5.0/contracts/token/ERC20/ERC20.sol\":7604:7609  owner */\n      dup6\n        /* \"https://github.com/OpenZeppelin/openzeppelin-contracts/blob/release-v2.5.0/contracts/token/ERC20/ERC20.sol\":7592:7610  _allowances[owner] */\n      0xffffffffffffffffffffffffffffffffffffffff\n      and\n      0xffffffffffffffffffffffffffffffffffffffff\n      and\n      dup2\n      mstore\n      0x20\n      add\n      swap1\n      dup2\n      mstore\n      0x20\n      add\n      0x00\n      keccak256\n        /* \"https://github.com/OpenZeppelin/openzeppelin-contracts/blob/release-v2.5.0/contracts/token/ERC20/ERC20.sol\":7592:7619  _allowances[owner][spender] */\n      0x00\n        /* \"https://github.com/OpenZeppelin/openzeppelin-contracts/blob/release-v2.5.0/contracts/token/ERC20/ERC20.sol\":7611:7618  spender */\n      dup5\n        /* \"https://github.com/OpenZeppelin/openzeppelin-contracts/blob/release-v2.5.0/contracts/token/ERC20/ERC20.sol\":7592:7619  _allowances[owner][spender] */\n      0xffffffffffffffffffffffffffffffffffffffff\n      and\n      0xffffffffffffffffffffffffffffffffffffffff\n      and\n      dup2\n      mstore\n      0x20\n      add\n      swap1\n      dup2\n      mstore\n      0x20\n      add\n      0x00\n      keccak256\n        /* \"https://github.com/OpenZeppelin/openzeppelin-contracts/blob/release-v2.5.0/contracts/token/ERC20/ERC20.sol\":7592:7628  _allowances[owner][spender] = amount */\n      dup2\n      swap1\n      sstore\n      pop\n        /* \"https://github.com/OpenZeppelin/openzeppelin-contracts/blob/release-v2.5.0/contracts/token/ERC20/ERC20.sol\":7659:7666  spender */\n      dup2\n        /* \"https://github.com/OpenZeppelin/openzeppelin-contracts/blob/release-v2.5.0/contracts/token/ERC20/ERC20.sol\":7643:7675  Approval(owner, spender, amount) */\n      0xffffffffffffffffffffffffffffffffffffffff\n      and\n        /* \"https://github.com/OpenZeppelin/openzeppelin-contracts/blob/release-v2.5.0/contracts/token/ERC20/ERC20.sol\":7652:7657  owner */\n      dup4\n        /* \"https://github.com/OpenZeppelin/openzeppelin-contracts/blob/release-v2.5.0/contracts/token/ERC20/ERC20.sol\":7643:7675  Approval(owner, spender, amount) */\n      0xffffffffffffffffffffffffffffffffffffffff\n      and\n      0x8c5be1e5ebec7d5bd14f71427d1e84f3dd0314c0f7b2291e5b200ac8c7c3b925\n        /* \"https://github.com/OpenZeppelin/openzeppelin-contracts/blob/release-v2.5.0/contracts/token/ERC20/ERC20.sol\":7668:7674  amount */\n      dup4\n        /* \"https://github.com/OpenZeppelin/openzeppelin-contracts/blob/release-v2.5.0/contracts/token/ERC20/ERC20.sol\":7643:7675  Approval(owner, spender, amount) */\n      mload(0x40)\n      dup1\n      dup3\n      dup2\n      mstore\n      0x20\n      add\n      swap2\n      pop\n      pop\n      mload(0x40)\n      dup1\n      swap2\n      sub\n      swap1\n      log3\n        /* \"https://github.com/OpenZeppelin/openzeppelin-contracts/blob/release-v2.5.0/contracts/token/ERC20/ERC20.sol\":7350:7682  function _approve(address owner, address spender, uint256 amount) internal {... */\n      pop\n      pop\n      pop\n      jump\t// out\n        /* \"https://github.com/OpenZeppelin/openzeppelin-contracts/blob/release-v2.5.0/contracts/token/ERC20/ERC20.sol\":5228:5692  function _transfer(address sender, address recipient, uint256 amount) internal {... */\n    tag_81:\n        /* \"https://github.com/OpenZeppelin/openzeppelin-contracts/blob/release-v2.5.0/contracts/token/ERC20/ERC20.sol\":5343:5344  0 */\n      0x00\n        /* \"https://github.com/OpenZeppelin/openzeppelin-contracts/blob/release-v2.5.0/contracts/token/ERC20/ERC20.sol\":5325:5345  sender != address(0) */\n      0xffffffffffffffffffffffffffffffffffffffff\n      and\n        /* \"https://github.com/OpenZeppelin/openzeppelin-contracts/blob/release-v2.5.0/contracts/token/ERC20/ERC20.sol\":5325:5331  sender */\n      dup4\n        /* \"https://github.com/OpenZeppelin/openzeppelin-contracts/blob/release-v2.5.0/contracts/token/ERC20/ERC20.sol\":5325:5345  sender != address(0) */\n      0xffffffffffffffffffffffffffffffffffffffff\n      and\n      eq\n      iszero\n        /* \"https://github.com/OpenZeppelin/openzeppelin-contracts/blob/release-v2.5.0/contracts/token/ERC20/ERC20.sol\":5317:5387  require(sender != address(0), \"ERC20: transfer from the zero address\") */\n      iszero\n      iszero\n      tag_134\n      jumpi\n      mload(0x40)\n      0x08c379a000000000000000000000000000000000000000000000000000000000\n      dup2\n      mstore\n      0x04\n      add\n      dup1\n      dup1\n      0x20\n      add\n      dup3\n      dup2\n      sub\n      dup3\n      mstore\n      0x25\n      dup2\n      mstore\n      0x20\n      add\n      dup1\n      data_baecc556b46f4ed0f2b4cb599d60785ac8563dd2dc0a5bf12edea1c39e5e1fea\n      0x25\n      swap2\n      codecopy\n      0x40\n      add\n      swap2\n      pop\n      pop\n      mload(0x40)\n      dup1\n      swap2\n      sub\n      swap1\n      revert\n    tag_134:\n        /* \"https://github.com/OpenZeppelin/openzeppelin-contracts/blob/release-v2.5.0/contracts/token/ERC20/ERC20.sol\":5426:5427  0 */\n      0x00\n        /* \"https://github.com/OpenZeppelin/openzeppelin-contracts/blob/release-v2.5.0/contracts/token/ERC20/ERC20.sol\":5405:5428  recipient != address(0) */\n      0xffffffffffffffffffffffffffffffffffffffff\n      and\n        /* \"https://github.com/OpenZeppelin/openzeppelin-contracts/blob/release-v2.5.0/contracts/token/ERC20/ERC20.sol\":5405:5414  recipient */\n      dup3\n        /* \"https://github.com/OpenZeppelin/openzeppelin-contracts/blob/release-v2.5.0/contracts/token/ERC20/ERC20.sol\":5405:5428  recipient != address(0) */\n      0xffffffffffffffffffffffffffffffffffffffff\n      and\n      eq\n      iszero\n        /* \"https://github.com/OpenZeppelin/openzeppelin-contracts/blob/release-v2.5.0/contracts/token/ERC20/ERC20.sol\":5397:5468  require(recipient != address(0), \"ERC20: transfer to the zero address\") */\n      iszero\n      iszero\n      tag_135\n      jumpi\n      mload(0x40)\n      0x08c379a000000000000000000000000000000000000000000000000000000000\n      dup2\n      mstore\n      0x04\n      add\n      dup1\n      dup1\n      0x20\n      add\n      dup3\n      dup2\n      sub\n      dup3\n      mstore\n      0x23\n      dup2\n      mstore\n      0x20\n      add\n      dup1\n      data_0557e210f7a69a685100a7e4e3d0a7024c546085cee28910fd17d0b081d9516f\n      0x23\n      swap2\n      codecopy\n      0x40\n      add\n      swap2\n      pop\n      pop\n      mload(0x40)\n      dup1\n      swap2\n      sub\n      swap1\n      revert\n    tag_135:\n        /* \"https://github.com/OpenZeppelin/openzeppelin-contracts/blob/release-v2.5.0/contracts/token/ERC20/ERC20.sol\":5499:5570  _balances[sender].sub(amount, \"ERC20: transfer amount exceeds balance\") */\n      tag_136\n        /* \"https://github.com/OpenZeppelin/openzeppelin-contracts/blob/release-v2.5.0/contracts/token/ERC20/ERC20.sol\":5521:5527  amount */\n      dup2\n        /* \"https://github.com/OpenZeppelin/openzeppelin-contracts/blob/release-v2.5.0/contracts/token/ERC20/ERC20.sol\":5499:5570  _balances[sender].sub(amount, \"ERC20: transfer amount exceeds balance\") */\n      mload(0x40)\n      dup1\n      0x60\n      add\n      0x40\n      mstore\n      dup1\n      0x26\n      dup2\n      mstore\n      0x20\n      add\n      data_4107e8a8b9e94bf8ff83080ddec1c0bffe897ebc2241b89d44f66b3d274088b6\n      0x26\n      swap2\n      codecopy\n        /* \"https://github.com/OpenZeppelin/openzeppelin-contracts/blob/release-v2.5.0/contracts/token/ERC20/ERC20.sol\":5499:5508  _balances */\n      0x00\n        /* \"https://github.com/OpenZeppelin/openzeppelin-contracts/blob/release-v2.5.0/contracts/token/ERC20/ERC20.sol\":5499:5516  _balances[sender] */\n      dup1\n        /* \"https://github.com/OpenZeppelin/openzeppelin-contracts/blob/release-v2.5.0/contracts/token/ERC20/ERC20.sol\":5509:5515  sender */\n      dup8\n        /* \"https://github.com/OpenZeppelin/openzeppelin-contracts/blob/release-v2.5.0/contracts/token/ERC20/ERC20.sol\":5499:5516  _balances[sender] */\n      0xffffffffffffffffffffffffffffffffffffffff\n      and\n      0xffffffffffffffffffffffffffffffffffffffff\n      and\n      dup2\n      mstore\n      0x20\n      add\n      swap1\n      dup2\n      mstore\n      0x20\n      add\n      0x00\n      keccak256\n      sload\n        /* \"https://github.com/OpenZeppelin/openzeppelin-contracts/blob/release-v2.5.0/contracts/token/ERC20/ERC20.sol\":5499:5520  _balances[sender].sub */\n      tag_86\n      swap1\n        /* \"https://github.com/OpenZeppelin/openzeppelin-contracts/blob/release-v2.5.0/contracts/token/ERC20/ERC20.sol\":5499:5570  _balances[sender].sub(amount, \"ERC20: transfer amount exceeds balance\") */\n      swap3\n      swap2\n      swap1\n      0xffffffff\n      and\n      jump\t// in\n    tag_136:\n        /* \"https://github.com/OpenZeppelin/openzeppelin-contracts/blob/release-v2.5.0/contracts/token/ERC20/ERC20.sol\":5479:5488  _balances */\n      0x00\n        /* \"https://github.com/OpenZeppelin/openzeppelin-contracts/blob/release-v2.5.0/contracts/token/ERC20/ERC20.sol\":5479:5496  _balances[sender] */\n      dup1\n        /* \"https://github.com/OpenZeppelin/openzeppelin-contracts/blob/release-v2.5.0/contracts/token/ERC20/ERC20.sol\":5489:5495  sender */\n      dup6\n        /* \"https://github.com/OpenZeppelin/openzeppelin-contracts/blob/release-v2.5.0/contracts/token/ERC20/ERC20.sol\":5479:5496  _balances[sender] */\n      0xffffffffffffffffffffffffffffffffffffffff\n      and\n      0xffffffffffffffffffffffffffffffffffffffff\n      and\n      dup2\n      mstore\n      0x20\n      add\n      swap1\n      dup2\n      mstore\n      0x20\n      add\n      0x00\n      keccak256\n        /* \"https://github.com/OpenZeppelin/openzeppelin-contracts/blob/release-v2.5.0/contracts/token/ERC20/ERC20.sol\":5479:5570  _balances[sender] = _balances[sender].sub(amount, \"ERC20: transfer amount exceeds balance\") */\n      dup2\n      swap1\n      sstore\n      pop\n        /* \"https://github.com/OpenZeppelin/openzeppelin-contracts/blob/release-v2.5.0/contracts/token/ERC20/ERC20.sol\":5603:5635  _balances[recipient].add(amount) */\n      tag_137\n        /* \"https://github.com/OpenZeppelin/openzeppelin-contracts/blob/release-v2.5.0/contracts/token/ERC20/ERC20.sol\":5628:5634  amount */\n      dup2\n        /* \"https://github.com/OpenZeppelin/openzeppelin-contracts/blob/release-v2.5.0/contracts/token/ERC20/ERC20.sol\":5603:5612  _balances */\n      0x00\n        /* \"https://github.com/OpenZeppelin/openzeppelin-contracts/blob/release-v2.5.0/contracts/token/ERC20/ERC20.sol\":5603:5623  _balances[recipient] */\n      dup1\n        /* \"https://github.com/OpenZeppelin/openzeppelin-contracts/blob/release-v2.5.0/contracts/token/ERC20/ERC20.sol\":5613:5622  recipient */\n      dup6\n        /* \"https://github.com/OpenZeppelin/openzeppelin-contracts/blob/release-v2.5.0/contracts/token/ERC20/ERC20.sol\":5603:5623  _balances[recipient] */\n      0xffffffffffffffffffffffffffffffffffffffff\n      and\n      0xffffffffffffffffffffffffffffffffffffffff\n      and\n      dup2\n      mstore\n      0x20\n      add\n      swap1\n      dup2\n      mstore\n      0x20\n      add\n      0x00\n      keccak256\n      sload\n        /* \"https://github.com/OpenZeppelin/openzeppelin-contracts/blob/release-v2.5.0/contracts/token/ERC20/ERC20.sol\":5603:5627  _balances[recipient].add */\n      tag_93\n      swap1\n        /* \"https://github.com/OpenZeppelin/openzeppelin-contracts/blob/release-v2.5.0/contracts/token/ERC20/ERC20.sol\":5603:5635  _balances[recipient].add(amount) */\n      swap2\n      swap1\n      0xffffffff\n      and\n      jump\t// in\n    tag_137:\n        /* \"https://github.com/OpenZeppelin/openzeppelin-contracts/blob/release-v2.5.0/contracts/token/ERC20/ERC20.sol\":5580:5589  _balances */\n      0x00\n        /* \"https://github.com/OpenZeppelin/openzeppelin-contracts/blob/release-v2.5.0/contracts/token/ERC20/ERC20.sol\":5580:5600  _balances[recipient] */\n      dup1\n        /* \"https://github.com/OpenZeppelin/openzeppelin-contracts/blob/release-v2.5.0/contracts/token/ERC20/ERC20.sol\":5590:5599  recipient */\n      dup5\n        /* \"https://github.com/OpenZeppelin/openzeppelin-contracts/blob/release-v2.5.0/contracts/token/ERC20/ERC20.sol\":5580:5600  _balances[recipient] */\n      0xffffffffffffffffffffffffffffffffffffffff\n      and\n      0xffffffffffffffffffffffffffffffffffffffff\n      and\n      dup2\n      mstore\n      0x20\n      add\n      swap1\n      dup2\n      mstore\n      0x20\n      add\n      0x00\n      keccak256\n        /* \"https://github.com/OpenZeppelin/openzeppelin-contracts/blob/release-v2.5.0/contracts/token/ERC20/ERC20.sol\":5580:5635  _balances[recipient] = _balances[recipient].add(amount) */\n      dup2\n      swap1\n      sstore\n      pop\n        /* \"https://github.com/OpenZeppelin/openzeppelin-contracts/blob/release-v2.5.0/contracts/token/ERC20/ERC20.sol\":5667:5676  recipient */\n      dup2\n        /* \"https://github.com/OpenZeppelin/openzeppelin-contracts/blob/release-v2.5.0/contracts/token/ERC20/ERC20.sol\":5650:5685  Transfer(sender, recipient, amount) */\n      0xffffffffffffffffffffffffffffffffffffffff\n      and\n        /* \"https://github.com/OpenZeppelin/openzeppelin-contracts/blob/release-v2.5.0/contracts/token/ERC20/ERC20.sol\":5659:5665  sender */\n      dup4\n        /* \"https://github.com/OpenZeppelin/openzeppelin-contracts/blob/release-v2.5.0/contracts/token/ERC20/ERC20.sol\":5650:5685  Transfer(sender, recipient, amount) */\n      0xffffffffffffffffffffffffffffffffffffffff\n      and\n      0xddf252ad1be2c89b69c2b068fc378daa952ba7f163c4a11628f55a4df523b3ef\n        /* \"https://github.com/OpenZeppelin/openzeppelin-contracts/blob/release-v2.5.0/contracts/token/ERC20/ERC20.sol\":5678:5684  amount */\n      dup4\n        /* \"https://github.com/OpenZeppelin/openzeppelin-contracts/blob/release-v2.5.0/contracts/token/ERC20/ERC20.sol\":5650:5685  Transfer(sender, recipient, amount) */\n      mload(0x40)\n      dup1\n      dup3\n      dup2\n      mstore\n      0x20\n      add\n      swap2\n      pop\n      pop\n      mload(0x40)\n      dup1\n      swap2\n      sub\n      swap1\n      log3\n        /* \"https://github.com/OpenZeppelin/openzeppelin-contracts/blob/release-v2.5.0/contracts/token/ERC20/ERC20.sol\":5228:5692  function _transfer(address sender, address recipient, uint256 amount) internal {... */\n      pop\n      pop\n      pop\n      jump\t// out\n        /* \"https://github.com/OpenZeppelin/openzeppelin-contracts/blob/release-v2.5.0/contracts/math/SafeMath.sol\":1732:1919  function sub(uint256 a, uint256 b, string memory errorMessage) internal pure returns (uint256) {... */\n    tag_86:\n        /* \"https://github.com/OpenZeppelin/openzeppelin-contracts/blob/release-v2.5.0/contracts/math/SafeMath.sol\":1818:1825  uint256 */\n      0x00\n        /* \"https://github.com/OpenZeppelin/openzeppelin-contracts/blob/release-v2.5.0/contracts/math/SafeMath.sol\":1850:1851  a */\n      dup4\n        /* \"https://github.com/OpenZeppelin/openzeppelin-contracts/blob/release-v2.5.0/contracts/math/SafeMath.sol\":1845:1846  b */\n      dup4\n        /* \"https://github.com/OpenZeppelin/openzeppelin-contracts/blob/release-v2.5.0/contracts/math/SafeMath.sol\":1845:1851  b <= a */\n      gt\n      iszero\n        /* \"https://github.com/OpenZeppelin/openzeppelin-contracts/blob/release-v2.5.0/contracts/math/SafeMath.sol\":1853:1865  errorMessage */\n      dup3\n        /* \"https://github.com/OpenZeppelin/openzeppelin-contracts/blob/release-v2.5.0/contracts/math/SafeMath.sol\":1837:1866  require(b <= a, errorMessage) */\n      swap1\n      iszero\n      iszero\n      tag_139\n      jumpi\n      mload(0x40)\n      0x08c379a000000000000000000000000000000000000000000000000000000000\n      dup2\n      mstore\n      0x04\n      add\n      dup1\n      dup1\n      0x20\n      add\n      dup3\n      dup2\n      sub\n      dup3\n      mstore\n      dup4\n      dup2\n      dup2\n      mload\n      dup2\n      mstore\n      0x20\n      add\n      swap2\n      pop\n      dup1\n      mload\n      swap1\n      0x20\n      add\n      swap1\n      dup1\n      dup4\n      dup4\n        /* \"--CODEGEN--\":23:24   */\n      0x00\n        /* \"--CODEGEN--\":8:108   */\n    tag_140:\n        /* \"--CODEGEN--\":33:36   */\n      dup4\n        /* \"--CODEGEN--\":30:31   */\n      dup2\n        /* \"--CODEGEN--\":27:37   */\n      lt\n        /* \"--CODEGEN--\":8:108   */\n      iszero\n      tag_141\n      jumpi\n        /* \"--CODEGEN--\":99:100   */\n      dup1\n        /* \"--CODEGEN--\":94:97   */\n      dup3\n        /* \"--CODEGEN--\":90:101   */\n      add\n        /* \"--CODEGEN--\":84:102   */\n      mload\n        /* \"--CODEGEN--\":80:81   */\n      dup2\n        /* \"--CODEGEN--\":75:78   */\n      dup5\n        /* \"--CODEGEN--\":71:82   */\n      add\n        /* \"--CODEGEN--\":64:103   */\n      mstore\n        /* \"--CODEGEN--\":52:54   */\n      0x20\n        /* \"--CODEGEN--\":49:50   */\n      dup2\n        /* \"--CODEGEN--\":45:55   */\n      add\n        /* \"--CODEGEN--\":40:55   */\n      swap1\n      pop\n        /* \"--CODEGEN--\":8:108   */\n      jump(tag_140)\n    tag_141:\n        /* \"--CODEGEN--\":12:26   */\n      pop\n        /* \"https://github.com/OpenZeppelin/openzeppelin-contracts/blob/release-v2.5.0/contracts/math/SafeMath.sol\":1837:1866  require(b <= a, errorMessage) */\n      pop\n      pop\n      pop\n      swap1\n      pop\n      swap1\n      dup2\n      add\n      swap1\n      0x1f\n      and\n      dup1\n      iszero\n      tag_143\n      jumpi\n      dup1\n      dup3\n      sub\n      dup1\n      mload\n      0x01\n      dup4\n      0x20\n      sub\n      0x0100\n      exp\n      sub\n      not\n      and\n      dup2\n      mstore\n      0x20\n      add\n      swap2\n      pop\n    tag_143:\n      pop\n      swap3\n      pop\n      pop\n      pop\n      mload(0x40)\n      dup1\n      swap2\n      sub\n      swap1\n      revert\n    tag_139:\n      pop\n        /* \"https://github.com/OpenZeppelin/openzeppelin-contracts/blob/release-v2.5.0/contracts/math/SafeMath.sol\":1876:1885  uint256 c */\n      0x00\n        /* \"https://github.com/OpenZeppelin/openzeppelin-contracts/blob/release-v2.5.0/contracts/math/SafeMath.sol\":1892:1893  b */\n      dup4\n        /* \"https://github.com/OpenZeppelin/openzeppelin-contracts/blob/release-v2.5.0/contracts/math/SafeMath.sol\":1888:1889  a */\n      dup6\n        /* \"https://github.com/OpenZeppelin/openzeppelin-contracts/blob/release-v2.5.0/contracts/math/SafeMath.sol\":1888:1893  a - b */\n      sub\n        /* \"https://github.com/OpenZeppelin/openzeppelin-contracts/blob/release-v2.5.0/contracts/math/SafeMath.sol\":1876:1893  uint256 c = a - b */\n      swap1\n      pop\n        /* \"https://github.com/OpenZeppelin/openzeppelin-contracts/blob/release-v2.5.0/contracts/math/SafeMath.sol\":1911:1912  c */\n      dup1\n        /* \"https://github.com/OpenZeppelin/openzeppelin-contracts/blob/release-v2.5.0/contracts/math/SafeMath.sol\":1904:1912  return c */\n      swap2\n      pop\n      pop\n        /* \"https://github.com/OpenZeppelin/openzeppelin-contracts/blob/release-v2.5.0/contracts/math/SafeMath.sol\":1732:1919  function sub(uint256 a, uint256 b, string memory errorMessage) internal pure returns (uint256) {... */\n      swap4\n      swap3\n      pop\n      pop\n      pop\n      jump\t// out\n        /* \"https://github.com/OpenZeppelin/openzeppelin-contracts/blob/release-v2.5.0/contracts/math/SafeMath.sol\":834:1010  function add(uint256 a, uint256 b) internal pure returns (uint256) {... */\n    tag_93:\n        /* \"https://github.com/OpenZeppelin/openzeppelin-contracts/blob/release-v2.5.0/contracts/math/SafeMath.sol\":892:899  uint256 */\n      0x00\n        /* \"https://github.com/OpenZeppelin/openzeppelin-contracts/blob/release-v2.5.0/contracts/math/SafeMath.sol\":911:920  uint256 c */\n      dup1\n        /* \"https://github.com/OpenZeppelin/openzeppelin-contracts/blob/release-v2.5.0/contracts/math/SafeMath.sol\":927:928  b */\n      dup3\n        /* \"https://github.com/OpenZeppelin/openzeppelin-contracts/blob/release-v2.5.0/contracts/math/SafeMath.sol\":923:924  a */\n      dup5\n        /* \"https://github.com/OpenZeppelin/openzeppelin-contracts/blob/release-v2.5.0/contracts/math/SafeMath.sol\":923:928  a + b */\n      add\n        /* \"https://github.com/OpenZeppelin/openzeppelin-contracts/blob/release-v2.5.0/contracts/math/SafeMath.sol\":911:928  uint256 c = a + b */\n      swap1\n      pop\n        /* \"https://github.com/OpenZeppelin/openzeppelin-contracts/blob/release-v2.5.0/contracts/math/SafeMath.sol\":951:952  a */\n      dup4\n        /* \"https://github.com/OpenZeppelin/openzeppelin-contracts/blob/release-v2.5.0/contracts/math/SafeMath.sol\":946:947  c */\n      dup2\n        /* \"https://github.com/OpenZeppelin/openzeppelin-contracts/blob/release-v2.5.0/contracts/math/SafeMath.sol\":946:952  c >= a */\n      lt\n      iszero\n        /* \"https://github.com/OpenZeppelin/openzeppelin-contracts/blob/release-v2.5.0/contracts/math/SafeMath.sol\":938:984  require(c >= a, \"SafeMath: addition overflow\") */\n      iszero\n      iszero\n      tag_145\n      jumpi\n      mload(0x40)\n      0x08c379a000000000000000000000000000000000000000000000000000000000\n      dup2\n      mstore\n      0x04\n      add\n      dup1\n      dup1\n      0x20\n      add\n      dup3\n      dup2\n      sub\n      dup3\n      mstore\n      0x1b\n      dup2\n      mstore\n      0x20\n      add\n      dup1\n      0x536166654d6174683a206164646974696f6e206f766572666c6f770000000000\n      dup2\n      mstore\n      pop\n      0x20\n      add\n      swap2\n      pop\n      pop\n      mload(0x40)\n      dup1\n      swap2\n      sub\n      swap1\n      revert\n    tag_145:\n        /* \"https://github.com/OpenZeppelin/openzeppelin-contracts/blob/release-v2.5.0/contracts/math/SafeMath.sol\":1002:1003  c */\n      dup1\n        /* \"https://github.com/OpenZeppelin/openzeppelin-contracts/blob/release-v2.5.0/contracts/math/SafeMath.sol\":995:1003  return c */\n      swap2\n      pop\n      pop\n        /* \"https://github.com/OpenZeppelin/openzeppelin-contracts/blob/release-v2.5.0/contracts/math/SafeMath.sol\":834:1010  function add(uint256 a, uint256 b) internal pure returns (uint256) {... */\n      swap3\n      swap2\n      pop\n      pop\n      jump\t// out\n        /* \"https://github.com/OpenZeppelin/openzeppelin-contracts/blob/release-v2.5.0/contracts/token/ERC20/ERC20.sol\":5962:6264  function _mint(address account, uint256 amount) internal {... */\n    tag_100:\n        /* \"https://github.com/OpenZeppelin/openzeppelin-contracts/blob/release-v2.5.0/contracts/token/ERC20/ERC20.sol\":6056:6057  0 */\n      0x00\n        /* \"https://github.com/OpenZeppelin/openzeppelin-contracts/blob/release-v2.5.0/contracts/token/ERC20/ERC20.sol\":6037:6058  account != address(0) */\n      0xffffffffffffffffffffffffffffffffffffffff\n      and\n        /* \"https://github.com/OpenZeppelin/openzeppelin-contracts/blob/release-v2.5.0/contracts/token/ERC20/ERC20.sol\":6037:6044  account */\n      dup3\n        /* \"https://github.com/OpenZeppelin/openzeppelin-contracts/blob/release-v2.5.0/contracts/token/ERC20/ERC20.sol\":6037:6058  account != address(0) */\n      0xffffffffffffffffffffffffffffffffffffffff\n      and\n      eq\n      iszero\n        /* \"https://github.com/OpenZeppelin/openzeppelin-contracts/blob/release-v2.5.0/contracts/token/ERC20/ERC20.sol\":6029:6094  require(account != address(0), \"ERC20: mint to the zero address\") */\n      iszero\n      iszero\n      tag_147\n      jumpi\n      mload(0x40)\n      0x08c379a000000000000000000000000000000000000000000000000000000000\n      dup2\n      mstore\n      0x04\n      add\n      dup1\n      dup1\n      0x20\n      add\n      dup3\n      dup2\n      sub\n      dup3\n      mstore\n      0x1f\n      dup2\n      mstore\n      0x20\n      add\n      dup1\n      0x45524332303a206d696e7420746f20746865207a65726f206164647265737300\n      dup2\n      mstore\n      pop\n      0x20\n      add\n      swap2\n      pop\n      pop\n      mload(0x40)\n      dup1\n      swap2\n      sub\n      swap1\n      revert\n    tag_147:\n        /* \"https://github.com/OpenZeppelin/openzeppelin-contracts/blob/release-v2.5.0/contracts/token/ERC20/ERC20.sol\":6120:6144  _totalSupply.add(amount) */\n      tag_148\n        /* \"https://github.com/OpenZeppelin/openzeppelin-contracts/blob/release-v2.5.0/contracts/token/ERC20/ERC20.sol\":6137:6143  amount */\n      dup2\n        /* \"https://github.com/OpenZeppelin/openzeppelin-contracts/blob/release-v2.5.0/contracts/token/ERC20/ERC20.sol\":6120:6132  _totalSupply */\n      sload(0x02)\n        /* \"https://github.com/OpenZeppelin/openzeppelin-contracts/blob/release-v2.5.0/contracts/token/ERC20/ERC20.sol\":6120:6136  _totalSupply.add */\n      tag_93\n      swap1\n        /* \"https://github.com/OpenZeppelin/openzeppelin-contracts/blob/release-v2.5.0/contracts/token/ERC20/ERC20.sol\":6120:6144  _totalSupply.add(amount) */\n      swap2\n      swap1\n      0xffffffff\n      and\n      jump\t// in\n    tag_148:\n        /* \"https://github.com/OpenZeppelin/openzeppelin-contracts/blob/release-v2.5.0/contracts/token/ERC20/ERC20.sol\":6105:6117  _totalSupply */\n      0x02\n        /* \"https://github.com/OpenZeppelin/openzeppelin-contracts/blob/release-v2.5.0/contracts/token/ERC20/ERC20.sol\":6105:6144  _totalSupply = _totalSupply.add(amount) */\n      dup2\n      swap1\n      sstore\n      pop\n        /* \"https://github.com/OpenZeppelin/openzeppelin-contracts/blob/release-v2.5.0/contracts/token/ERC20/ERC20.sol\":6175:6205  _balances[account].add(amount) */\n      tag_149\n        /* \"https://github.com/OpenZeppelin/openzeppelin-contracts/blob/release-v2.5.0/contracts/token/ERC20/ERC20.sol\":6198:6204  amount */\n      dup2\n        /* \"https://github.com/OpenZeppelin/openzeppelin-contracts/blob/release-v2.5.0/contracts/token/ERC20/ERC20.sol\":6175:6184  _balances */\n      0x00\n        /* \"https://github.com/OpenZeppelin/openzeppelin-contracts/blob/release-v2.5.0/contracts/token/ERC20/ERC20.sol\":6175:6193  _balances[account] */\n      dup1\n        /* \"https://github.com/OpenZeppelin/openzeppelin-contracts/blob/release-v2.5.0/contracts/token/ERC20/ERC20.sol\":6185:6192  account */\n      dup6\n        /* \"https://github.com/OpenZeppelin/openzeppelin-contracts/blob/release-v2.5.0/contracts/token/ERC20/ERC20.sol\":6175:6193  _balances[account] */\n      0xffffffffffffffffffffffffffffffffffffffff\n      and\n      0xffffffffffffffffffffffffffffffffffffffff\n      and\n      dup2\n      mstore\n      0x20\n      add\n      swap1\n      dup2\n      mstore\n      0x20\n      add\n      0x00\n      keccak256\n      sload\n        /* \"https://github.com/OpenZeppelin/openzeppelin-contracts/blob/release-v2.5.0/contracts/token/ERC20/ERC20.sol\":6175:6197  _balances[account].add */\n      tag_93\n      swap1\n        /* \"https://github.com/OpenZeppelin/openzeppelin-contracts/blob/release-v2.5.0/contracts/token/ERC20/ERC20.sol\":6175:6205  _balances[account].add(amount) */\n      swap2\n      swap1\n      0xffffffff\n      and\n      jump\t// in\n    tag_149:\n        /* \"https://github.com/OpenZeppelin/openzeppelin-contracts/blob/release-v2.5.0/contracts/token/ERC20/ERC20.sol\":6154:6163  _balances */\n      0x00\n        /* \"https://github.com/OpenZeppelin/openzeppelin-contracts/blob/release-v2.5.0/contracts/token/ERC20/ERC20.sol\":6154:6172  _balances[account] */\n      dup1\n        /* \"https://github.com/OpenZeppelin/openzeppelin-contracts/blob/release-v2.5.0/contracts/token/ERC20/ERC20.sol\":6164:6171  account */\n      dup5\n        /* \"https://github.com/OpenZeppelin/openzeppelin-contracts/blob/release-v2.5.0/contracts/token/ERC20/ERC20.sol\":6154:6172  _balances[account] */\n      0xffffffffffffffffffffffffffffffffffffffff\n      and\n      0xffffffffffffffffffffffffffffffffffffffff\n      and\n      dup2\n      mstore\n      0x20\n      add\n      swap1\n      dup2\n      mstore\n      0x20\n      add\n      0x00\n      keccak256\n        /* \"https://github.com/OpenZeppelin/openzeppelin-contracts/blob/release-v2.5.0/contracts/token/ERC20/ERC20.sol\":6154:6205  _balances[account] = _balances[account].add(amount) */\n      dup2\n      swap1\n      sstore\n      pop\n        /* \"https://github.com/OpenZeppelin/openzeppelin-contracts/blob/release-v2.5.0/contracts/token/ERC20/ERC20.sol\":6241:6248  account */\n      dup2\n        /* \"https://github.com/OpenZeppelin/openzeppelin-contracts/blob/release-v2.5.0/contracts/token/ERC20/ERC20.sol\":6220:6257  Transfer(address(0), account, amount) */\n      0xffffffffffffffffffffffffffffffffffffffff\n      and\n        /* \"https://github.com/OpenZeppelin/openzeppelin-contracts/blob/release-v2.5.0/contracts/token/ERC20/ERC20.sol\":6237:6238  0 */\n      0x00\n        /* \"https://github.com/OpenZeppelin/openzeppelin-contracts/blob/release-v2.5.0/contracts/token/ERC20/ERC20.sol\":6220:6257  Transfer(address(0), account, amount) */\n      0xffffffffffffffffffffffffffffffffffffffff\n      and\n      0xddf252ad1be2c89b69c2b068fc378daa952ba7f163c4a11628f55a4df523b3ef\n        /* \"https://github.com/OpenZeppelin/openzeppelin-contracts/blob/release-v2.5.0/contracts/token/ERC20/ERC20.sol\":6250:6256  amount */\n      dup4\n        /* \"https://github.com/OpenZeppelin/openzeppelin-contracts/blob/release-v2.5.0/contracts/token/ERC20/ERC20.sol\":6220:6257  Transfer(address(0), account, amount) */\n      mload(0x40)\n      dup1\n      dup3\n      dup2\n      mstore\n      0x20\n      add\n      swap2\n      pop\n      pop\n      mload(0x40)\n      dup1\n      swap2\n      sub\n      swap1\n      log3\n        /* \"https://github.com/OpenZeppelin/openzeppelin-contracts/blob/release-v2.5.0/contracts/token/ERC20/ERC20.sol\":5962:6264  function _mint(address account, uint256 amount) internal {... */\n      pop\n      pop\n      jump\t// out\n        /* \"https://github.com/OpenZeppelin/openzeppelin-contracts/blob/release-v2.5.0/contracts/access/roles/MinterRole.sol\":786:905  function _addMinter(address account) internal {... */\n    tag_112:\n        /* \"https://github.com/OpenZeppelin/openzeppelin-contracts/blob/release-v2.5.0/contracts/access/roles/MinterRole.sol\":842:863  _minters.add(account) */\n      tag_151\n        /* \"https://github.com/OpenZeppelin/openzeppelin-contracts/blob/release-v2.5.0/contracts/access/roles/MinterRole.sol\":855:862  account */\n      dup2\n        /* \"https://github.com/OpenZeppelin/openzeppelin-contracts/blob/release-v2.5.0/contracts/access/roles/MinterRole.sol\":842:850  _minters */\n      0x06\n        /* \"https://github.com/OpenZeppelin/openzeppelin-contracts/blob/release-v2.5.0/contracts/access/roles/MinterRole.sol\":842:854  _minters.add */\n      tag_152\n      swap1\n        /* \"https://github.com/OpenZeppelin/openzeppelin-contracts/blob/release-v2.5.0/contracts/access/roles/MinterRole.sol\":842:863  _minters.add(account) */\n      swap2\n      swap1\n      0xffffffff\n      and\n      jump\t// in\n    tag_151:\n        /* \"https://github.com/OpenZeppelin/openzeppelin-contracts/blob/release-v2.5.0/contracts/access/roles/MinterRole.sol\":890:897  account */\n      dup1\n        /* \"https://github.com/OpenZeppelin/openzeppelin-contracts/blob/release-v2.5.0/contracts/access/roles/MinterRole.sol\":878:898  MinterAdded(account) */\n      0xffffffffffffffffffffffffffffffffffffffff\n      and\n      0x6ae172837ea30b801fbfcdd4108aa1d5bf8ff775444fd70256b44e6bf3dfc3f6\n      mload(0x40)\n      mload(0x40)\n      dup1\n      swap2\n      sub\n      swap1\n      log2\n        /* \"https://github.com/OpenZeppelin/openzeppelin-contracts/blob/release-v2.5.0/contracts/access/roles/MinterRole.sol\":786:905  function _addMinter(address account) internal {... */\n      pop\n      jump\t// out\n        /* \"https://github.com/OpenZeppelin/openzeppelin-contracts/blob/release-v2.5.0/contracts/access/roles/MinterRole.sol\":911:1038  function _removeMinter(address account) internal {... */\n    tag_116:\n        /* \"https://github.com/OpenZeppelin/openzeppelin-contracts/blob/release-v2.5.0/contracts/access/roles/MinterRole.sol\":970:994  _minters.remove(account) */\n      tag_154\n        /* \"https://github.com/OpenZeppelin/openzeppelin-contracts/blob/release-v2.5.0/contracts/access/roles/MinterRole.sol\":986:993  account */\n      dup2\n        /* \"https://github.com/OpenZeppelin/openzeppelin-contracts/blob/release-v2.5.0/contracts/access/roles/MinterRole.sol\":970:978  _minters */\n      0x06\n        /* \"https://github.com/OpenZeppelin/openzeppelin-contracts/blob/release-v2.5.0/contracts/access/roles/MinterRole.sol\":970:985  _minters.remove */\n      tag_155\n      swap1\n        /* \"https://github.com/OpenZeppelin/openzeppelin-contracts/blob/release-v2.5.0/contracts/access/roles/MinterRole.sol\":970:994  _minters.remove(account) */\n      swap2\n      swap1\n      0xffffffff\n      and\n      jump\t// in\n    tag_154:\n        /* \"https://github.com/OpenZeppelin/openzeppelin-contracts/blob/release-v2.5.0/contracts/access/roles/MinterRole.sol\":1023:1030  account */\n      dup1\n        /* \"https://github.com/OpenZeppelin/openzeppelin-contracts/blob/release-v2.5.0/contracts/access/roles/MinterRole.sol\":1009:1031  MinterRemoved(account) */\n      0xffffffffffffffffffffffffffffffffffffffff\n      and\n      0xe94479a9f7e1952cc78f2d6baab678adc1b772d936c6583def489e524cb66692\n      mload(0x40)\n      mload(0x40)\n      dup1\n      swap2\n      sub\n      swap1\n      log2\n        /* \"https://github.com/OpenZeppelin/openzeppelin-contracts/blob/release-v2.5.0/contracts/access/roles/MinterRole.sol\":911:1038  function _removeMinter(address account) internal {... */\n      pop\n      jump\t// out\n        /* \"https://github.com/OpenZeppelin/openzeppelin-contracts/blob/release-v2.5.0/contracts/access/Roles.sol\":779:979  function has(Role storage role, address account) internal view returns (bool) {... */\n    tag_127:\n        /* \"https://github.com/OpenZeppelin/openzeppelin-contracts/blob/release-v2.5.0/contracts/access/Roles.sol\":851:855  bool */\n      0x00\n        /* \"https://github.com/OpenZeppelin/openzeppelin-contracts/blob/release-v2.5.0/contracts/access/Roles.sol\":894:895  0 */\n      dup1\n        /* \"https://github.com/OpenZeppelin/openzeppelin-contracts/blob/release-v2.5.0/contracts/access/Roles.sol\":875:896  account != address(0) */\n      0xffffffffffffffffffffffffffffffffffffffff\n      and\n        /* \"https://github.com/OpenZeppelin/openzeppelin-contracts/blob/release-v2.5.0/contracts/access/Roles.sol\":875:882  account */\n      dup3\n        /* \"https://github.com/OpenZeppelin/openzeppelin-contracts/blob/release-v2.5.0/contracts/access/Roles.sol\":875:896  account != address(0) */\n      0xffffffffffffffffffffffffffffffffffffffff\n      and\n      eq\n      iszero\n        /* \"https://github.com/OpenZeppelin/openzeppelin-contracts/blob/release-v2.5.0/contracts/access/Roles.sol\":867:935  require(account != address(0), \"Roles: account is the zero address\") */\n      iszero\n      iszero\n      tag_157\n      jumpi\n      mload(0x40)\n      0x08c379a000000000000000000000000000000000000000000000000000000000\n      dup2\n      mstore\n      0x04\n      add\n      dup1\n      dup1\n      0x20\n      add\n      dup3\n      dup2\n      sub\n      dup3\n      mstore\n      0x22\n      dup2\n      mstore\n      0x20\n      add\n      dup1\n      data_9d214fa89563f4e6456a3929327e54500ea1cde2c0ba9fb2035ec106190d682f\n      0x22\n      swap2\n      codecopy\n      0x40\n      add\n      swap2\n      pop\n      pop\n      mload(0x40)\n      dup1\n      swap2\n      sub\n      swap1\n      revert\n    tag_157:\n        /* \"https://github.com/OpenZeppelin/openzeppelin-contracts/blob/release-v2.5.0/contracts/access/Roles.sol\":952:956  role */\n      dup3\n        /* \"https://github.com/OpenZeppelin/openzeppelin-contracts/blob/release-v2.5.0/contracts/access/Roles.sol\":952:963  role.bearer */\n      0x00\n      add\n        /* \"https://github.com/OpenZeppelin/openzeppelin-contracts/blob/release-v2.5.0/contracts/access/Roles.sol\":952:972  role.bearer[account] */\n      0x00\n        /* \"https://github.com/OpenZeppelin/openzeppelin-contracts/blob/release-v2.5.0/contracts/access/Roles.sol\":964:971  account */\n      dup4\n        /* \"https://github.com/OpenZeppelin/openzeppelin-contracts/blob/release-v2.5.0/contracts/access/Roles.sol\":952:972  role.bearer[account] */\n      0xffffffffffffffffffffffffffffffffffffffff\n      and\n      0xffffffffffffffffffffffffffffffffffffffff\n      and\n      dup2\n      mstore\n      0x20\n      add\n      swap1\n      dup2\n      mstore\n      0x20\n      add\n      0x00\n      keccak256\n      0x00\n      swap1\n      sload\n      swap1\n      0x0100\n      exp\n      swap1\n      div\n      0xff\n      and\n        /* \"https://github.com/OpenZeppelin/openzeppelin-contracts/blob/release-v2.5.0/contracts/access/Roles.sol\":945:972  return role.bearer[account] */\n      swap1\n      pop\n        /* \"https://github.com/OpenZeppelin/openzeppelin-contracts/blob/release-v2.5.0/contracts/access/Roles.sol\":779:979  function has(Role storage role, address account) internal view returns (bool) {... */\n      swap3\n      swap2\n      pop\n      pop\n      jump\t// out\n        /* \"https://github.com/OpenZeppelin/openzeppelin-contracts/blob/release-v2.5.0/contracts/access/Roles.sol\":260:435  function add(Role storage role, address account) internal {... */\n    tag_152:\n        /* \"https://github.com/OpenZeppelin/openzeppelin-contracts/blob/release-v2.5.0/contracts/access/Roles.sol\":337:355  has(role, account) */\n      tag_159\n        /* \"https://github.com/OpenZeppelin/openzeppelin-contracts/blob/release-v2.5.0/contracts/access/Roles.sol\":341:345  role */\n      dup3\n        /* \"https://github.com/OpenZeppelin/openzeppelin-contracts/blob/release-v2.5.0/contracts/access/Roles.sol\":347:354  account */\n      dup3\n        /* \"https://github.com/OpenZeppelin/openzeppelin-contracts/blob/release-v2.5.0/contracts/access/Roles.sol\":337:340  has */\n      tag_127\n        /* \"https://github.com/OpenZeppelin/openzeppelin-contracts/blob/release-v2.5.0/contracts/access/Roles.sol\":337:355  has(role, account) */\n      jump\t// in\n    tag_159:\n        /* \"https://github.com/OpenZeppelin/openzeppelin-contracts/blob/release-v2.5.0/contracts/access/Roles.sol\":336:355  !has(role, account) */\n      iszero\n        /* \"https://github.com/OpenZeppelin/openzeppelin-contracts/blob/release-v2.5.0/contracts/access/Roles.sol\":328:391  require(!has(role, account), \"Roles: account already has role\") */\n      iszero\n      iszero\n      tag_160\n      jumpi\n      mload(0x40)\n      0x08c379a000000000000000000000000000000000000000000000000000000000\n      dup2\n      mstore\n      0x04\n      add\n      dup1\n      dup1\n      0x20\n      add\n      dup3\n      dup2\n      sub\n      dup3\n      mstore\n      0x1f\n      dup2\n      mstore\n      0x20\n      add\n      dup1\n      0x526f6c65733a206163636f756e7420616c72656164792068617320726f6c6500\n      dup2\n      mstore\n      pop\n      0x20\n      add\n      swap2\n      pop\n      pop\n      mload(0x40)\n      dup1\n      swap2\n      sub\n      swap1\n      revert\n    tag_160:\n        /* \"https://github.com/OpenZeppelin/openzeppelin-contracts/blob/release-v2.5.0/contracts/access/Roles.sol\":424:428  true */\n      0x01\n        /* \"https://github.com/OpenZeppelin/openzeppelin-contracts/blob/release-v2.5.0/contracts/access/Roles.sol\":401:405  role */\n      dup3\n        /* \"https://github.com/OpenZeppelin/openzeppelin-contracts/blob/release-v2.5.0/contracts/access/Roles.sol\":401:412  role.bearer */\n      0x00\n      add\n        /* \"https://github.com/OpenZeppelin/openzeppelin-contracts/blob/release-v2.5.0/contracts/access/Roles.sol\":401:421  role.bearer[account] */\n      0x00\n        /* \"https://github.com/OpenZeppelin/openzeppelin-contracts/blob/release-v2.5.0/contracts/access/Roles.sol\":413:420  account */\n      dup4\n        /* \"https://github.com/OpenZeppelin/openzeppelin-contracts/blob/release-v2.5.0/contracts/access/Roles.sol\":401:421  role.bearer[account] */\n      0xffffffffffffffffffffffffffffffffffffffff\n      and\n      0xffffffffffffffffffffffffffffffffffffffff\n      and\n      dup2\n      mstore\n      0x20\n      add\n      swap1\n      dup2\n      mstore\n      0x20\n      add\n      0x00\n      keccak256\n      0x00\n        /* \"https://github.com/OpenZeppelin/openzeppelin-contracts/blob/release-v2.5.0/contracts/access/Roles.sol\":401:428  role.bearer[account] = true */\n      0x0100\n      exp\n      dup2\n      sload\n      dup2\n      0xff\n      mul\n      not\n      and\n      swap1\n      dup4\n      iszero\n      iszero\n      mul\n      or\n      swap1\n      sstore\n      pop\n        /* \"https://github.com/OpenZeppelin/openzeppelin-contracts/blob/release-v2.5.0/contracts/access/Roles.sol\":260:435  function add(Role storage role, address account) internal {... */\n      pop\n      pop\n      jump\t// out\n        /* \"https://github.com/OpenZeppelin/openzeppelin-contracts/blob/release-v2.5.0/contracts/access/Roles.sol\":510:690  function remove(Role storage role, address account) internal {... */\n    tag_155:\n        /* \"https://github.com/OpenZeppelin/openzeppelin-contracts/blob/release-v2.5.0/contracts/access/Roles.sol\":589:607  has(role, account) */\n      tag_162\n        /* \"https://github.com/OpenZeppelin/openzeppelin-contracts/blob/release-v2.5.0/contracts/access/Roles.sol\":593:597  role */\n      dup3\n        /* \"https://github.com/OpenZeppelin/openzeppelin-contracts/blob/release-v2.5.0/contracts/access/Roles.sol\":599:606  account */\n      dup3\n        /* \"https://github.com/OpenZeppelin/openzeppelin-contracts/blob/release-v2.5.0/contracts/access/Roles.sol\":589:592  has */\n      tag_127\n        /* \"https://github.com/OpenZeppelin/openzeppelin-contracts/blob/release-v2.5.0/contracts/access/Roles.sol\":589:607  has(role, account) */\n      jump\t// in\n    tag_162:\n        /* \"https://github.com/OpenZeppelin/openzeppelin-contracts/blob/release-v2.5.0/contracts/access/Roles.sol\":581:645  require(has(role, account), \"Roles: account does not have role\") */\n      iszero\n      iszero\n      tag_163\n      jumpi\n      mload(0x40)\n      0x08c379a000000000000000000000000000000000000000000000000000000000\n      dup2\n      mstore\n      0x04\n      add\n      dup1\n      dup1\n      0x20\n      add\n      dup3\n      dup2\n      sub\n      dup3\n      mstore\n      0x21\n      dup2\n      mstore\n      0x20\n      add\n      dup1\n      data_7bd893145ac435f339bb7c288622d270324b7033b011f693aca172f5cbc3c257\n      0x21\n      swap2\n      codecopy\n      0x40\n      add\n      swap2\n      pop\n      pop\n      mload(0x40)\n      dup1\n      swap2\n      sub\n      swap1\n      revert\n    tag_163:\n        /* \"https://github.com/OpenZeppelin/openzeppelin-contracts/blob/release-v2.5.0/contracts/access/Roles.sol\":678:683  false */\n      0x00\n        /* \"https://github.com/OpenZeppelin/openzeppelin-contracts/blob/release-v2.5.0/contracts/access/Roles.sol\":655:659  role */\n      dup3\n        /* \"https://github.com/OpenZeppelin/openzeppelin-contracts/blob/release-v2.5.0/contracts/access/Roles.sol\":655:666  role.bearer */\n      0x00\n      add\n        /* \"https://github.com/OpenZeppelin/openzeppelin-contracts/blob/release-v2.5.0/contracts/access/Roles.sol\":655:675  role.bearer[account] */\n      0x00\n        /* \"https://github.com/OpenZeppelin/openzeppelin-contracts/blob/release-v2.5.0/contracts/access/Roles.sol\":667:674  account */\n      dup4\n        /* \"https://github.com/OpenZeppelin/openzeppelin-contracts/blob/release-v2.5.0/contracts/access/Roles.sol\":655:675  role.bearer[account] */\n      0xffffffffffffffffffffffffffffffffffffffff\n      and\n      0xffffffffffffffffffffffffffffffffffffffff\n      and\n      dup2\n      mstore\n      0x20\n      add\n      swap1\n      dup2\n      mstore\n      0x20\n      add\n      0x00\n      keccak256\n      0x00\n        /* \"https://github.com/OpenZeppelin/openzeppelin-contracts/blob/release-v2.5.0/contracts/access/Roles.sol\":655:683  role.bearer[account] = false */\n      0x0100\n      exp\n      dup2\n      sload\n      dup2\n      0xff\n      mul\n      not\n      and\n      swap1\n      dup4\n      iszero\n      iszero\n      mul\n      or\n      swap1\n      sstore\n      pop\n        /* \"https://github.com/OpenZeppelin/openzeppelin-contracts/blob/release-v2.5.0/contracts/access/Roles.sol\":510:690  function remove(Role storage role, address account) internal {... */\n      pop\n      pop\n      jump\t// out\n    stop\n    data_0557e210f7a69a685100a7e4e3d0a7024c546085cee28910fd17d0b081d9516f 45524332303a207472616e7366657220746f20746865207a65726f2061646472657373\n    data_24883cc5fe64ace9d0df1893501ecb93c77180f0ff69cca79affb3c316dc8029 45524332303a20617070726f766520746f20746865207a65726f2061646472657373\n    data_4107e8a8b9e94bf8ff83080ddec1c0bffe897ebc2241b89d44f66b3d274088b6 45524332303a207472616e7366657220616d6f756e7420657863656564732062616c616e6365\n    data_79ecb50133735b20228dea9d08fe36a462bbc1350f591a146908848db91104cd 4d696e746572526f6c653a2063616c6c657220646f6573206e6f74206861766520746865204d696e74657220726f6c65\n    data_7bd893145ac435f339bb7c288622d270324b7033b011f693aca172f5cbc3c257 526f6c65733a206163636f756e7420646f6573206e6f74206861766520726f6c65\n    data_974d1b4421da69cc60b481194f0dad36a5bb4e23da810da7a7fb30cdba178330 45524332303a207472616e7366657220616d6f756e74206578636565647320616c6c6f77616e6365\n    data_9d214fa89563f4e6456a3929327e54500ea1cde2c0ba9fb2035ec106190d682f 526f6c65733a206163636f756e7420697320746865207a65726f2061646472657373\n    data_baecc556b46f4ed0f2b4cb599d60785ac8563dd2dc0a5bf12edea1c39e5e1fea 45524332303a207472616e736665722066726f6d20746865207a65726f2061646472657373\n    data_c953f4879035ed60e766b34720f656aab5c697b141d924c283124ecedb91c208 45524332303a20617070726f76652066726f6d20746865207a65726f2061646472657373\n    data_f8b476f7d28209d77d4a4ac1fe36b9f8259aa1bb6bddfa6e89de7e51615cf8a8 45524332303a2064656372656173656420616c6c6f77616e63652062656c6f77207a65726f\n\n    auxdata: 0xa165627a7a72305820d37917d769fb4e41de7447e03e8aa87b2aeb09d120c039241f11db350ac4cae00029\n}\n",
				"bytecode": {
					"linkReferences": {},
					"object": "60806040523480156200001157600080fd5b5060405162001d3938038062001d39833981018060405260608110156200003757600080fd5b8101908080516401000000008111156200005057600080fd5b828101905060208101848111156200006757600080fd5b81518560018202830111640100000000821117156200008557600080fd5b50509291906020018051640100000000811115620000a257600080fd5b82810190506020810184811115620000b957600080fd5b8151856001820283011164010000000082111715620000d757600080fd5b505092919060200180519060200190929190505050828260128260039080519060200190620001089291906200039a565b508160049080519060200190620001219291906200039a565b5080600560006101000a81548160ff021916908360ff16021790555050505062000160620001546200016960201b60201c565b6200017160201b60201c565b50505062000449565b600033905090565b6200018c816006620001d260201b620015821790919060201c565b8073ffffffffffffffffffffffffffffffffffffffff167f6ae172837ea30b801fbfcdd4108aa1d5bf8ff775444fd70256b44e6bf3dfc3f660405160405180910390a250565b620001e48282620002b860201b60201c565b1515156200025a576040517f08c379a000000000000000000000000000000000000000000000000000000000815260040180806020018281038252601f8152602001807f526f6c65733a206163636f756e7420616c72656164792068617320726f6c650081525060200191505060405180910390fd5b60018260000160008373ffffffffffffffffffffffffffffffffffffffff1673ffffffffffffffffffffffffffffffffffffffff16815260200190815260200160002060006101000a81548160ff0219169083151502179055505050565b60008073ffffffffffffffffffffffffffffffffffffffff168273ffffffffffffffffffffffffffffffffffffffff161415151562000343576040517f08c379a000000000000000000000000000000000000000000000000000000000815260040180806020018281038252602281526020018062001d176022913960400191505060405180910390fd5b8260000160008373ffffffffffffffffffffffffffffffffffffffff1673ffffffffffffffffffffffffffffffffffffffff16815260200190815260200160002060009054906101000a900460ff16905092915050565b828054600181600116156101000203166002900490600052602060002090601f016020900481019282601f10620003dd57805160ff19168380011785556200040e565b828001600101855582156200040e579182015b828111156200040d578251825591602001919060010190620003f0565b5b5090506200041d919062000421565b5090565b6200044691905b808211156200044257600081600090555060010162000428565b5090565b90565b6118be80620004596000396000f3fe608060405234801561001057600080fd5b50600436106100f55760003560e01c806370a0823111610097578063a457c2d711610066578063a457c2d7146104a0578063a9059cbb14610506578063aa271e1a1461056c578063dd62ed3e146105c8576100f5565b806370a082311461037757806395d89b41146103cf578063983b2d56146104525780639865027514610496576100f5565b806323b872dd116100d357806323b872dd14610201578063313ce5671461028757806339509351146102ab57806340c10f1914610311576100f5565b806306fdde03146100fa578063095ea7b31461017d57806318160ddd146101e3575b600080fd5b610102610640565b6040518080602001828103825283818151815260200191508051906020019080838360005b83811015610142578082015181840152602081019050610127565b50505050905090810190601f16801561016f5780820380516001836020036101000a031916815260200191505b509250505060405180910390f35b6101c96004803603604081101561019357600080fd5b81019080803573ffffffffffffffffffffffffffffffffffffffff169060200190929190803590602001909291905050506106e2565b604051808215151515815260200191505060405180910390f35b6101eb610700565b6040518082815260200191505060405180910390f35b61026d6004803603606081101561021757600080fd5b81019080803573ffffffffffffffffffffffffffffffffffffffff169060200190929190803573ffffffffffffffffffffffffffffffffffffffff1690602001909291908035906020019092919050505061070a565b604051808215151515815260200191505060405180910390f35b61028f6107e3565b604051808260ff1660ff16815260200191505060405180910390f35b6102f7600480360360408110156102c157600080fd5b81019080803573ffffffffffffffffffffffffffffffffffffffff169060200190929190803590602001909291905050506107fa565b604051808215151515815260200191505060405180910390f35b61035d6004803603604081101561032757600080fd5b81019080803573ffffffffffffffffffffffffffffffffffffffff169060200190929190803590602001909291905050506108ad565b604051808215151515815260200191505060405180910390f35b6103b96004803603602081101561038d57600080fd5b81019080803573ffffffffffffffffffffffffffffffffffffffff16906020019092919050505061092a565b6040518082815260200191505060405180910390f35b6103d7610972565b6040518080602001828103825283818151815260200191508051906020019080838360005b838110156104175780820151818401526020810190506103fc565b50505050905090810190601f1680156104445780820380516001836020036101000a031916815260200191505b509250505060405180910390f35b6104946004803603602081101561046857600080fd5b81019080803573ffffffffffffffffffffffffffffffffffffffff169060200190929190505050610a14565b005b61049e610a87565b005b6104ec600480360360408110156104b657600080fd5b81019080803573ffffffffffffffffffffffffffffffffffffffff16906020019092919080359060200190929190505050610a99565b604051808215151515815260200191505060405180910390f35b6105526004803603604081101561051c57600080fd5b81019080803573ffffffffffffffffffffffffffffffffffffffff16906020019092919080359060200190929190505050610b66565b604051808215151515815260200191505060405180910390f35b6105ae6004803603602081101561058257600080fd5b81019080803573ffffffffffffffffffffffffffffffffffffffff169060200190929190505050610b84565b604051808215151515815260200191505060405180910390f35b61062a600480360360408110156105de57600080fd5b81019080803573ffffffffffffffffffffffffffffffffffffffff169060200190929190803573ffffffffffffffffffffffffffffffffffffffff169060200190929190505050610ba1565b6040518082815260200191505060405180910390f35b606060038054600181600116156101000203166002900480601f0160208091040260200160405190810160405280929190818152602001828054600181600116156101000203166002900480156106d85780601f106106ad576101008083540402835291602001916106d8565b820191906000526020600020905b8154815290600101906020018083116106bb57829003601f168201915b5050505050905090565b60006106f66106ef610c28565b8484610c30565b6001905092915050565b6000600254905090565b6000610717848484610e2b565b6107d884610723610c28565b6107d3856040518060600160405280602881526020016117db60289139600160008b73ffffffffffffffffffffffffffffffffffffffff1673ffffffffffffffffffffffffffffffffffffffff1681526020019081526020016000206000610789610c28565b73ffffffffffffffffffffffffffffffffffffffff1673ffffffffffffffffffffffffffffffffffffffff168152602001908152602001600020546110e59092919063ffffffff16565b610c30565b600190509392505050565b6000600560009054906101000a900460ff16905090565b60006108a3610807610c28565b8461089e8560016000610818610c28565b73ffffffffffffffffffffffffffffffffffffffff1673ffffffffffffffffffffffffffffffffffffffff16815260200190815260200160002060008973ffffffffffffffffffffffffffffffffffffffff1673ffffffffffffffffffffffffffffffffffffffff168152602001908152602001600020546111a790919063ffffffff16565b610c30565b6001905092915050565b60006108bf6108ba610c28565b610b84565b1515610916576040517f08c379a000000000000000000000000000000000000000000000000000000000815260040180806020018281038252603081526020018061178a6030913960400191505060405180910390fd5b6109208383611231565b6001905092915050565b60008060008373ffffffffffffffffffffffffffffffffffffffff1673ffffffffffffffffffffffffffffffffffffffff168152602001908152602001600020549050919050565b606060048054600181600116156101000203166002900480601f016020809104026020016040519081016040528092919081815260200182805460018160011615610100020316600290048015610a0a5780601f106109df57610100808354040283529160200191610a0a565b820191906000526020600020905b8154815290600101906020018083116109ed57829003601f168201915b5050505050905090565b610a24610a1f610c28565b610b84565b1515610a7b576040517f08c379a000000000000000000000000000000000000000000000000000000000815260040180806020018281038252603081526020018061178a6030913960400191505060405180910390fd5b610a84816113ee565b50565b610a97610a92610c28565b611448565b565b6000610b5c610aa6610c28565b84610b578560405180606001604052806025815260200161186e6025913960016000610ad0610c28565b73ffffffffffffffffffffffffffffffffffffffff1673ffffffffffffffffffffffffffffffffffffffff16815260200190815260200160002060008a73ffffffffffffffffffffffffffffffffffffffff1673ffffffffffffffffffffffffffffffffffffffff168152602001908152602001600020546110e59092919063ffffffff16565b610c30565b6001905092915050565b6000610b7a610b73610c28565b8484610e2b565b6001905092915050565b6000610b9a8260066114a290919063ffffffff16565b9050919050565b6000600160008473ffffffffffffffffffffffffffffffffffffffff1673ffffffffffffffffffffffffffffffffffffffff16815260200190815260200160002060008373ffffffffffffffffffffffffffffffffffffffff1673ffffffffffffffffffffffffffffffffffffffff16815260200190815260200160002054905092915050565b600033905090565b600073ffffffffffffffffffffffffffffffffffffffff168373ffffffffffffffffffffffffffffffffffffffff1614151515610cb8576040517f08c379a000000000000000000000000000000000000000000000000000000000815260040180806020018281038252602481526020018061184a6024913960400191505060405180910390fd5b600073ffffffffffffffffffffffffffffffffffffffff168273ffffffffffffffffffffffffffffffffffffffff1614151515610d40576040517f08c379a00000000000000000000000000000000000000000000000000000000081526004018080602001828103825260228152602001806117426022913960400191505060405180910390fd5b80600160008573ffffffffffffffffffffffffffffffffffffffff1673ffffffffffffffffffffffffffffffffffffffff16815260200190815260200160002060008473ffffffffffffffffffffffffffffffffffffffff1673ffffffffffffffffffffffffffffffffffffffff168152602001908152602001600020819055508173ffffffffffffffffffffffffffffffffffffffff168373ffffffffffffffffffffffffffffffffffffffff167f8c5be1e5ebec7d5bd14f71427d1e84f3dd0314c0f7b2291e5b200ac8c7c3b925836040518082815260200191505060405180910390a3505050565b600073ffffffffffffffffffffffffffffffffffffffff168373ffffffffffffffffffffffffffffffffffffffff1614151515610eb3576040517f08c379a00000000000000000000000000000000000000000000000000000000081526004018080602001828103825260258152602001806118256025913960400191505060405180910390fd5b600073ffffffffffffffffffffffffffffffffffffffff168273ffffffffffffffffffffffffffffffffffffffff1614151515610f3b576040517f08c379a000000000000000000000000000000000000000000000000000000000815260040180806020018281038252602381526020018061171f6023913960400191505060405180910390fd5b610fa681604051806060016040528060268152602001611764602691396000808773ffffffffffffffffffffffffffffffffffffffff1673ffffffffffffffffffffffffffffffffffffffff168152602001908152602001600020546110e59092919063ffffffff16565b6000808573ffffffffffffffffffffffffffffffffffffffff1673ffffffffffffffffffffffffffffffffffffffff16815260200190815260200160002081905550611039816000808573ffffffffffffffffffffffffffffffffffffffff1673ffffffffffffffffffffffffffffffffffffffff168152602001908152602001600020546111a790919063ffffffff16565b6000808473ffffffffffffffffffffffffffffffffffffffff1673ffffffffffffffffffffffffffffffffffffffff168152602001908152602001600020819055508173ffffffffffffffffffffffffffffffffffffffff168373ffffffffffffffffffffffffffffffffffffffff167fddf252ad1be2c89b69c2b068fc378daa952ba7f163c4a11628f55a4df523b3ef836040518082815260200191505060405180910390a3505050565b60008383111582901515611194576040517f08c379a00000000000000000000000000000000000000000000000000000000081526004018080602001828103825283818151815260200191508051906020019080838360005b8381101561115957808201518184015260208101905061113e565b50505050905090810190601f1680156111865780820380516001836020036101000a031916815260200191505b509250505060405180910390fd5b5060008385039050809150509392505050565b6000808284019050838110151515611227576040517f08c379a000000000000000000000000000000000000000000000000000000000815260040180806020018281038252601b8152602001807f536166654d6174683a206164646974696f6e206f766572666c6f77000000000081525060200191505060405180910390fd5b8091505092915050565b600073ffffffffffffffffffffffffffffffffffffffff168273ffffffffffffffffffffffffffffffffffffffff16141515156112d6576040517f08c379a000000000000000000000000000000000000000000000000000000000815260040180806020018281038252601f8152602001807f45524332303a206d696e7420746f20746865207a65726f20616464726573730081525060200191505060405180910390fd5b6112eb816002546111a790919063ffffffff16565b600281905550611342816000808573ffffffffffffffffffffffffffffffffffffffff1673ffffffffffffffffffffffffffffffffffffffff168152602001908152602001600020546111a790919063ffffffff16565b6000808473ffffffffffffffffffffffffffffffffffffffff1673ffffffffffffffffffffffffffffffffffffffff168152602001908152602001600020819055508173ffffffffffffffffffffffffffffffffffffffff16600073ffffffffffffffffffffffffffffffffffffffff167fddf252ad1be2c89b69c2b068fc378daa952ba7f163c4a11628f55a4df523b3ef836040518082815260200191505060405180910390a35050565b61140281600661158290919063ffffffff16565b8073ffffffffffffffffffffffffffffffffffffffff167f6ae172837ea30b801fbfcdd4108aa1d5bf8ff775444fd70256b44e6bf3dfc3f660405160405180910390a250565b61145c81600661165f90919063ffffffff16565b8073ffffffffffffffffffffffffffffffffffffffff167fe94479a9f7e1952cc78f2d6baab678adc1b772d936c6583def489e524cb6669260405160405180910390a250565b60008073ffffffffffffffffffffffffffffffffffffffff168273ffffffffffffffffffffffffffffffffffffffff161415151561152b576040517f08c379a00000000000000000000000000000000000000000000000000000000081526004018080602001828103825260228152602001806118036022913960400191505060405180910390fd5b8260000160008373ffffffffffffffffffffffffffffffffffffffff1673ffffffffffffffffffffffffffffffffffffffff16815260200190815260200160002060009054906101000a900460ff16905092915050565b61158c82826114a2565b151515611601576040517f08c379a000000000000000000000000000000000000000000000000000000000815260040180806020018281038252601f8152602001807f526f6c65733a206163636f756e7420616c72656164792068617320726f6c650081525060200191505060405180910390fd5b60018260000160008373ffffffffffffffffffffffffffffffffffffffff1673ffffffffffffffffffffffffffffffffffffffff16815260200190815260200160002060006101000a81548160ff0219169083151502179055505050565b61166982826114a2565b15156116c0576040517f08c379a00000000000000000000000000000000000000000000000000000000081526004018080602001828103825260218152602001806117ba6021913960400191505060405180910390fd5b60008260000160008373ffffffffffffffffffffffffffffffffffffffff1673ffffffffffffffffffffffffffffffffffffffff16815260200190815260200160002060006101000a81548160ff021916908315150217905550505056fe45524332303a207472616e7366657220746f20746865207a65726f206164647265737345524332303a20617070726f766520746f20746865207a65726f206164647265737345524332303a207472616e7366657220616d6f756e7420657863656564732062616c616e63654d696e746572526f6c653a2063616c6c657220646f6573206e6f74206861766520746865204d696e74657220726f6c65526f6c65733a206163636f756e7420646f6573206e6f74206861766520726f6c6545524332303a207472616e7366657220616d6f756e74206578636565647320616c6c6f77616e6365526f6c65733a206163636f756e7420697320746865207a65726f206164647265737345524332303a207472616e736665722066726f6d20746865207a65726f206164647265737345524332303a20617070726f76652066726f6d20746865207a65726f206164647265737345524332303a2064656372656173656420616c6c6f77616e63652062656c6f77207a65726fa165627a7a72305820d37917d769fb4e41de7447e03e8aa87b2aeb09d120c039241f11db350ac4cae00029526f6c65733a206163636f756e7420697320746865207a65726f2061646472657373",
					"opcodes": "PUSH1 0x80 PUSH1 0x40 MSTORE CALLVALUE DUP1 ISZERO PUSH3 0x11 JUMPI PUSH1 0x0 DUP1 REVERT JUMPDEST POP PUSH1 0x40 MLOAD PUSH3 0x1D39 CODESIZE SUB DUP1 PUSH3 0x1D39 DUP4 CODECOPY DUP2 ADD DUP1 PUSH1 0x40 MSTORE PUSH1 0x60 DUP2 LT ISZERO PUSH3 0x37 JUMPI PUSH1 0x0 DUP1 REVERT JUMPDEST DUP2 ADD SWAP1 DUP1 DUP1 MLOAD PUSH5 0x100000000 DUP2 GT ISZERO PUSH3 0x50 JUMPI PUSH1 0x0 DUP1 REVERT JUMPDEST DUP3 DUP2 ADD SWAP1 POP PUSH1 0x20 DUP2 ADD DUP5 DUP2 GT ISZERO PUSH3 0x67 JUMPI PUSH1 0x0 DUP1 REVERT JUMPDEST DUP2 MLOAD DUP6 PUSH1 0x1 DUP3 MUL DUP4 ADD GT PUSH5 0x100000000 DUP3 GT OR ISZERO PUSH3 0x85 JUMPI PUSH1 0x0 DUP1 REVERT JUMPDEST POP POP SWAP3 SWAP2 SWAP1 PUSH1 0x20 ADD DUP1 MLOAD PUSH5 0x100000000 DUP2 GT ISZERO PUSH3 0xA2 JUMPI PUSH1 0x0 DUP1 REVERT JUMPDEST DUP3 DUP2 ADD SWAP1 POP PUSH1 0x20 DUP2 ADD DUP5 DUP2 GT ISZERO PUSH3 0xB9 JUMPI PUSH1 0x0 DUP1 REVERT JUMPDEST DUP2 MLOAD DUP6 PUSH1 0x1 DUP3 MUL DUP4 ADD GT PUSH5 0x100000000 DUP3 GT OR ISZERO PUSH3 0xD7 JUMPI PUSH1 0x0 DUP1 REVERT JUMPDEST POP POP SWAP3 SWAP2 SWAP1 PUSH1 0x20 ADD DUP1 MLOAD SWAP1 PUSH1 0x20 ADD SWAP1 SWAP3 SWAP2 SWAP1 POP POP POP DUP3 DUP3 PUSH1 0x12 DUP3 PUSH1 0x3 SWAP1 DUP1 MLOAD SWAP1 PUSH1 0x20 ADD SWAP1 PUSH3 0x108 SWAP3 SWAP2 SWAP1 PUSH3 0x39A JUMP JUMPDEST POP DUP2 PUSH1 0x4 SWAP1 DUP1 MLOAD SWAP1 PUSH1 0x20 ADD SWAP1 PUSH3 0x121 SWAP3 SWAP2 SWAP1 PUSH3 0x39A JUMP JUMPDEST POP DUP1 PUSH1 0x5 PUSH1 0x0 PUSH2 0x100 EXP DUP2 SLOAD DUP2 PUSH1 0xFF MUL NOT AND SWAP1 DUP4 PUSH1 0xFF AND MUL OR SWAP1 SSTORE POP POP POP POP PUSH3 0x160 PUSH3 0x154 PUSH3 0x169 PUSH1 0x20 SHL PUSH1 0x20 SHR JUMP JUMPDEST PUSH3 0x171 PUSH1 0x20 SHL PUSH1 0x20 SHR JUMP JUMPDEST POP POP POP PUSH3 0x449 JUMP JUMPDEST PUSH1 0x0 CALLER SWAP1 POP SWAP1 JUMP JUMPDEST PUSH3 0x18C DUP2 PUSH1 0x6 PUSH3 0x1D2 PUSH1 0x20 SHL PUSH3 0x1582 OR SWAP1 SWAP2 SWAP1 PUSH1 0x20 SHR JUMP JUMPDEST DUP1 PUSH20 0xFFFFFFFFFFFFFFFFFFFFFFFFFFFFFFFFFFFFFFFF AND PUSH32 0x6AE172837EA30B801FBFCDD4108AA1D5BF8FF775444FD70256B44E6BF3DFC3F6 PUSH1 0x40 MLOAD PUSH1 0x40 MLOAD DUP1 SWAP2 SUB SWAP1 LOG2 POP JUMP JUMPDEST PUSH3 0x1E4 DUP3 DUP3 PUSH3 0x2B8 PUSH1 0x20 SHL PUSH1 0x20 SHR JUMP JUMPDEST ISZERO ISZERO ISZERO PUSH3 0x25A JUMPI PUSH1 0x40 MLOAD PUSH32 0x8C379A000000000000000000000000000000000000000000000000000000000 DUP2 MSTORE PUSH1 0x4 ADD DUP1 DUP1 PUSH1 0x20 ADD DUP3 DUP2 SUB DUP3 MSTORE PUSH1 0x1F DUP2 MSTORE PUSH1 0x20 ADD DUP1 PUSH32 0x526F6C65733A206163636F756E7420616C72656164792068617320726F6C6500 DUP2 MSTORE POP PUSH1 0x20 ADD SWAP2 POP POP PUSH1 0x40 MLOAD DUP1 SWAP2 SUB SWAP1 REVERT JUMPDEST PUSH1 0x1 DUP3 PUSH1 0x0 ADD PUSH1 0x0 DUP4 PUSH20 0xFFFFFFFFFFFFFFFFFFFFFFFFFFFFFFFFFFFFFFFF AND PUSH20 0xFFFFFFFFFFFFFFFFFFFFFFFFFFFFFFFFFFFFFFFF AND DUP2 MSTORE PUSH1 0x20 ADD SWAP1 DUP2 MSTORE PUSH1 0x20 ADD PUSH1 0x0 KECCAK256 PUSH1 0x0 PUSH2 0x100 EXP DUP2 SLOAD DUP2 PUSH1 0xFF MUL NOT AND SWAP1 DUP4 ISZERO ISZERO MUL OR SWAP1 SSTORE POP POP POP JUMP JUMPDEST PUSH1 0x0 DUP1 PUSH20 0xFFFFFFFFFFFFFFFFFFFFFFFFFFFFFFFFFFFFFFFF AND DUP3 PUSH20 0xFFFFFFFFFFFFFFFFFFFFFFFFFFFFFFFFFFFFFFFF AND EQ ISZERO ISZERO ISZERO PUSH3 0x343 JUMPI PUSH1 0x40 MLOAD PUSH32 0x8C379A000000000000000000000000000000000000000000000000000000000 DUP2 MSTORE PUSH1 0x4 ADD DUP1 DUP1 PUSH1 0x20 ADD DUP3 DUP2 SUB DUP3 MSTORE PUSH1 0x22 DUP2 MSTORE PUSH1 0x20 ADD DUP1 PUSH3 0x1D17 PUSH1 0x22 SWAP2 CODECOPY PUSH1 0x40 ADD SWAP2 POP POP PUSH1 0x40 MLOAD DUP1 SWAP2 SUB SWAP1 REVERT JUMPDEST DUP3 PUSH1 0x0 ADD PUSH1 0x0 DUP4 PUSH20 0xFFFFFFFFFFFFFFFFFFFFFFFFFFFFFFFFFFFFFFFF AND PUSH20 0xFFFFFFFFFFFFFFFFFFFFFFFFFFFFFFFFFFFFFFFF AND DUP2 MSTORE PUSH1 0x20 ADD SWAP1 DUP2 MSTORE PUSH1 0x20 ADD PUSH1 0x0 KECCAK256 PUSH1 0x0 SWAP1 SLOAD SWAP1 PUSH2 0x100 EXP SWAP1 DIV PUSH1 0xFF AND SWAP1 POP SWAP3 SWAP2 POP POP JUMP JUMPDEST DUP3 DUP1 SLOAD PUSH1 0x1 DUP2 PUSH1 0x1 AND ISZERO PUSH2 0x100 MUL SUB AND PUSH1 0x2 SWAP1 DIV SWAP1 PUSH1 0x0 MSTORE PUSH1 0x20 PUSH1 0x0 KECCAK256 SWAP1 PUSH1 0x1F ADD PUSH1 0x20 SWAP1 DIV DUP2 ADD SWAP3 DUP3 PUSH1 0x1F LT PUSH3 0x3DD JUMPI DUP1 MLOAD PUSH1 0xFF NOT AND DUP4 DUP1 ADD OR DUP6 SSTORE PUSH3 0x40E JUMP JUMPDEST DUP3 DUP1 ADD PUSH1 0x1 ADD DUP6 SSTORE DUP3 ISZERO PUSH3 0x40E JUMPI SWAP2 DUP3 ADD JUMPDEST DUP3 DUP2 GT ISZERO PUSH3 0x40D JUMPI DUP3 MLOAD DUP3 SSTORE SWAP2 PUSH1 0x20 ADD SWAP2 SWAP1 PUSH1 0x1 ADD SWAP1 PUSH3 0x3F0 JUMP JUMPDEST JUMPDEST POP SWAP1 POP PUSH3 0x41D SWAP2 SWAP1 PUSH3 0x421 JUMP JUMPDEST POP SWAP1 JUMP JUMPDEST PUSH3 0x446 SWAP2 SWAP1 JUMPDEST DUP1 DUP3 GT ISZERO PUSH3 0x442 JUMPI PUSH1 0x0 DUP2 PUSH1 0x0 SWAP1 SSTORE POP PUSH1 0x1 ADD PUSH3 0x428 JUMP JUMPDEST POP SWAP1 JUMP JUMPDEST SWAP1 JUMP JUMPDEST PUSH2 0x18BE DUP1 PUSH3 0x459 PUSH1 0x0 CODECOPY PUSH1 0x0 RETURN INVALID PUSH1 0x80 PUSH1 0x40 MSTORE CALLVALUE DUP1 ISZERO PUSH2 0x10 JUMPI PUSH1 0x0 DUP1 REVERT JUMPDEST POP PUSH1 0x4 CALLDATASIZE LT PUSH2 0xF5 JUMPI PUSH1 0x0 CALLDATALOAD PUSH1 0xE0 SHR DUP1 PUSH4 0x70A08231 GT PUSH2 0x97 JUMPI DUP1 PUSH4 0xA457C2D7 GT PUSH2 0x66 JUMPI DUP1 PUSH4 0xA457C2D7 EQ PUSH2 0x4A0 JUMPI DUP1 PUSH4 0xA9059CBB EQ PUSH2 0x506 JUMPI DUP1 PUSH4 0xAA271E1A EQ PUSH2 0x56C JUMPI DUP1 PUSH4 0xDD62ED3E EQ PUSH2 0x5C8 JUMPI PUSH2 0xF5 JUMP JUMPDEST DUP1 PUSH4 0x70A08231 EQ PUSH2 0x377 JUMPI DUP1 PUSH4 0x95D89B41 EQ PUSH2 0x3CF JUMPI DUP1 PUSH4 0x983B2D56 EQ PUSH2 0x452 JUMPI DUP1 PUSH4 0x98650275 EQ PUSH2 0x496 JUMPI PUSH2 0xF5 JUMP JUMPDEST DUP1 PUSH4 0x23B872DD GT PUSH2 0xD3 JUMPI DUP1 PUSH4 0x23B872DD EQ PUSH2 0x201 JUMPI DUP1 PUSH4 0x313CE567 EQ PUSH2 0x287 JUMPI DUP1 PUSH4 0x39509351 EQ PUSH2 0x2AB JUMPI DUP1 PUSH4 0x40C10F19 EQ PUSH2 0x311 JUMPI PUSH2 0xF5 JUMP JUMPDEST DUP1 PUSH4 0x6FDDE03 EQ PUSH2 0xFA JUMPI DUP1 PUSH4 0x95EA7B3 EQ PUSH2 0x17D JUMPI DUP1 PUSH4 0x18160DDD EQ PUSH2 0x1E3 JUMPI JUMPDEST PUSH1 0x0 DUP1 REVERT JUMPDEST PUSH2 0x102 PUSH2 0x640 JUMP JUMPDEST PUSH1 0x40 MLOAD DUP1 DUP1 PUSH1 0x20 ADD DUP3 DUP2 SUB DUP3 MSTORE DUP4 DUP2 DUP2 MLOAD DUP2 MSTORE PUSH1 0x20 ADD SWAP2 POP DUP1 MLOAD SWAP1 PUSH1 0x20 ADD SWAP1 DUP1 DUP4 DUP4 PUSH1 0x0 JUMPDEST DUP4 DUP2 LT ISZERO PUSH2 0x142 JUMPI DUP1 DUP3 ADD MLOAD DUP2 DUP5 ADD MSTORE PUSH1 0x20 DUP2 ADD SWAP1 POP PUSH2 0x127 JUMP JUMPDEST POP POP POP POP SWAP1 POP SWAP1 DUP2 ADD SWAP1 PUSH1 0x1F AND DUP1 ISZERO PUSH2 0x16F JUMPI DUP1 DUP3 SUB DUP1 MLOAD PUSH1 0x1 DUP4 PUSH1 0x20 SUB PUSH2 0x100 EXP SUB NOT AND DUP2 MSTORE PUSH1 0x20 ADD SWAP2 POP JUMPDEST POP SWAP3 POP POP POP PUSH1 0x40 MLOAD DUP1 SWAP2 SUB SWAP1 RETURN JUMPDEST PUSH2 0x1C9 PUSH1 0x4 DUP1 CALLDATASIZE SUB PUSH1 0x40 DUP2 LT ISZERO PUSH2 0x193 JUMPI PUSH1 0x0 DUP1 REVERT JUMPDEST DUP2 ADD SWAP1 DUP1 DUP1 CALLDATALOAD PUSH20 0xFFFFFFFFFFFFFFFFFFFFFFFFFFFFFFFFFFFFFFFF AND SWAP1 PUSH1 0x20 ADD SWAP1 SWAP3 SWAP2 SWAP1 DUP1 CALLDATALOAD SWAP1 PUSH1 0x20 ADD SWAP1 SWAP3 SWAP2 SWAP1 POP POP POP PUSH2 0x6E2 JUMP JUMPDEST PUSH1 0x40 MLOAD DUP1 DUP3 ISZERO ISZERO ISZERO ISZERO DUP2 MSTORE PUSH1 0x20 ADD SWAP2 POP POP PUSH1 0x40 MLOAD DUP1 SWAP2 SUB SWAP1 RETURN JUMPDEST PUSH2 0x1EB PUSH2 0x700 JUMP JUMPDEST PUSH1 0x40 MLOAD DUP1 DUP3 DUP2 MSTORE PUSH1 0x20 ADD SWAP2 POP POP PUSH1 0x40 MLOAD DUP1 SWAP2 SUB SWAP1 RETURN JUMPDEST PUSH2 0x26D PUSH1 0x4 DUP1 CALLDATASIZE SUB PUSH1 0x60 DUP2 LT ISZERO PUSH2 0x217 JUMPI PUSH1 0x0 DUP1 REVERT JUMPDEST DUP2 ADD SWAP1 DUP1 DUP1 CALLDATALOAD PUSH20 0xFFFFFFFFFFFFFFFFFFFFFFFFFFFFFFFFFFFFFFFF AND SWAP1 PUSH1 0x20 ADD SWAP1 SWAP3 SWAP2 SWAP1 DUP1 CALLDATALOAD PUSH20 0xFFFFFFFFFFFFFFFFFFFFFFFFFFFFFFFFFFFFFFFF AND SWAP1 PUSH1 0x20 ADD SWAP1 SWAP3 SWAP2 SWAP1 DUP1 CALLDATALOAD SWAP1 PUSH1 0x20 ADD SWAP1 SWAP3 SWAP2 SWAP1 POP POP POP PUSH2 0x70A JUMP JUMPDEST PUSH1 0x40 MLOAD DUP1 DUP3 ISZERO ISZERO ISZERO ISZERO DUP2 MSTORE PUSH1 0x20 ADD SWAP2 POP POP PUSH1 0x40 MLOAD DUP1 SWAP2 SUB SWAP1 RETURN JUMPDEST PUSH2 0x28F PUSH2 0x7E3 JUMP JUMPDEST PUSH1 0x40 MLOAD DUP1 DUP3 PUSH1 0xFF AND PUSH1 0xFF AND DUP2 MSTORE PUSH1 0x20 ADD SWAP2 POP POP PUSH1 0x40 MLOAD DUP1 SWAP2 SUB SWAP1 RETURN JUMPDEST PUSH2 0x2F7 PUSH1 0x4 DUP1 CALLDATASIZE SUB PUSH1 0x40 DUP2 LT ISZERO PUSH2 0x2C1 JUMPI PUSH1 0x0 DUP1 REVERT JUMPDEST DUP2 ADD SWAP1 DUP1 DUP1 CALLDATALOAD PUSH20 0xFFFFFFFFFFFFFFFFFFFFFFFFFFFFFFFFFFFFFFFF AND SWAP1 PUSH1 0x20 ADD SWAP1 SWAP3 SWAP2 SWAP1 DUP1 CALLDATALOAD SWAP1 PUSH1 0x20 ADD SWAP1 SWAP3 SWAP2 SWAP1 POP POP POP PUSH2 0x7FA JUMP JUMPDEST PUSH1 0x40 MLOAD DUP1 DUP3 ISZERO ISZERO ISZERO ISZERO DUP2 MSTORE PUSH1 0x20 ADD SWAP2 POP POP PUSH1 0x40 MLOAD DUP1 SWAP2 SUB SWAP1 RETURN JUMPDEST PUSH2 0x35D PUSH1 0x4 DUP1 CALLDATASIZE SUB PUSH1 0x40 DUP2 LT ISZERO PUSH2 0x327 JUMPI PUSH1 0x0 DUP1 REVERT JUMPDEST DUP2 ADD SWAP1 DUP1 DUP1 CALLDATALOAD PUSH20 0xFFFFFFFFFFFFFFFFFFFFFFFFFFFFFFFFFFFFFFFF AND SWAP1 PUSH1 0x20 ADD SWAP1 SWAP3 SWAP2 SWAP1 DUP1 CALLDATALOAD SWAP1 PUSH1 0x20 ADD SWAP1 SWAP3 SWAP2 SWAP1 POP POP POP PUSH2 0x8AD JUMP JUMPDEST PUSH1 0x40 MLOAD DUP1 DUP3 ISZERO ISZERO ISZERO ISZERO DUP2 MSTORE PUSH1 0x20 ADD SWAP2 POP POP PUSH1 0x40 MLOAD DUP1 SWAP2 SUB SWAP1 RETURN JUMPDEST PUSH2 0x3B9 PUSH1 0x4 DUP1 CALLDATASIZE SUB PUSH1 0x20 DUP2 LT ISZERO PUSH2 0x38D JUMPI PUSH1 0x0 DUP1 REVERT JUMPDEST DUP2 ADD SWAP1 DUP1 DUP1 CALLDATALOAD PUSH20 0xFFFFFFFFFFFFFFFFFFFFFFFFFFFFFFFFFFFFFFFF AND SWAP1 PUSH1 0x20 ADD SWAP1 SWAP3 SWAP2 SWAP1 POP POP POP PUSH2 0x92A JUMP JUMPDEST PUSH1 0x40 MLOAD DUP1 DUP3 DUP2 MSTORE PUSH1 0x20 ADD SWAP2 POP POP PUSH1 0x40 MLOAD DUP1 SWAP2 SUB SWAP1 RETURN JUMPDEST PUSH2 0x3D7 PUSH2 0x972 JUMP JUMPDEST PUSH1 0x40 MLOAD DUP1 DUP1 PUSH1 0x20 ADD DUP3 DUP2 SUB DUP3 MSTORE DUP4 DUP2 DUP2 MLOAD DUP2 MSTORE PUSH1 0x20 ADD SWAP2 POP DUP1 MLOAD SWAP1 PUSH1 0x20 ADD SWAP1 DUP1 DUP4 DUP4 PUSH1 0x0 JUMPDEST DUP4 DUP2 LT ISZERO PUSH2 0x417 JUMPI DUP1 DUP3 ADD MLOAD DUP2 DUP5 ADD MSTORE PUSH1 0x20 DUP2 ADD SWAP1 POP PUSH2 0x3FC JUMP JUMPDEST POP POP POP POP SWAP1 POP SWAP1 DUP2 ADD SWAP1 PUSH1 0x1F AND DUP1 ISZERO PUSH2 0x444 JUMPI DUP1 DUP3 SUB DUP1 MLOAD PUSH1 0x1 DUP4 PUSH1 0x20 SUB PUSH2 0x100 EXP SUB NOT AND DUP2 MSTORE PUSH1 0x20 ADD SWAP2 POP JUMPDEST POP SWAP3 POP POP POP PUSH1 0x40 MLOAD DUP1 SWAP2 SUB SWAP1 RETURN JUMPDEST PUSH2 0x494 PUSH1 0x4 DUP1 CALLDATASIZE SUB PUSH1 0x20 DUP2 LT ISZERO PUSH2 0x468 JUMPI PUSH1 0x0 DUP1 REVERT JUMPDEST DUP2 ADD SWAP1 DUP1 DUP1 CALLDATALOAD PUSH20 0xFFFFFFFFFFFFFFFFFFFFFFFFFFFFFFFFFFFFFFFF AND SWAP1 PUSH1 0x20 ADD SWAP1 SWAP3 SWAP2 SWAP1 POP POP POP PUSH2 0xA14 JUMP JUMPDEST STOP JUMPDEST PUSH2 0x49E PUSH2 0xA87 JUMP JUMPDEST STOP JUMPDEST PUSH2 0x4EC PUSH1 0x4 DUP1 CALLDATASIZE SUB PUSH1 0x40 DUP2 LT ISZERO PUSH2 0x4B6 JUMPI PUSH1 0x0 DUP1 REVERT JUMPDEST DUP2 ADD SWAP1 DUP1 DUP1 CALLDATALOAD PUSH20 0xFFFFFFFFFFFFFFFFFFFFFFFFFFFFFFFFFFFFFFFF AND SWAP1 PUSH1 0x20 ADD SWAP1 SWAP3 SWAP2 SWAP1 DUP1 CALLDATALOAD SWAP1 PUSH1 0x20 ADD SWAP1 SWAP3 SWAP2 SWAP1 POP POP POP PUSH2 0xA99 JUMP JUMPDEST PUSH1 0x40 MLOAD DUP1 DUP3 ISZERO ISZERO ISZERO ISZERO DUP2 MSTORE PUSH1 0x20 ADD SWAP2 POP POP PUSH1 0x40 MLOAD DUP1 SWAP2 SUB SWAP1 RETURN JUMPDEST PUSH2 0x552 PUSH1 0x4 DUP1 CALLDATASIZE SUB PUSH1 0x40 DUP2 LT ISZERO PUSH2 0x51C JUMPI PUSH1 0x0 DUP1 REVERT JUMPDEST DUP2 ADD SWAP1 DUP1 DUP1 CALLDATALOAD PUSH20 0xFFFFFFFFFFFFFFFFFFFFFFFFFFFFFFFFFFFFFFFF AND SWAP1 PUSH1 0x20 ADD SWAP1 SWAP3 SWAP2 SWAP1 DUP1 CALLDATALOAD SWAP1 PUSH1 0x20 ADD SWAP1 SWAP3 SWAP2 SWAP1 POP POP POP PUSH2 0xB66 JUMP JUMPDEST PUSH1 0x40 MLOAD DUP1 DUP3 ISZERO ISZERO ISZERO ISZERO DUP2 MSTORE PUSH1 0x20 ADD SWAP2 POP POP PUSH1 0x40 MLOAD DUP1 SWAP2 SUB SWAP1 RETURN JUMPDEST PUSH2 0x5AE PUSH1 0x4 DUP1 CALLDATASIZE SUB PUSH1 0x20 DUP2 LT ISZERO PUSH2 0x582 JUMPI PUSH1 0x0 DUP1 REVERT JUMPDEST DUP2 ADD SWAP1 DUP1 DUP1 CALLDATALOAD PUSH20 0xFFFFFFFFFFFFFFFFFFFFFFFFFFFFFFFFFFFFFFFF AND SWAP1 PUSH1 0x20 ADD SWAP1 SWAP3 SWAP2 SWAP1 POP POP POP PUSH2 0xB84 JUMP JUMPDEST PUSH1 0x40 MLOAD DUP1 DUP3 ISZERO ISZERO ISZERO ISZERO DUP2 MSTORE PUSH1 0x20 ADD SWAP2 POP POP PUSH1 0x40 MLOAD DUP1 SWAP2 SUB SWAP1 RETURN JUMPDEST PUSH2 0x62A PUSH1 0x4 DUP1 CALLDATASIZE SUB PUSH1 0x40 DUP2 LT ISZERO PUSH2 0x5DE JUMPI PUSH1 0x0 DUP1 REVERT JUMPDEST DUP2 ADD SWAP1 DUP1 DUP1 CALLDATALOAD PUSH20 0xFFFFFFFFFFFFFFFFFFFFFFFFFFFFFFFFFFFFFFFF AND SWAP1 PUSH1 0x20 ADD SWAP1 SWAP3 SWAP2 SWAP1 DUP1 CALLDATALOAD PUSH20 0xFFFFFFFFFFFFFFFFFFFFFFFFFFFFFFFFFFFFFFFF AND SWAP1 PUSH1 0x20 ADD SWAP1 SWAP3 SWAP2 SWAP1 POP POP POP PUSH2 0xBA1 JUMP JUMPDEST PUSH1 0x40 MLOAD DUP1 DUP3 DUP2 MSTORE PUSH1 0x20 ADD SWAP2 POP POP PUSH1 0x40 MLOAD DUP1 SWAP2 SUB SWAP1 RETURN JUMPDEST PUSH1 0x60 PUSH1 0x3 DUP1 SLOAD PUSH1 0x1 DUP2 PUSH1 0x1 AND ISZERO PUSH2 0x100 MUL SUB AND PUSH1 0x2 SWAP1 DIV DUP1 PUSH1 0x1F ADD PUSH1 0x20 DUP1 SWAP2 DIV MUL PUSH1 0x20 ADD PUSH1 0x40 MLOAD SWAP1 DUP2 ADD PUSH1 0x40 MSTORE DUP1 SWAP3 SWAP2 SWAP1 DUP2 DUP2 MSTORE PUSH1 0x20 ADD DUP3 DUP1 SLOAD PUSH1 0x1 DUP2 PUSH1 0x1 AND ISZERO PUSH2 0x100 MUL SUB AND PUSH1 0x2 SWAP1 DIV DUP1 ISZERO PUSH2 0x6D8 JUMPI DUP1 PUSH1 0x1F LT PUSH2 0x6AD JUMPI PUSH2 0x100 DUP1 DUP4 SLOAD DIV MUL DUP4 MSTORE SWAP2 PUSH1 0x20 ADD SWAP2 PUSH2 0x6D8 JUMP JUMPDEST DUP3 ADD SWAP2 SWAP1 PUSH1 0x0 MSTORE PUSH1 0x20 PUSH1 0x0 KECCAK256 SWAP1 JUMPDEST DUP2 SLOAD DUP2 MSTORE SWAP1 PUSH1 0x1 ADD SWAP1 PUSH1 0x20 ADD DUP1 DUP4 GT PUSH2 0x6BB JUMPI DUP3 SWAP1 SUB PUSH1 0x1F AND DUP3 ADD SWAP2 JUMPDEST POP POP POP POP POP SWAP1 POP SWAP1 JUMP JUMPDEST PUSH1 0x0 PUSH2 0x6F6 PUSH2 0x6EF PUSH2 0xC28 JUMP JUMPDEST DUP5 DUP5 PUSH2 0xC30 JUMP JUMPDEST PUSH1 0x1 SWAP1 POP SWAP3 SWAP2 POP POP JUMP JUMPDEST PUSH1 0x0 PUSH1 0x2 SLOAD SWAP1 POP SWAP1 JUMP JUMPDEST PUSH1 0x0 PUSH2 0x717 DUP5 DUP5 DUP5 PUSH2 0xE2B JUMP JUMPDEST PUSH2 0x7D8 DUP5 PUSH2 0x723 PUSH2 0xC28 JUMP JUMPDEST PUSH2 0x7D3 DUP6 PUSH1 0x40 MLOAD DUP1 PUSH1 0x60 ADD PUSH1 0x40 MSTORE DUP1 PUSH1 0x28 DUP2 MSTORE PUSH1 0x20 ADD PUSH2 0x17DB PUSH1 0x28 SWAP2 CODECOPY PUSH1 0x1 PUSH1 0x0 DUP12 PUSH20 0xFFFFFFFFFFFFFFFFFFFFFFFFFFFFFFFFFFFFFFFF AND PUSH20 0xFFFFFFFFFFFFFFFFFFFFFFFFFFFFFFFFFFFFFFFF AND DUP2 MSTORE PUSH1 0x20 ADD SWAP1 DUP2 MSTORE PUSH1 0x20 ADD PUSH1 0x0 KECCAK256 PUSH1 0x0 PUSH2 0x789 PUSH2 0xC28 JUMP JUMPDEST PUSH20 0xFFFFFFFFFFFFFFFFFFFFFFFFFFFFFFFFFFFFFFFF AND PUSH20 0xFFFFFFFFFFFFFFFFFFFFFFFFFFFFFFFFFFFFFFFF AND DUP2 MSTORE PUSH1 0x20 ADD SWAP1 DUP2 MSTORE PUSH1 0x20 ADD PUSH1 0x0 KECCAK256 SLOAD PUSH2 0x10E5 SWAP1 SWAP3 SWAP2 SWAP1 PUSH4 0xFFFFFFFF AND JUMP JUMPDEST PUSH2 0xC30 JUMP JUMPDEST PUSH1 0x1 SWAP1 POP SWAP4 SWAP3 POP POP POP JUMP JUMPDEST PUSH1 0x0 PUSH1 0x5 PUSH1 0x0 SWAP1 SLOAD SWAP1 PUSH2 0x100 EXP SWAP1 DIV PUSH1 0xFF AND SWAP1 POP SWAP1 JUMP JUMPDEST PUSH1 0x0 PUSH2 0x8A3 PUSH2 0x807 PUSH2 0xC28 JUMP JUMPDEST DUP5 PUSH2 0x89E DUP6 PUSH1 0x1 PUSH1 0x0 PUSH2 0x818 PUSH2 0xC28 JUMP JUMPDEST PUSH20 0xFFFFFFFFFFFFFFFFFFFFFFFFFFFFFFFFFFFFFFFF AND PUSH20 0xFFFFFFFFFFFFFFFFFFFFFFFFFFFFFFFFFFFFFFFF AND DUP2 MSTORE PUSH1 0x20 ADD SWAP1 DUP2 MSTORE PUSH1 0x20 ADD PUSH1 0x0 KECCAK256 PUSH1 0x0 DUP10 PUSH20 0xFFFFFFFFFFFFFFFFFFFFFFFFFFFFFFFFFFFFFFFF AND PUSH20 0xFFFFFFFFFFFFFFFFFFFFFFFFFFFFFFFFFFFFFFFF AND DUP2 MSTORE PUSH1 0x20 ADD SWAP1 DUP2 MSTORE PUSH1 0x20 ADD PUSH1 0x0 KECCAK256 SLOAD PUSH2 0x11A7 SWAP1 SWAP2 SWAP1 PUSH4 0xFFFFFFFF AND JUMP JUMPDEST PUSH2 0xC30 JUMP JUMPDEST PUSH1 0x1 SWAP1 POP SWAP3 SWAP2 POP POP JUMP JUMPDEST PUSH1 0x0 PUSH2 0x8BF PUSH2 0x8BA PUSH2 0xC28 JUMP JUMPDEST PUSH2 0xB84 JUMP JUMPDEST ISZERO ISZERO PUSH2 0x916 JUMPI PUSH1 0x40 MLOAD PUSH32 0x8C379A000000000000000000000000000000000000000000000000000000000 DUP2 MSTORE PUSH1 0x4 ADD DUP1 DUP1 PUSH1 0x20 ADD DUP3 DUP2 SUB DUP3 MSTORE PUSH1 0x30 DUP2 MSTORE PUSH1 0x20 ADD DUP1 PUSH2 0x178A PUSH1 0x30 SWAP2 CODECOPY PUSH1 0x40 ADD SWAP2 POP POP PUSH1 0x40 MLOAD DUP1 SWAP2 SUB SWAP1 REVERT JUMPDEST PUSH2 0x920 DUP4 DUP4 PUSH2 0x1231 JUMP JUMPDEST PUSH1 0x1 SWAP1 POP SWAP3 SWAP2 POP POP JUMP JUMPDEST PUSH1 0x0 DUP1 PUSH1 0x0 DUP4 PUSH20 0xFFFFFFFFFFFFFFFFFFFFFFFFFFFFFFFFFFFFFFFF AND PUSH20 0xFFFFFFFFFFFFFFFFFFFFFFFFFFFFFFFFFFFFFFFF AND DUP2 MSTORE PUSH1 0x20 ADD SWAP1 DUP2 MSTORE PUSH1 0x20 ADD PUSH1 0x0 KECCAK256 SLOAD SWAP1 POP SWAP2 SWAP1 POP JUMP JUMPDEST PUSH1 0x60 PUSH1 0x4 DUP1 SLOAD PUSH1 0x1 DUP2 PUSH1 0x1 AND ISZERO PUSH2 0x100 MUL SUB AND PUSH1 0x2 SWAP1 DIV DUP1 PUSH1 0x1F ADD PUSH1 0x20 DUP1 SWAP2 DIV MUL PUSH1 0x20 ADD PUSH1 0x40 MLOAD SWAP1 DUP2 ADD PUSH1 0x40 MSTORE DUP1 SWAP3 SWAP2 SWAP1 DUP2 DUP2 MSTORE PUSH1 0x20 ADD DUP3 DUP1 SLOAD PUSH1 0x1 DUP2 PUSH1 0x1 AND ISZERO PUSH2 0x100 MUL SUB AND PUSH1 0x2 SWAP1 DIV DUP1 ISZERO PUSH2 0xA0A JUMPI DUP1 PUSH1 0x1F LT PUSH2 0x9DF JUMPI PUSH2 0x100 DUP1 DUP4 SLOAD DIV MUL DUP4 MSTORE SWAP2 PUSH1 0x20 ADD SWAP2 PUSH2 0xA0A JUMP JUMPDEST DUP3 ADD SWAP2 SWAP1 PUSH1 0x0 MSTORE PUSH1 0x20 PUSH1 0x0 KECCAK256 SWAP1 JUMPDEST DUP2 SLOAD DUP2 MSTORE SWAP1 PUSH1 0x1 ADD SWAP1 PUSH1 0x20 ADD DUP1 DUP4 GT PUSH2 0x9ED JUMPI DUP3 SWAP1 SUB PUSH1 0x1F AND DUP3 ADD SWAP2 JUMPDEST POP POP POP POP POP SWAP1 POP SWAP1 JUMP JUMPDEST PUSH2 0xA24 PUSH2 0xA1F PUSH2 0xC28 JUMP JUMPDEST PUSH2 0xB84 JUMP JUMPDEST ISZERO ISZERO PUSH2 0xA7B JUMPI PUSH1 0x40 MLOAD PUSH32 0x8C379A000000000000000000000000000000000000000000000000000000000 DUP2 MSTORE PUSH1 0x4 ADD DUP1 DUP1 PUSH1 0x20 ADD DUP3 DUP2 SUB DUP3 MSTORE PUSH1 0x30 DUP2 MSTORE PUSH1 0x20 ADD DUP1 PUSH2 0x178A PUSH1 0x30 SWAP2 CODECOPY PUSH1 0x40 ADD SWAP2 POP POP PUSH1 0x40 MLOAD DUP1 SWAP2 SUB SWAP1 REVERT JUMPDEST PUSH2 0xA84 DUP2 PUSH2 0x13EE JUMP JUMPDEST POP JUMP JUMPDEST PUSH2 0xA97 PUSH2 0xA92 PUSH2 0xC28 JUMP JUMPDEST PUSH2 0x1448 JUMP JUMPDEST JUMP JUMPDEST PUSH1 0x0 PUSH2 0xB5C PUSH2 0xAA6 PUSH2 0xC28 JUMP JUMPDEST DUP5 PUSH2 0xB57 DUP6 PUSH1 0x40 MLOAD DUP1 PUSH1 0x60 ADD PUSH1 0x40 MSTORE DUP1 PUSH1 0x25 DUP2 MSTORE PUSH1 0x20 ADD PUSH2 0x186E PUSH1 0x25 SWAP2 CODECOPY PUSH1 0x1 PUSH1 0x0 PUSH2 0xAD0 PUSH2 0xC28 JUMP JUMPDEST PUSH20 0xFFFFFFFFFFFFFFFFFFFFFFFFFFFFFFFFFFFFFFFF AND PUSH20 0xFFFFFFFFFFFFFFFFFFFFFFFFFFFFFFFFFFFFFFFF AND DUP2 MSTORE PUSH1 0x20 ADD SWAP1 DUP2 MSTORE PUSH1 0x20 ADD PUSH1 0x0 KECCAK256 PUSH1 0x0 DUP11 PUSH20 0xFFFFFFFFFFFFFFFFFFFFFFFFFFFFFFFFFFFFFFFF AND PUSH20 0xFFFFFFFFFFFFFFFFFFFFFFFFFFFFFFFFFFFFFFFF AND DUP2 MSTORE PUSH1 0x20 ADD SWAP1 DUP2 MSTORE PUSH1 0x20 ADD PUSH1 0x0 KECCAK256 SLOAD PUSH2 0x10E5 SWAP1 SWAP3 SWAP2 SWAP1 PUSH4 0xFFFFFFFF AND JUMP JUMPDEST PUSH2 0xC30 JUMP JUMPDEST PUSH1 0x1 SWAP1 POP SWAP3 SWAP2 POP POP JUMP JUMPDEST PUSH1 0x0 PUSH2 0xB7A PUSH2 0xB73 PUSH2 0xC28 JUMP JUMPDEST DUP5 DUP5 PUSH2 0xE2B JUMP JUMPDEST PUSH1 0x1 SWAP1 POP SWAP3 SWAP2 POP POP JUMP JUMPDEST PUSH1 0x0 PUSH2 0xB9A DUP3 PUSH1 0x6 PUSH2 0x14A2 SWAP1 SWAP2 SWAP1 PUSH4 0xFFFFFFFF AND JUMP JUMPDEST SWAP1 POP SWAP2 SWAP1 POP JUMP JUMPDEST PUSH1 0x0 PUSH1 0x1 PUSH1 0x0 DUP5 PUSH20 0xFFFFFFFFFFFFFFFFFFFFFFFFFFFFFFFFFFFFFFFF AND PUSH20 0xFFFFFFFFFFFFFFFFFFFFFFFFFFFFFFFFFFFFFFFF AND DUP2 MSTORE PUSH1 0x20 ADD SWAP1 DUP2 MSTORE PUSH1 0x20 ADD PUSH1 0x0 KECCAK256 PUSH1 0x0 DUP4 PUSH20 0xFFFFFFFFFFFFFFFFFFFFFFFFFFFFFFFFFFFFFFFF AND PUSH20 0xFFFFFFFFFFFFFFFFFFFFFFFFFFFFFFFFFFFFFFFF AND DUP2 MSTORE PUSH1 0x20 ADD SWAP1 DUP2 MSTORE PUSH1 0x20 ADD PUSH1 0x0 KECCAK256 SLOAD SWAP1 POP SWAP3 SWAP2 POP POP JUMP JUMPDEST PUSH1 0x0 CALLER SWAP1 POP SWAP1 JUMP JUMPDEST PUSH1 0x0 PUSH20 0xFFFFFFFFFFFFFFFFFFFFFFFFFFFFFFFFFFFFFFFF AND DUP4 PUSH20 0xFFFFFFFFFFFFFFFFFFFFFFFFFFFFFFFFFFFFFFFF AND EQ ISZERO ISZERO ISZERO PUSH2 0xCB8 JUMPI PUSH1 0x40 MLOAD PUSH32 0x8C379A000000000000000000000000000000000000000000000000000000000 DUP2 MSTORE PUSH1 0x4 ADD DUP1 DUP1 PUSH1 0x20 ADD DUP3 DUP2 SUB DUP3 MSTORE PUSH1 0x24 DUP2 MSTORE PUSH1 0x20 ADD DUP1 PUSH2 0x184A PUSH1 0x24 SWAP2 CODECOPY PUSH1 0x40 ADD SWAP2 POP POP PUSH1 0x40 MLOAD DUP1 SWAP2 SUB SWAP1 REVERT JUMPDEST PUSH1 0x0 PUSH20 0xFFFFFFFFFFFFFFFFFFFFFFFFFFFFFFFFFFFFFFFF AND DUP3 PUSH20 0xFFFFFFFFFFFFFFFFFFFFFFFFFFFFFFFFFFFFFFFF AND EQ ISZERO ISZERO ISZERO PUSH2 0xD40 JUMPI PUSH1 0x40 MLOAD PUSH32 0x8C379A000000000000000000000000000000000000000000000000000000000 DUP2 MSTORE PUSH1 0x4 ADD DUP1 DUP1 PUSH1 0x20 ADD DUP3 DUP2 SUB DUP3 MSTORE PUSH1 0x22 DUP2 MSTORE PUSH1 0x20 ADD DUP1 PUSH2 0x1742 PUSH1 0x22 SWAP2 CODECOPY PUSH1 0x40 ADD SWAP2 POP POP PUSH1 0x40 MLOAD DUP1 SWAP2 SUB SWAP1 REVERT JUMPDEST DUP1 PUSH1 0x1 PUSH1 0x0 DUP6 PUSH20 0xFFFFFFFFFFFFFFFFFFFFFFFFFFFFFFFFFFFFFFFF AND PUSH20 0xFFFFFFFFFFFFFFFFFFFFFFFFFFFFFFFFFFFFFFFF AND DUP2 MSTORE PUSH1 0x20 ADD SWAP1 DUP2 MSTORE PUSH1 0x20 ADD PUSH1 0x0 KECCAK256 PUSH1 0x0 DUP5 PUSH20 0xFFFFFFFFFFFFFFFFFFFFFFFFFFFFFFFFFFFFFFFF AND PUSH20 0xFFFFFFFFFFFFFFFFFFFFFFFFFFFFFFFFFFFFFFFF AND DUP2 MSTORE PUSH1 0x20 ADD SWAP1 DUP2 MSTORE PUSH1 0x20 ADD PUSH1 0x0 KECCAK256 DUP2 SWAP1 SSTORE POP DUP2 PUSH20 0xFFFFFFFFFFFFFFFFFFFFFFFFFFFFFFFFFFFFFFFF AND DUP4 PUSH20 0xFFFFFFFFFFFFFFFFFFFFFFFFFFFFFFFFFFFFFFFF AND PUSH32 0x8C5BE1E5EBEC7D5BD14F71427D1E84F3DD0314C0F7B2291E5B200AC8C7C3B925 DUP4 PUSH1 0x40 MLOAD DUP1 DUP3 DUP2 MSTORE PUSH1 0x20 ADD SWAP2 POP POP PUSH1 0x40 MLOAD DUP1 SWAP2 SUB SWAP1 LOG3 POP POP POP JUMP JUMPDEST PUSH1 0x0 PUSH20 0xFFFFFFFFFFFFFFFFFFFFFFFFFFFFFFFFFFFFFFFF AND DUP4 PUSH20 0xFFFFFFFFFFFFFFFFFFFFFFFFFFFFFFFFFFFFFFFF AND EQ ISZERO ISZERO ISZERO PUSH2 0xEB3 JUMPI PUSH1 0x40 MLOAD PUSH32 0x8C379A000000000000000000000000000000000000000000000000000000000 DUP2 MSTORE PUSH1 0x4 ADD DUP1 DUP1 PUSH1 0x20 ADD DUP3 DUP2 SUB DUP3 MSTORE PUSH1 0x25 DUP2 MSTORE PUSH1 0x20 ADD DUP1 PUSH2 0x1825 PUSH1 0x25 SWAP2 CODECOPY PUSH1 0x40 ADD SWAP2 POP POP PUSH1 0x40 MLOAD DUP1 SWAP2 SUB SWAP1 REVERT JUMPDEST PUSH1 0x0 PUSH20 0xFFFFFFFFFFFFFFFFFFFFFFFFFFFFFFFFFFFFFFFF AND DUP3 PUSH20 0xFFFFFFFFFFFFFFFFFFFFFFFFFFFFFFFFFFFFFFFF AND EQ ISZERO ISZERO ISZERO PUSH2 0xF3B JUMPI PUSH1 0x40 MLOAD PUSH32 0x8C379A000000000000000000000000000000000000000000000000000000000 DUP2 MSTORE PUSH1 0x4 ADD DUP1 DUP1 PUSH1 0x20 ADD DUP3 DUP2 SUB DUP3 MSTORE PUSH1 0x23 DUP2 MSTORE PUSH1 0x20 ADD DUP1 PUSH2 0x171F PUSH1 0x23 SWAP2 CODECOPY PUSH1 0x40 ADD SWAP2 POP POP PUSH1 0x40 MLOAD DUP1 SWAP2 SUB SWAP1 REVERT JUMPDEST PUSH2 0xFA6 DUP2 PUSH1 0x40 MLOAD DUP1 PUSH1 0x60 ADD PUSH1 0x40 MSTORE DUP1 PUSH1 0x26 DUP2 MSTORE PUSH1 0x20 ADD PUSH2 0x1764 PUSH1 0x26 SWAP2 CODECOPY PUSH1 0x0 DUP1 DUP8 PUSH20 0xFFFFFFFFFFFFFFFFFFFFFFFFFFFFFFFFFFFFFFFF AND PUSH20 0xFFFFFFFFFFFFFFFFFFFFFFFFFFFFFFFFFFFFFFFF AND DUP2 MSTORE PUSH1 0x20 ADD SWAP1 DUP2 MSTORE PUSH1 0x20 ADD PUSH1 0x0 KECCAK256 SLOAD PUSH2 0x10E5 SWAP1 SWAP3 SWAP2 SWAP1 PUSH4 0xFFFFFFFF AND JUMP JUMPDEST PUSH1 0x0 DUP1 DUP6 PUSH20 0xFFFFFFFFFFFFFFFFFFFFFFFFFFFFFFFFFFFFFFFF AND PUSH20 0xFFFFFFFFFFFFFFFFFFFFFFFFFFFFFFFFFFFFFFFF AND DUP2 MSTORE PUSH1 0x20 ADD SWAP1 DUP2 MSTORE PUSH1 0x20 ADD PUSH1 0x0 KECCAK256 DUP2 SWAP1 SSTORE POP PUSH2 0x1039 DUP2 PUSH1 0x0 DUP1 DUP6 PUSH20 0xFFFFFFFFFFFFFFFFFFFFFFFFFFFFFFFFFFFFFFFF AND PUSH20 0xFFFFFFFFFFFFFFFFFFFFFFFFFFFFFFFFFFFFFFFF AND DUP2 MSTORE PUSH1 0x20 ADD SWAP1 DUP2 MSTORE PUSH1 0x20 ADD PUSH1 0x0 KECCAK256 SLOAD PUSH2 0x11A7 SWAP1 SWAP2 SWAP1 PUSH4 0xFFFFFFFF AND JUMP JUMPDEST PUSH1 0x0 DUP1 DUP5 PUSH20 0xFFFFFFFFFFFFFFFFFFFFFFFFFFFFFFFFFFFFFFFF AND PUSH20 0xFFFFFFFFFFFFFFFFFFFFFFFFFFFFFFFFFFFFFFFF AND DUP2 MSTORE PUSH1 0x20 ADD SWAP1 DUP2 MSTORE PUSH1 0x20 ADD PUSH1 0x0 KECCAK256 DUP2 SWAP1 SSTORE POP DUP2 PUSH20 0xFFFFFFFFFFFFFFFFFFFFFFFFFFFFFFFFFFFFFFFF AND DUP4 PUSH20 0xFFFFFFFFFFFFFFFFFFFFFFFFFFFFFFFFFFFFFFFF AND PUSH32 0xDDF252AD1BE2C89B69C2B068FC378DAA952BA7F163C4A11628F55A4DF523B3EF DUP4 PUSH1 0x40 MLOAD DUP1 DUP3 DUP2 MSTORE PUSH1 0x20 ADD SWAP2 POP POP PUSH1 0x40 MLOAD DUP1 SWAP2 SUB SWAP1 LOG3 POP POP POP JUMP JUMPDEST PUSH1 0x0 DUP4 DUP4 GT ISZERO DUP3 SWAP1 ISZERO ISZERO PUSH2 0x1194 JUMPI PUSH1 0x40 MLOAD PUSH32 0x8C379A000000000000000000000000000000000000000000000000000000000 DUP2 MSTORE PUSH1 0x4 ADD DUP1 DUP1 PUSH1 0x20 ADD DUP3 DUP2 SUB DUP3 MSTORE DUP4 DUP2 DUP2 MLOAD DUP2 MSTORE PUSH1 0x20 ADD SWAP2 POP DUP1 MLOAD SWAP1 PUSH1 0x20 ADD SWAP1 DUP1 DUP4 DUP4 PUSH1 0x0 JUMPDEST DUP4 DUP2 LT ISZERO PUSH2 0x1159 JUMPI DUP1 DUP3 ADD MLOAD DUP2 DUP5 ADD MSTORE PUSH1 0x20 DUP2 ADD SWAP1 POP PUSH2 0x113E JUMP JUMPDEST POP POP POP POP SWAP1 POP SWAP1 DUP2 ADD SWAP1 PUSH1 0x1F AND DUP1 ISZERO PUSH2 0x1186 JUMPI DUP1 DUP3 SUB DUP1 MLOAD PUSH1 0x1 DUP4 PUSH1 0x20 SUB PUSH2 0x100 EXP SUB NOT AND DUP2 MSTORE PUSH1 0x20 ADD SWAP2 POP JUMPDEST POP SWAP3 POP POP POP PUSH1 0x40 MLOAD DUP1 SWAP2 SUB SWAP1 REVERT JUMPDEST POP PUSH1 0x0 DUP4 DUP6 SUB SWAP1 POP DUP1 SWAP2 POP POP SWAP4 SWAP3 POP POP POP JUMP JUMPDEST PUSH1 0x0 DUP1 DUP3 DUP5 ADD SWAP1 POP DUP4 DUP2 LT ISZERO ISZERO ISZERO PUSH2 0x1227 JUMPI PUSH1 0x40 MLOAD PUSH32 0x8C379A000000000000000000000000000000000000000000000000000000000 DUP2 MSTORE PUSH1 0x4 ADD DUP1 DUP1 PUSH1 0x20 ADD DUP3 DUP2 SUB DUP3 MSTORE PUSH1 0x1B DUP2 MSTORE PUSH1 0x20 ADD DUP1 PUSH32 0x536166654D6174683A206164646974696F6E206F766572666C6F770000000000 DUP2 MSTORE POP PUSH1 0x20 ADD SWAP2 POP POP PUSH1 0x40 MLOAD DUP1 SWAP2 SUB SWAP1 REVERT JUMPDEST DUP1 SWAP2 POP POP SWAP3 SWAP2 POP POP JUMP JUMPDEST PUSH1 0x0 PUSH20 0xFFFFFFFFFFFFFFFFFFFFFFFFFFFFFFFFFFFFFFFF AND DUP3 PUSH20 0xFFFFFFFFFFFFFFFFFFFFFFFFFFFFFFFFFFFFFFFF AND EQ ISZERO ISZERO ISZERO PUSH2 0x12D6 JUMPI PUSH1 0x40 MLOAD PUSH32 0x8C379A000000000000000000000000000000000000000000000000000000000 DUP2 MSTORE PUSH1 0x4 ADD DUP1 DUP1 PUSH1 0x20 ADD DUP3 DUP2 SUB DUP3 MSTORE PUSH1 0x1F DUP2 MSTORE PUSH1 0x20 ADD DUP1 PUSH32 0x45524332303A206D696E7420746F20746865207A65726F206164647265737300 DUP2 MSTORE POP PUSH1 0x20 ADD SWAP2 POP POP PUSH1 0x40 MLOAD DUP1 SWAP2 SUB SWAP1 REVERT JUMPDEST PUSH2 0x12EB DUP2 PUSH1 0x2 SLOAD PUSH2 0x11A7 SWAP1 SWAP2 SWAP1 PUSH4 0xFFFFFFFF AND JUMP JUMPDEST PUSH1 0x2 DUP2 SWAP1 SSTORE POP PUSH2 0x1342 DUP2 PUSH1 0x0 DUP1 DUP6 PUSH20 0xFFFFFFFFFFFFFFFFFFFFFFFFFFFFFFFFFFFFFFFF AND PUSH20 0xFFFFFFFFFFFFFFFFFFFFFFFFFFFFFFFFFFFFFFFF AND DUP2 MSTORE PUSH1 0x20 ADD SWAP1 DUP2 MSTORE PUSH1 0x20 ADD PUSH1 0x0 KECCAK256 SLOAD PUSH2 0x11A7 SWAP1 SWAP2 SWAP1 PUSH4 0xFFFFFFFF AND JUMP JUMPDEST PUSH1 0x0 DUP1 DUP5 PUSH20 0xFFFFFFFFFFFFFFFFFFFFFFFFFFFFFFFFFFFFFFFF AND PUSH20 0xFFFFFFFFFFFFFFFFFFFFFFFFFFFFFFFFFFFFFFFF AND DUP2 MSTORE PUSH1 0x20 ADD SWAP1 DUP2 MSTORE PUSH1 0x20 ADD PUSH1 0x0 KECCAK256 DUP2 SWAP1 SSTORE POP DUP2 PUSH20 0xFFFFFFFFFFFFFFFFFFFFFFFFFFFFFFFFFFFFFFFF AND PUSH1 0x0 PUSH20 0xFFFFFFFFFFFFFFFFFFFFFFFFFFFFFFFFFFFFFFFF AND PUSH32 0xDDF252AD1BE2C89B69C2B068FC378DAA952BA7F163C4A11628F55A4DF523B3EF DUP4 PUSH1 0x40 MLOAD DUP1 DUP3 DUP2 MSTORE PUSH1 0x20 ADD SWAP2 POP POP PUSH1 0x40 MLOAD DUP1 SWAP2 SUB SWAP1 LOG3 POP POP JUMP JUMPDEST PUSH2 0x1402 DUP2 PUSH1 0x6 PUSH2 0x1582 SWAP1 SWAP2 SWAP1 PUSH4 0xFFFFFFFF AND JUMP JUMPDEST DUP1 PUSH20 0xFFFFFFFFFFFFFFFFFFFFFFFFFFFFFFFFFFFFFFFF AND PUSH32 0x6AE172837EA30B801FBFCDD4108AA1D5BF8FF775444FD70256B44E6BF3DFC3F6 PUSH1 0x40 MLOAD PUSH1 0x40 MLOAD DUP1 SWAP2 SUB SWAP1 LOG2 POP JUMP JUMPDEST PUSH2 0x145C DUP2 PUSH1 0x6 PUSH2 0x165F SWAP1 SWAP2 SWAP1 PUSH4 0xFFFFFFFF AND JUMP JUMPDEST DUP1 PUSH20 0xFFFFFFFFFFFFFFFFFFFFFFFFFFFFFFFFFFFFFFFF AND PUSH32 0xE94479A9F7E1952CC78F2D6BAAB678ADC1B772D936C6583DEF489E524CB66692 PUSH1 0x40 MLOAD PUSH1 0x40 MLOAD DUP1 SWAP2 SUB SWAP1 LOG2 POP JUMP JUMPDEST PUSH1 0x0 DUP1 PUSH20 0xFFFFFFFFFFFFFFFFFFFFFFFFFFFFFFFFFFFFFFFF AND DUP3 PUSH20 0xFFFFFFFFFFFFFFFFFFFFFFFFFFFFFFFFFFFFFFFF AND EQ ISZERO ISZERO ISZERO PUSH2 0x152B JUMPI PUSH1 0x40 MLOAD PUSH32 0x8C379A000000000000000000000000000000000000000000000000000000000 DUP2 MSTORE PUSH1 0x4 ADD DUP1 DUP1 PUSH1 0x20 ADD DUP3 DUP2 SUB DUP3 MSTORE PUSH1 0x22 DUP2 MSTORE PUSH1 0x20 ADD DUP1 PUSH2 0x1803 PUSH1 0x22 SWAP2 CODECOPY PUSH1 0x40 ADD SWAP2 POP POP PUSH1 0x40 MLOAD DUP1 SWAP2 SUB SWAP1 REVERT JUMPDEST DUP3 PUSH1 0x0 ADD PUSH1 0x0 DUP4 PUSH20 0xFFFFFFFFFFFFFFFFFFFFFFFFFFFFFFFFFFFFFFFF AND PUSH20 0xFFFFFFFFFFFFFFFFFFFFFFFFFFFFFFFFFFFFFFFF AND DUP2 MSTORE PUSH1 0x20 ADD SWAP1 DUP2 MSTORE PUSH1 0x20 ADD PUSH1 0x0 KECCAK256 PUSH1 0x0 SWAP1 SLOAD SWAP1 PUSH2 0x100 EXP SWAP1 DIV PUSH1 0xFF AND SWAP1 POP SWAP3 SWAP2 POP POP JUMP JUMPDEST PUSH2 0x158C DUP3 DUP3 PUSH2 0x14A2 JUMP JUMPDEST ISZERO ISZERO ISZERO PUSH2 0x1601 JUMPI PUSH1 0x40 MLOAD PUSH32 0x8C379A000000000000000000000000000000000000000000000000000000000 DUP2 MSTORE PUSH1 0x4 ADD DUP1 DUP1 PUSH1 0x20 ADD DUP3 DUP2 SUB DUP3 MSTORE PUSH1 0x1F DUP2 MSTORE PUSH1 0x20 ADD DUP1 PUSH32 0x526F6C65733A206163636F756E7420616C72656164792068617320726F6C6500 DUP2 MSTORE POP PUSH1 0x20 ADD SWAP2 POP POP PUSH1 0x40 MLOAD DUP1 SWAP2 SUB SWAP1 REVERT JUMPDEST PUSH1 0x1 DUP3 PUSH1 0x0 ADD PUSH1 0x0 DUP4 PUSH20 0xFFFFFFFFFFFFFFFFFFFFFFFFFFFFFFFFFFFFFFFF AND PUSH20 0xFFFFFFFFFFFFFFFFFFFFFFFFFFFFFFFFFFFFFFFF AND DUP2 MSTORE PUSH1 0x20 ADD SWAP1 DUP2 MSTORE PUSH1 0x20 ADD PUSH1 0x0 KECCAK256 PUSH1 0x0 PUSH2 0x100 EXP DUP2 SLOAD DUP2 PUSH1 0xFF MUL NOT AND SWAP1 DUP4 ISZERO ISZERO MUL OR SWAP1 SSTORE POP POP POP JUMP JUMPDEST PUSH2 0x1669 DUP3 DUP3 PUSH2 0x14A2 JUMP JUMPDEST ISZERO ISZERO PUSH2 0x16C0 JUMPI PUSH1 0x40 MLOAD PUSH32 0x8C379A000000000000000000000000000000000000000000000000000000000 DUP2 MSTORE PUSH1 0x4 ADD DUP1 DUP1 PUSH1 0x20 ADD DUP3 DUP2 SUB DUP3 MSTORE PUSH1 0x21 DUP2 MSTORE PUSH1 0x20 ADD DUP1 PUSH2 0x17BA PUSH1 0x21 SWAP2 CODECOPY PUSH1 0x40 ADD SWAP2 POP POP PUSH1 0x40 MLOAD DUP1 SWAP2 SUB SWAP1 REVERT JUMPDEST PUSH1 0x0 DUP3 PUSH1 0x0 ADD PUSH1 0x0 DUP4 PUSH20 0xFFFFFFFFFFFFFFFFFFFFFFFFFFFFFFFFFFFFFFFF AND PUSH20 0xFFFFFFFFFFFFFFFFFFFFFFFFFFFFFFFFFFFFFFFF AND DUP2 MSTORE PUSH1 0x20 ADD SWAP1 DUP2 MSTORE PUSH1 0x20 ADD PUSH1 0x0 KECCAK256 PUSH1 0x0 PUSH2 0x100 EXP DUP2 SLOAD DUP2 PUSH1 0xFF MUL NOT AND SWAP1 DUP4 ISZERO ISZERO MUL OR SWAP1 SSTORE POP POP POP JUMP INVALID GASLIMIT MSTORE NUMBER ORIGIN ADDRESS GASPRICE KECCAK256 PUSH21 0x72616E7366657220746F20746865207A65726F2061 PUSH5 0x6472657373 GASLIMIT MSTORE NUMBER ORIGIN ADDRESS GASPRICE KECCAK256 PUSH2 0x7070 PUSH19 0x6F766520746F20746865207A65726F20616464 PUSH19 0x65737345524332303A207472616E7366657220 PUSH2 0x6D6F PUSH22 0x6E7420657863656564732062616C616E63654D696E74 PUSH6 0x72526F6C653A KECCAK256 PUSH4 0x616C6C65 PUSH19 0x20646F6573206E6F7420686176652074686520 0x4d PUSH10 0x6E74657220726F6C6552 PUSH16 0x6C65733A206163636F756E7420646F65 PUSH20 0x206E6F74206861766520726F6C6545524332303A KECCAK256 PUSH21 0x72616E7366657220616D6F756E7420657863656564 PUSH20 0x20616C6C6F77616E6365526F6C65733A20616363 PUSH16 0x756E7420697320746865207A65726F20 PUSH2 0x6464 PUSH19 0x65737345524332303A207472616E7366657220 PUSH7 0x726F6D20746865 KECCAK256 PUSH27 0x65726F206164647265737345524332303A20617070726F76652066 PUSH19 0x6F6D20746865207A65726F2061646472657373 GASLIMIT MSTORE NUMBER ORIGIN ADDRESS GASPRICE KECCAK256 PUSH5 0x6563726561 PUSH20 0x656420616C6C6F77616E63652062656C6F77207A PUSH6 0x726FA165627A PUSH27 0x72305820D37917D769FB4E41DE7447E03E8AA87B2AEB09D120C039 0x24 0x1f GT 0xdb CALLDATALOAD EXP 0xc4 0xca 0xe0 STOP 0x29 MSTORE PUSH16 0x6C65733A206163636F756E7420697320 PUSH21 0x6865207A65726F2061646472657373000000000000 "
				},
				"gasEstimates": {
					"creation": {
						"codeDepositCost": "1266800",
						"executionCost": "infinite",
						"totalCost": "infinite"
					},
					"external": {
						"addMinter(address)": "infinite",
						"allowance(address,address)": "809",
						"approve(address,uint256)": "infinite",
						"balanceOf(address)": "619",
						"decimals()": "506",
						"decreaseAllowance(address,uint256)": "infinite",
						"increaseAllowance(address,uint256)": "infinite",
						"isMinter(address)": "infinite",
						"mint(address,uint256)": "infinite",
						"name()": "infinite",
						"renounceMinter()": "infinite",
						"symbol()": "infinite",
						"totalSupply()": "481",
						"transfer(address,uint256)": "infinite",
						"transferFrom(address,address,uint256)": "infinite"
					}
				},
				"methodIdentifiers": {
					"addMinter(address)": "983b2d56",
					"allowance(address,address)": "dd62ed3e",
					"approve(address,uint256)": "095ea7b3",
					"balanceOf(address)": "70a08231",
					"decimals()": "313ce567",
					"decreaseAllowance(address,uint256)": "a457c2d7",
					"increaseAllowance(address,uint256)": "39509351",
					"isMinter(address)": "aa271e1a",
					"mint(address,uint256)": "40c10f19",
					"name()": "06fdde03",
					"renounceMinter()": "98650275",
					"symbol()": "95d89b41",
					"totalSupply()": "18160ddd",
					"transfer(address,uint256)": "a9059cbb",
					"transferFrom(address,address,uint256)": "23b872dd"
				}
			},
			"userdoc": {
				"methods": {}
			}
		}
	}
}